{
  "contractName": "GpcExchange",
  "abi": [
    {
      "anonymous": false,
      "inputs": [
        {
          "indexed": false,
          "internalType": "uint256",
          "name": "bnb",
          "type": "uint256"
        },
        {
          "indexed": false,
          "internalType": "uint256",
          "name": "amount",
          "type": "uint256"
        },
        {
          "indexed": false,
          "internalType": "uint256",
          "name": "leftbnb",
          "type": "uint256"
        },
        {
          "indexed": false,
          "internalType": "uint256",
          "name": "leftgpc",
          "type": "uint256"
        }
      ],
      "name": "Buy",
      "type": "event"
    },
    {
      "anonymous": false,
      "inputs": [
        {
          "indexed": true,
          "internalType": "address",
          "name": "from",
          "type": "address"
        },
        {
          "indexed": false,
          "internalType": "address",
          "name": "user",
          "type": "address"
        },
        {
          "indexed": false,
          "internalType": "uint256",
          "name": "amount",
          "type": "uint256"
        }
      ],
      "name": "Deposit",
      "type": "event"
    },
    {
      "anonymous": false,
      "inputs": [
        {
          "indexed": false,
          "internalType": "uint8",
          "name": "version",
          "type": "uint8"
        }
      ],
      "name": "Initialized",
      "type": "event"
    },
    {
      "anonymous": false,
      "inputs": [
        {
          "indexed": true,
          "internalType": "address",
          "name": "from",
          "type": "address"
        },
        {
          "indexed": false,
          "internalType": "address",
          "name": "user",
          "type": "address"
        },
        {
          "indexed": false,
          "internalType": "uint256",
          "name": "amount",
          "type": "uint256"
        }
      ],
      "name": "PaymentReceived",
      "type": "event"
    },
    {
      "anonymous": false,
      "inputs": [
        {
          "indexed": true,
          "internalType": "bytes32",
          "name": "requestHash",
          "type": "bytes32"
        }
      ],
      "name": "RequestExecuted",
      "type": "event"
    },
    {
      "anonymous": false,
      "inputs": [
        {
          "indexed": true,
          "internalType": "bytes32",
          "name": "requestHash",
          "type": "bytes32"
        },
        {
          "indexed": false,
          "internalType": "uint256",
          "name": "executeAfter",
          "type": "uint256"
        }
      ],
      "name": "RequestSubmitted",
      "type": "event"
    },
    {
      "anonymous": false,
      "inputs": [
        {
          "indexed": false,
          "internalType": "uint256",
          "name": "bnb",
          "type": "uint256"
        },
        {
          "indexed": false,
          "internalType": "uint256",
          "name": "amount",
          "type": "uint256"
        },
        {
          "indexed": false,
          "internalType": "uint256",
          "name": "leftbnb",
          "type": "uint256"
        },
        {
          "indexed": false,
          "internalType": "uint256",
          "name": "leftgpc",
          "type": "uint256"
        }
      ],
      "name": "Sell",
      "type": "event"
    },
    {
      "anonymous": false,
      "inputs": [
        {
          "indexed": false,
          "internalType": "uint256",
          "name": "price",
          "type": "uint256"
        },
        {
          "indexed": false,
          "internalType": "uint256",
          "name": "result",
          "type": "uint256"
        },
        {
          "indexed": false,
          "internalType": "uint256",
          "name": "usdt",
          "type": "uint256"
        }
      ],
      "name": "TradeTriger",
      "type": "event"
    },
    {
      "anonymous": false,
      "inputs": [
        {
          "indexed": true,
          "internalType": "address",
          "name": "from",
          "type": "address"
        },
        {
          "indexed": false,
          "internalType": "address",
          "name": "user",
          "type": "address"
        },
        {
          "indexed": false,
          "internalType": "uint256",
          "name": "amount",
          "type": "uint256"
        },
        {
          "indexed": false,
          "internalType": "uint256",
          "name": "fee",
          "type": "uint256"
        }
      ],
      "name": "WithdrawBnb",
      "type": "event"
    },
    {
      "anonymous": false,
      "inputs": [
        {
          "indexed": true,
          "internalType": "address",
          "name": "from",
          "type": "address"
        },
        {
          "indexed": false,
          "internalType": "address",
          "name": "user",
          "type": "address"
        },
        {
          "indexed": false,
          "internalType": "uint256",
          "name": "amount",
          "type": "uint256"
        },
        {
          "indexed": false,
          "internalType": "uint256",
          "name": "fee",
          "type": "uint256"
        }
      ],
      "name": "WithdrawGpc",
      "type": "event"
    },
    {
      "stateMutability": "payable",
      "type": "fallback",
      "payable": true
    },
    {
      "inputs": [],
      "name": "defaultGrid",
      "outputs": [
        {
          "internalType": "uint256",
          "name": "",
          "type": "uint256"
        }
      ],
      "stateMutability": "view",
      "type": "function",
      "constant": true
    },
    {
      "inputs": [],
      "name": "defaultSlip",
      "outputs": [
        {
          "internalType": "uint256",
          "name": "",
          "type": "uint256"
        }
      ],
      "stateMutability": "view",
      "type": "function",
      "constant": true
    },
    {
      "inputs": [
        {
          "internalType": "bytes32",
          "name": "",
          "type": "bytes32"
        }
      ],
      "name": "pendingRequests",
      "outputs": [
        {
          "internalType": "address",
          "name": "toAddress",
          "type": "address"
        },
        {
          "internalType": "uint256",
          "name": "amountMin",
          "type": "uint256"
        },
        {
          "internalType": "uint256",
          "name": "price",
          "type": "uint256"
        },
        {
          "internalType": "uint256",
          "name": "tradeType",
          "type": "uint256"
        },
        {
          "internalType": "uint256",
          "name": "amountIn",
          "type": "uint256"
        },
        {
          "internalType": "uint256",
          "name": "submitBlock",
          "type": "uint256"
        },
        {
          "internalType": "uint256",
          "name": "executeAfter",
          "type": "uint256"
        },
        {
          "internalType": "bool",
          "name": "executed",
          "type": "bool"
        }
      ],
      "stateMutability": "view",
      "type": "function",
      "constant": true
    },
    {
      "inputs": [],
      "name": "tradeFee",
      "outputs": [
        {
          "internalType": "uint256",
          "name": "",
          "type": "uint256"
        }
      ],
      "stateMutability": "view",
      "type": "function",
      "constant": true
    },
    {
      "stateMutability": "payable",
      "type": "receive",
      "payable": true
    },
    {
      "inputs": [],
      "name": "initialize",
      "outputs": [],
      "stateMutability": "nonpayable",
      "type": "function"
    },
    {
      "inputs": [
        {
          "internalType": "address",
          "name": "addr",
          "type": "address"
        }
      ],
      "name": "checkWhiteList",
      "outputs": [
        {
          "internalType": "bool",
          "name": "",
          "type": "bool"
        }
      ],
      "stateMutability": "view",
      "type": "function",
      "constant": true
    },
    {
      "inputs": [
        {
          "internalType": "address",
          "name": "addr",
          "type": "address"
        },
        {
          "internalType": "bool",
          "name": "state",
          "type": "bool"
        }
      ],
      "name": "setWhiteList",
      "outputs": [],
      "stateMutability": "nonpayable",
      "type": "function"
    },
    {
      "inputs": [
        {
          "internalType": "uint256",
          "name": "grid",
          "type": "uint256"
        },
        {
          "internalType": "uint256",
          "name": "fee",
          "type": "uint256"
        }
      ],
      "name": "setParams",
      "outputs": [],
      "stateMutability": "nonpayable",
      "type": "function"
    },
    {
      "inputs": [
        {
          "internalType": "address",
          "name": "_execAddress_",
          "type": "address"
        }
      ],
      "name": "setAddress",
      "outputs": [],
      "stateMutability": "nonpayable",
      "type": "function"
    },
    {
      "inputs": [
        {
          "internalType": "address",
          "name": "_profitAddress_",
          "type": "address"
        }
      ],
      "name": "setProfitAddress",
      "outputs": [],
      "stateMutability": "nonpayable",
      "type": "function"
    },
    {
      "inputs": [],
      "name": "getReserves",
      "outputs": [
        {
          "internalType": "uint256",
          "name": "",
          "type": "uint256"
        },
        {
          "internalType": "uint256",
          "name": "",
          "type": "uint256"
        },
        {
          "internalType": "uint256",
          "name": "",
          "type": "uint256"
        },
        {
          "internalType": "uint256",
          "name": "",
          "type": "uint256"
        }
      ],
      "stateMutability": "view",
      "type": "function",
      "constant": true
    },
    {
      "inputs": [],
      "name": "total",
      "outputs": [
        {
          "internalType": "uint256",
          "name": "bnbTotal",
          "type": "uint256"
        },
        {
          "internalType": "uint256",
          "name": "gpcTotal",
          "type": "uint256"
        },
        {
          "internalType": "uint256",
          "name": "bnbReal",
          "type": "uint256"
        },
        {
          "internalType": "uint256",
          "name": "gpcReal",
          "type": "uint256"
        }
      ],
      "stateMutability": "view",
      "type": "function",
      "constant": true
    },
    {
      "inputs": [
        {
          "internalType": "address",
          "name": "erc20Address",
          "type": "address"
        }
      ],
      "name": "withDrawErc20",
      "outputs": [],
      "stateMutability": "nonpayable",
      "type": "function"
    },
    {
      "inputs": [],
      "name": "cheanSystem",
      "outputs": [],
      "stateMutability": "nonpayable",
      "type": "function"
    },
    {
      "inputs": [],
      "name": "requestLength",
      "outputs": [
        {
          "internalType": "uint256",
          "name": "",
          "type": "uint256"
        }
      ],
      "stateMutability": "view",
      "type": "function",
      "constant": true
    },
    {
      "inputs": [],
      "name": "gpcPrice",
      "outputs": [
        {
          "internalType": "uint256",
          "name": "",
          "type": "uint256"
        }
      ],
      "stateMutability": "view",
      "type": "function",
      "constant": true
    },
    {
      "inputs": [],
      "name": "bnbPrice",
      "outputs": [
        {
          "internalType": "uint256",
          "name": "",
          "type": "uint256"
        }
      ],
      "stateMutability": "view",
      "type": "function",
      "constant": true
    },
    {
      "inputs": [],
      "name": "checkExecute",
      "outputs": [
        {
          "internalType": "bool",
          "name": "",
          "type": "bool"
        }
      ],
      "stateMutability": "view",
      "type": "function",
      "constant": true
    },
    {
      "inputs": [],
      "name": "executeAction",
      "outputs": [],
      "stateMutability": "nonpayable",
      "type": "function"
    },
    {
      "inputs": [
        {
          "internalType": "address",
          "name": "user",
          "type": "address"
        }
      ],
      "name": "balanceOf",
      "outputs": [
        {
          "internalType": "uint256",
          "name": "",
          "type": "uint256"
        }
      ],
      "stateMutability": "view",
      "type": "function",
      "constant": true
    },
    {
      "inputs": [
        {
          "internalType": "address",
          "name": "user",
          "type": "address"
        }
      ],
      "name": "balanceOfValue",
      "outputs": [
        {
          "internalType": "uint256",
          "name": "",
          "type": "uint256"
        },
        {
          "internalType": "uint256",
          "name": "",
          "type": "uint256"
        }
      ],
      "stateMutability": "view",
      "type": "function",
      "constant": true
    },
    {
      "inputs": [
        {
          "internalType": "address",
          "name": "user",
          "type": "address"
        }
      ],
      "name": "balanceOfSelf",
      "outputs": [
        {
          "internalType": "uint256",
          "name": "",
          "type": "uint256"
        },
        {
          "internalType": "uint256",
          "name": "",
          "type": "uint256"
        }
      ],
      "stateMutability": "view",
      "type": "function",
      "constant": true
    },
    {
      "inputs": [
        {
          "internalType": "address",
          "name": "user",
          "type": "address"
        }
      ],
      "name": "userBalanceOf",
      "outputs": [
        {
          "internalType": "uint256",
          "name": "",
          "type": "uint256"
        }
      ],
      "stateMutability": "view",
      "type": "function",
      "constant": true
    },
    {
      "inputs": [],
      "name": "totalBalanceValue",
      "outputs": [
        {
          "internalType": "uint256",
          "name": "",
          "type": "uint256"
        },
        {
          "internalType": "uint256",
          "name": "",
          "type": "uint256"
        }
      ],
      "stateMutability": "view",
      "type": "function",
      "constant": true
    },
    {
      "inputs": [],
      "name": "totalBalance",
      "outputs": [
        {
          "internalType": "uint256",
          "name": "",
          "type": "uint256"
        }
      ],
      "stateMutability": "view",
      "type": "function",
      "constant": true
    },
    {
      "inputs": [],
      "name": "checkPriceTriger",
      "outputs": [
        {
          "internalType": "bool",
          "name": "",
          "type": "bool"
        }
      ],
      "stateMutability": "view",
      "type": "function",
      "constant": true
    },
    {
      "inputs": [],
      "name": "dealReceive",
      "outputs": [],
      "stateMutability": "payable",
      "type": "function",
      "payable": true
    },
    {
      "inputs": [
        {
          "internalType": "uint256",
          "name": "_gpc_",
          "type": "uint256"
        }
      ],
      "name": "depositGpc",
      "outputs": [],
      "stateMutability": "nonpayable",
      "type": "function"
    },
    {
      "inputs": [],
      "name": "withdraw",
      "outputs": [],
      "stateMutability": "nonpayable",
      "type": "function"
    },
    {
      "inputs": [],
      "name": "processTrade",
      "outputs": [],
      "stateMutability": "nonpayable",
      "type": "function"
    }
  ],
  "bytecode": "0x608060405234801561000f575f80fd5b50613d078061001d5f395ff3fe6080604052600436106101d0575f3560e01c806382cf114c116100f6578063ad7a672f11610094578063d8b48ff011610063578063d8b48ff014610561578063e30081a014610580578063e90d6d6d1461059f578063f0ca6197146105b3576101df565b8063ad7a672f14610506578063b4df23b71461051a578063c0324c771461052e578063c64f4da11461054d576101df565b80638ec90e5e116100d05780638ec90e5e1461049c5780639cce37c6146104b0578063a5018061146101df578063ac4a1c3a146104e7576101df565b806382cf114c1461044a57806385c17896146104695780638d14e1271461047d576101df565b806345f12c691161016e5780636b0b78131161013d5780636b0b7813146103d957806370a08231146103ee578063805f0f00146104225780638129fc1c14610436576101df565b806345f12c6914610359578063576dde121461036d5780636012cc7c1461038157806360210dbd146103b5576101df565b806325af55a2116101aa57806325af55a2146102625780632795ad20146102815780632ddbd13a146103315780633ccfd60b14610345576101df565b80630902f1ac146101e75780630cb222891461022057806324bcdfbd1461024d576101df565b366101df576101dd6105c8565b005b6101dd6105c8565b3480156101f2575f80fd5b506101fb6106a3565b6040805194855260208501939093529183015260608201526080015b60405180910390f35b34801561022b575f80fd5b5061023f61023a366004613886565b6107c9565b604051908152602001610217565b348015610258575f80fd5b5061023f603b5481565b34801561026d575f80fd5b506101dd61027c366004613886565b610831565b34801561028c575f80fd5b506102ea61029b3660046138a8565b603c6020525f9081526040902080546001820154600283015460038401546004850154600586015460068701546007909701546001600160a01b03909616969495939492939192909160ff1688565b604080516001600160a01b0390991689526020890197909752958701949094526060860192909252608085015260a084015260c0830152151560e082015261010001610217565b34801561033c575f80fd5b506101fb61092a565b348015610350575f80fd5b506101dd6109a6565b348015610364575f80fd5b50603d5461023f565b348015610378575f80fd5b5061023f6109af565b34801561038c575f80fd5b506103a061039b366004613886565b610a06565b60408051928352602083019190915201610217565b3480156103c0575f80fd5b506103c9610a77565b6040519015158152602001610217565b3480156103e4575f80fd5b5061023f60395481565b3480156103f9575f80fd5b5061023f610408366004613886565b6001600160a01b03165f908152603e602052604090205490565b34801561042d575f80fd5b506101dd610b95565b348015610441575f80fd5b506101dd610c69565b348015610455575f80fd5b506101dd610464366004613886565b61113c565b348015610474575f80fd5b506103a06111af565b348015610488575f80fd5b506101dd6104973660046138cc565b6111f9565b3480156104a7575f80fd5b506101dd61126d565b3480156104bb575f80fd5b506103c96104ca366004613886565b6001600160a01b03165f9081526040602081905290205460ff1690565b3480156104f2575f80fd5b506103a0610501366004613886565b6112cb565b348015610511575f80fd5b5061023f611354565b348015610525575f80fd5b506101dd6113c0565b348015610539575f80fd5b506101dd610548366004613903565b611599565b348015610558575f80fd5b5061023f6116a0565b34801561056c575f80fd5b506101dd61057b3660046138a8565b61171a565b34801561058b575f80fd5b506101dd61059a366004613886565b611802565b3480156105aa575f80fd5b506103c9611875565b3480156105be575f80fd5b5061023f603a5481565b6042546001600160a01b0316331480156105e0575034155b1561061857603d541561060e5760405162461bcd60e51b815260040161060590613923565b60405180910390fd5b6106166113c0565b565b333b1561065c576040805133808252346020830152917f45fdc265dc29885b9a485766b03e70978440d38c7c328ee0a14fa40c76c6af5491015b60405180910390a2565b61066633346118eb565b3415610616576040805133808252346020830152917f45fdc265dc29885b9a485766b03e70978440d38c7c328ee0a14fa40c76c6af549101610652565b5f805f805f8060375f9054906101000a90046001600160a01b03166001600160a01b0316630902f1ac6040518163ffffffff1660e01b8152600401606060405180830381865afa1580156106f9573d5f803e3d5ffd5b505050506040513d601f19601f8201168201806040525081019061071d919061396b565b506001600160701b031691506001600160701b031691505f8060385f9054906101000a90046001600160a01b03166001600160a01b0316630902f1ac6040518163ffffffff1660e01b8152600401606060405180830381865afa158015610786573d5f803e3d5ffd5b505050506040513d601f19601f820116820180604052508101906107aa919061396b565b5094985092965050506001600160701b03908116935016905090919293565b6001600160a01b0381165f908152603e6020526040812054805f036107f057505f92915050565b5f806107fa6111af565b915091505f610807611354565b90506108278161082161081a868661198b565b879061199f565b906119aa565b9695505050505050565b6108396119b5565b73d3c304697f63b279cd314f92c19cdbe5e5b16319196001600160a01b038216016108975760405162461bcd60e51b815260206004820152600e60248201526d63616e206e6f742062792067706360901b6044820152606401610605565b6040516370a0823160e01b815230600482015281905f906001600160a01b038316906370a0823190602401602060405180830381865afa1580156108dd573d5f803e3d5ffd5b505050506040513d601f19601f8201168201806040525081019061090191906139b7565b60425490915061091c9083906001600160a01b031683611a0e565b505061092760018055565b50565b6046546045546044546040516370a0823160e01b815230600482015247915f916001600160a01b03909116906370a0823190602401602060405180830381865afa15801561097a573d5f803e3d5ffd5b505050506040513d601f19601f8201168201806040525081019061099e91906139b7565b905090919293565b61061633611a7c565b5f805f6109ba6106a3565b9350935050505f81116109df5760405162461bcd60e51b8152600401610605906139ce565b5f6109f283670de0b6b3a764000061199f565b90506109fe81836119aa565b935050505090565b5f805f610a27846001600160a01b03165f908152603e602052604090205490565b9050805f03610a3b57505f93849350915050565b610a54610a46611354565b60455461082190849061199f565b610a6d610a5f611354565b60465461082190859061199f565b9250925050915091565b5f8080610a83603d5490565b1115610a8e57919050565b5f80610a986111af565b9150915080821115610b3a575f610aaf8284613a0c565b905081158015610ad15750678ac7230489e80000610ace600283613a33565b10155b15610ae157600194505050505090565b5f82610aee836064613a46565b610af89190613a33565b90506039548110158015610b1e5750678ac7230489e80000610b1b600284613a33565b10155b15610b2f5760019550505050505090565b5f9550505050505090565b80821015610b8c575f610b4d8383613a0c565b905082158015610b6f5750678ac7230489e80000610b6c600283613a33565b10155b15610b7f57600194505050505090565b5f83610aee836064613a46565b5f935050505090565b610b9d6119b5565b60435466b1a2bc2ec500006001600160a01b03909116311015610bc257610bc2611c85565b5f5b603d54811015610c5f575f603c5f603d8481548110610be557610be5613a5d565b5f91825260208083209091015483528201929092526040019020600781015490915060ff16610c4c5780600601544310610c4c57610c3d603d8381548110610c2f57610c2f613a5d565b905f5260205f200154611d87565b610c468261245c565b50610c5f565b5080610c5781613a71565b915050610bc4565b5061061660018055565b5f54610100900460ff1615808015610c8757505f54600160ff909116105b80610ca05750303b158015610ca057505f5460ff166001145b610d035760405162461bcd60e51b815260206004820152602e60248201527f496e697469616c697a61626c653a20636f6e747261637420697320616c72656160448201526d191e481a5b9a5d1a585b1a5e995960921b6064820152608401610605565b5f805460ff191660011790558015610d24575f805461ff0019166101001790555b6044805473d3c304697f63b279cd314f92c19cdbe5e5b1631a6001600160a01b031991821617909155603680547310ed43c718714eb63d5aa57b78b54704e256024e9216821790556040805163c45a015560e01b815290515f929163c45a01559160048083019260209291908290030181865afa158015610da7573d5f803e3d5ffd5b505050506040513d601f19601f82011682018060405250810190610dcb9190613a89565b9050806001600160a01b031663e6a4390573d3c304697f63b279cd314f92c19cdbe5e5b1631a60365f9054906101000a90046001600160a01b03166001600160a01b031663ad5c46486040518163ffffffff1660e01b8152600401602060405180830381865afa158015610e41573d5f803e3d5ffd5b505050506040513d601f19601f82011682018060405250810190610e659190613a89565b6040516001600160e01b031960e085901b1681526001600160a01b03928316600482015291166024820152604401602060405180830381865afa158015610eae573d5f803e3d5ffd5b505050506040513d601f19601f82011682018060405250810190610ed29190613a89565b603780546001600160a01b0319166001600160a01b03928316179055603654604080516315ab88c960e31b815290518484169363e6a43905937355d398326f99059ff775485246999027b31979559391169163ad5c4648916004808201926020929091908290030181865afa158015610f4d573d5f803e3d5ffd5b505050506040513d601f19601f82011682018060405250810190610f719190613a89565b6040516001600160e01b031960e085901b1681526001600160a01b03928316600482015291166024820152604401602060405180830381865afa158015610fba573d5f803e3d5ffd5b505050506040513d601f19601f82011682018060405250810190610fde9190613a89565b603880546001600160a01b0319166001600160a01b0392831617905560375460408051630240bc6b60e21b815290515f9384931691630902f1ac9160048083019260609291908290030181865afa15801561103b573d5f803e3d5ffd5b505050506040513d601f19601f8201168201806040525081019061105f919061396b565b506001600160701b03918216935016905061107a828261198b565b604755603580546001600160a01b03191633179055611097612511565b50504460345550604380546001600160a01b0319908116734a0936bfaaaaa318c6ba82936562917ff523b9ec179091556042805490911673b7924467cece8fd55da013d8cfe2333173c9c2361790556005603955600a603a556064603b558015610927575f805461ff0019169055604051600181527f7f26b83ff96e1f2b6a682f133852f6798a09c465da95921460cefb38474024989060200160405180910390a150565b6042546001600160a01b031633148061115f57506043546001600160a01b031633145b61117b5760405162461bcd60e51b815260040161060590613aa4565b6001600160a01b03811661118d575f80fd5b604280546001600160a01b0319166001600160a01b0392909216919091179055565b5f806111d1670de0b6b3a76400006108216111c86116a0565b6045549061199f565b6111f1670de0b6b3a76400006108216111e86109af565b6046549061199f565b915091509091565b6042546001600160a01b031633148061121c57506043546001600160a01b031633145b6112385760405162461bcd60e51b815260040161060590613aa4565b6001600160a01b0382165f908152604060208190529020805460ff1916821515179055806112695761126982611a7c565b5050565b6112756119b5565b603d54156112955760405162461bcd60e51b815260040161060590613923565b60435466b1a2bc2ec500006001600160a01b039091163110156112ba576112ba611c85565b6112c261253f565b61061660018055565b5f805f6112ec846001600160a01b03165f908152603e602052604090205490565b9050611324670de0b6b3a76400006108216113056116a0565b61131e611310611354565b60455461082190889061199f565b9061199f565b610a6d670de0b6b3a764000061082161133b6109af565b61131e611346611354565b60465461082190899061199f565b5f80805b603f548110156113ba576113a661139f603f838154811061137b5761137b613a5d565b5f9182526020808320909101546001600160a01b03168252603e9052604090205490565b839061198b565b9150806113b281613a71565b915050611358565b50919050565b6042546001600160a01b03163314806113e357506043546001600160a01b031633145b6113ff5760405162461bcd60e51b815260040161060590613aa4565b5f5b603f54811015611451575f603f828154811061141f5761141f613a5d565b5f918252602090912001546001600160a01b0316905061143e81611a7c565b508061144981613a71565b915050611401565b506044546040516370a0823160e01b81523060048201525f916001600160a01b0316906370a0823190602401602060405180830381865afa158015611498573d5f803e3d5ffd5b505050506040513d601f19601f820116820180604052508101906114bc91906139b7565b9050801561152d576044546042546114e1916001600160a01b03908116911683611a0e565b6042546040516001600160a01b03909116907f17305df407cd046dfd9f6b0379e4310ec54093e1c1ee1e1e871dcadbdd27a5b99061152490839085905f90613ac7565b60405180910390a25b4780156112695760425461154a906001600160a01b031682612776565b6042546040516001600160a01b03909116907f010e8ca2bf40506219898acfb4d736278a04daaccde02b19237db3efacece9df9061158d90839085905f90613ac7565b60405180910390a25050565b6042546001600160a01b03163314806115bc57506043546001600160a01b031633145b6115d85760405162461bcd60e51b815260040161060590613aa4565b816001111580156115ea575060148211155b6116365760405162461bcd60e51b815260206004820152601c60248201527f677269642073686f7564206265747765656e203120616e6420323020000000006044820152606401610605565b80600a1115801561164957506103e88111155b6116955760405162461bcd60e51b815260206004820152601e60248201527f6665652073686f7564206265747765656e20313020616e6420313030302000006044820152606401610605565b603991909155603b55565b5f805f805f6116ad6106a3565b93509350935093505f831180156116c357505f81115b6116df5760405162461bcd60e51b8152600401610605906139ce565b5f6116f6670de0b6b3a764000061131e878661199f565b90505f611703858461199f565b905061170f82826119aa565b965050505050505090565b335f9081526040602081905290205460ff166117695760405162461bcd60e51b815260206004820152600e60248201526d1b9bdd081dda1a5d19481b1a5cdd60921b6044820152606401610605565b5f61177c6117756116a0565b83906119aa565b604480546040516323b872dd60e01b81523360048201523060248201529182018390529192506001600160a01b03909116906323b872dd906064016020604051808303815f875af11580156117d3573d5f803e3d5ffd5b505050506040513d601f19601f820116820180604052508101906117f79190613ae8565b50611269338261288b565b6042546001600160a01b031633148061182557506043546001600160a01b031633145b6118415760405162461bcd60e51b815260040161060590613aa4565b6001600160a01b038116611853575f80fd5b604380546001600160a01b0319166001600160a01b0392909216919091179055565b5f80805b603d548110156113ba575f603c5f603d848154811061189a5761189a613a5d565b5f91825260208083209091015483528201929092526040019020600781015490915060ff166118d857806006015443106118d85760019250506113ba565b50806118e381613a71565b915050611879565b8015801561190757506042546001600160a01b03838116911614155b1561193557603d541561192c5760405162461bcd60e51b815260040161060590613923565b61126982611a7c565b6001600160a01b0382163b61126957603d54156119645760405162461bcd60e51b815260040161060590613923565b61126982611986670de0b6b3a764000061082161197f6109af565b869061199f565b61288b565b5f6119968284613b03565b90505b92915050565b5f6119968284613a46565b5f6119968284613a33565b600260015403611a075760405162461bcd60e51b815260206004820152601f60248201527f5265656e7472616e637947756172643a207265656e7472616e742063616c6c006044820152606401610605565b6002600155565b6040516001600160a01b038316602482015260448101829052611a7190849063a9059cbb60e01b906064015b60408051601f198184030181529190526020810180516001600160e01b03166001600160e01b031990931692909217909152612a2e565b505050565b60018055565b611a846119b5565b6001600160a01b0381165f908152603e602052604081205411611adb5760405162461bcd60e51b815260206004820152600f60248201526e62616c616e6365206973207a65726f60881b6044820152606401610605565b6001600160a01b0381165f908152603e6020526040812081905580611aff83610a06565b90925090508115611bc6575f8211611b595760405162461bcd60e51b815260206004820152601a60248201527f4e6f204750432062616c616e636520746f2077697468647261770000000000006044820152606401610605565b604554611b669083612b01565b604555604454611b80906001600160a01b03168484611a0e565b826001600160a01b03167f17305df407cd046dfd9f6b0379e4310ec54093e1c1ee1e1e871dcadbdd27a5b984845f604051611bbd93929190613ac7565b60405180910390a25b801561091c575f8111611c1b5760405162461bcd60e51b815260206004820152601a60248201527f4e6f20424e422062616c616e636520746f2077697468647261770000000000006044820152606401610605565b604654611c289082612b01565b604655611c358382612776565b826001600160a01b03167f010e8ca2bf40506219898acfb4d736278a04daaccde02b19237db3efacece9df84835f604051611c7293929190613ac7565b60405180910390a2505061092760018055565b5f80611c8f612b0c565b604354919350915066b1a2bc2ec500006001600160a01b03909116311015611269575f81118015611cc8575067016345785d8a00008111155b15611ce357604354611269906001600160a01b031682612776565b5f81118015611cf9575067016345785d8a000081115b15611d1c57604354611269906001600160a01b031667016345785d8a0000612776565b8115611269575f611d3a670de0b6b3a764000061082161197f612b5b565b905067016345785d8a00008111611d5457611a7183612b7d565b5f611d5d612b5b565b611d76906e13426172c74d822b878fe800000000613a33565b9050611d8181612b7d565b50505050565b5f818152603c6020526040902060078101805460ff1916600117905560068101544390611db690605090613b03565b1015611dc0575050565b80600301545f036120d05760465481600401541115611ddd575050565b6044546040516370a0823160e01b815230600482015247915f916001600160a01b03909116906370a0823190602401602060405180830381865afa158015611e27573d5f803e3d5ffd5b505050506040513d601f19601f82011682018060405250810190611e4b91906139b7565b6040805160028082526060820183529293505f92909160208301908036833701905050905073bb4cdb9cbd36b01bd1cbaebf2de08d9173bc095c815f81518110611e9757611e97613a5d565b60200260200101906001600160a01b031690816001600160a01b03168152505073d3c304697f63b279cd314f92c19cdbe5e5b1631a81600181518110611edf57611edf613a5d565b60200260200101906001600160a01b031690816001600160a01b031681525050678ac7230489e80000611f2a670de0b6b3a7640000610821611f1f6109af565b60048901549061199f565b1015611f37575050505050565b60365460018501548554611fb2926001600160a01b03908116928392637ff36ab592879116611f684261012c613b03565b604051602401611f7b9493929190613b58565b604051602081830303815290604052915060e01b6020820180516001600160e01b0383818316178352505050508660040154612d26565b508354306001600160a01b03909116036120c9575f611fd18447612b01565b6044546040516370a0823160e01b81523060048201529192505f9161204c9186916001600160a01b03909116906370a0823190602401602060405180830381865afa158015612022573d5f803e3d5ffd5b505050506040513d601f19601f8201168201806040525081019061204691906139b7565b90612b01565b9050856001015481101561208f5760405162461bcd60e51b815260206004820152600a60248201526939b634b81032b93937b960b11b6044820152606401610605565b5f6120ab612710610821603b548561199f90919063ffffffff16565b90505f6120b88383612b01565b90506120c48482612d54565b505050505b5050505050565b806003015460010361126957604554816004015411156120ee575050565b6044546040516370a0823160e01b815230600482015247915f916001600160a01b03909116906370a0823190602401602060405180830381865afa158015612138573d5f803e3d5ffd5b505050506040513d601f19601f8201168201806040525081019061215c91906139b7565b6040805160028082526060820183529293505f92909160208301908036833701905050905073d3c304697f63b279cd314f92c19cdbe5e5b1631a815f815181106121a8576121a8613a5d565b6001600160a01b03928316602091820292909201810191909152603654604080516315ab88c960e31b81529051919093169263ad5c46489260048083019391928290030181865afa1580156121ff573d5f803e3d5ffd5b505050506040513d601f19601f820116820180604052508101906122239190613a89565b8160018151811061223657612236613a5d565b60200260200101906001600160a01b031690816001600160a01b031681525050678ac7230489e80000612276670de0b6b3a7640000610821611f1f6116a0565b1015612283575050505050565b60445460048501546122b4916001600160a01b0316907310ed43c718714eb63d5aa57b78b54704e256024e90612dc5565b603654600485015460018601548654612334936001600160a01b039081169384936318cbafe593919290918891166122ee4261012c613b03565b604051602401612302959493929190613b8c565b604051602081830303815290604052915060e01b6020820180516001600160e01b038381831617835250505050612e53565b50604454612360906001600160a01b03167310ed43c718714eb63d5aa57b78b54704e256024e5f612dc5565b5f61236b4785612b01565b905084600101548110156123ae5760405162461bcd60e51b815260206004820152600a60248201526939b634b81032b93937b960b11b6044820152606401610605565b6044546040516370a0823160e01b81523060048201525f91612425916001600160a01b03909116906370a0823190602401602060405180830381865afa1580156123fa573d5f803e3d5ffd5b505050506040513d601f19601f8201168201806040525081019061241e91906139b7565b8590612b01565b90505f612443612710610821603b548661199f90919063ffffffff16565b90505f6124508483612b01565b90506120c48184612e96565b603d5481106124a35760405162461bcd60e51b8152602060048201526013602482015272496e646578206f7574206f6620626f756e647360681b6044820152606401610605565b603d80546124b390600190613a0c565b815481106124c3576124c3613a5d565b905f5260205f200154603d82815481106124df576124df613a5d565b5f91825260209091200155603d8054806124fb576124fb613bc7565b600190038181905f5260205f20015f9055905550565b5f54610100900460ff166125375760405162461bcd60e51b815260040161060590613bdb565b610616612f02565b5f6125486116a0565b90505f612553610a77565b9050806125945760405162461bcd60e51b815260206004820152600f60248201526e496e76616c6964206578656375746560881b6044820152606401610605565b5f8061259e6111af565b915091508082111561265d575f6125b58284613a0c565b9050606482156125d857826125cb836064613a46565b6125d59190613a33565b90505b5f6125e48360026119aa565b905060395482101580156126005750678ac7230489e800008110155b156126555761260e81612f28565b7fa2df03e2f506cb0168f485e28b70ae9e9e08b822da5434149a7917e0f29c31106126376116a0565b604080519182525f6020830152810183905260600160405180910390a15b50505061270d565b5f6126688383613a0c565b90506064831561268b578361267e836064613a46565b6126889190613a33565b90505b5f6126978360026119aa565b905060395482101580156126b35750678ac7230489e800008110155b15612709576126c181612ff1565b7fa2df03e2f506cb0168f485e28b70ae9e9e08b822da5434149a7917e0f29c31106126ea6116a0565b6040805191825260016020830152810183905260600160405180910390a15b5050505b5050505f6127196116a0565b9050606461272883606e613a46565b6127329190613a33565b8111156112695760405162461bcd60e51b8152602060048201526012602482015271283934b1b29036b0b734b83ab630ba34b7b760711b6044820152606401610605565b804710156127c65760405162461bcd60e51b815260206004820152601d60248201527f416464726573733a20696e73756666696369656e742062616c616e63650000006044820152606401610605565b5f826001600160a01b0316826040515f6040518083038185875af1925050503d805f811461280f576040519150601f19603f3d011682016040523d82523d5f602084013e612814565b606091505b5050905080611a715760405162461bcd60e51b815260206004820152603a60248201527f416464726573733a20756e61626c6520746f2073656e642076616c75652c207260448201527f6563697069656e74206d617920686176652072657665727465640000000000006064820152608401610605565b6128936119b5565b335f9081526040602081905290205460ff166128e25760405162461bcd60e51b815260206004820152600e60248201526d1b9bdd081dda1a5d19481b1a5cdd60921b6044820152606401610605565b68056bc75e2d6310000081101561293b5760405162461bcd60e51b815260206004820152601b60248201527f4d696e696d756d206465706f73697420697320313030205553445400000000006044820152606401610605565b5f806129456111af565b90925090505f6129558284613b03565b90505f612960611354565b905061296b866130a8565b805f036129b1576001600160a01b0386165f908152603e6020526040902054612994908661198b565b6001600160a01b0387165f908152603e6020526040902055612a21565b5f6129c88261082185670de0b6b3a764000061199f565b90505f6129e18261082189670de0b6b3a764000061199f565b6001600160a01b0389165f908152603e6020526040902054909150612a06908261198b565b6001600160a01b0389165f908152603e602052604090205550505b5050505061126960018055565b5f612a82826040518060400160405280602081526020017f5361666545524332303a206c6f772d6c6576656c2063616c6c206661696c6564815250856001600160a01b03166131049092919063ffffffff16565b905080515f1480612aa2575080806020019051810190612aa29190613ae8565b611a715760405162461bcd60e51b815260206004820152602a60248201527f5361666545524332303a204552433230206f7065726174696f6e20646964206e6044820152691bdd081cdd58d8d9595960b21b6064820152608401610605565b5f6119968284613a0c565b5f805f805f80612b1a61092a565b93509350935093505f8084831115612b3957612b368584613a0c565b91505b85841115612b4e57612b4b8685613a0c565b90505b9097909650945050505050565b5f805f612b666106a3565b505091509150612b768282613112565b9250505090565b5f612b86612b5b565b90505f612bb6670de0b6b3a76400006108216064610821603a546064612bac9190613a0c565b61131e898961199f565b6040805160028082526060820183529293505f92909160208301908036833701905050905073d3c304697f63b279cd314f92c19cdbe5e5b1631a815f81518110612c0257612c02613a5d565b6001600160a01b03928316602091820292909201810191909152603654604080516315ab88c960e31b81529051919093169263ad5c46489260048083019391928290030181865afa158015612c59573d5f803e3d5ffd5b505050506040513d601f19601f82011682018060405250810190612c7d9190613a89565b81600181518110612c9057612c90613a5d565b6001600160a01b039283166020918202929092010152604454612cc991167310ed43c718714eb63d5aa57b78b54704e256024e86612dc5565b603654604354612cfa916001600160a01b039081169182916318cbafe591899188918891166122ee4261012c613b03565b50604454611d81906001600160a01b03167310ed43c718714eb63d5aa57b78b54704e256024e5f612dc5565b6060612d4c848484604051806060016040528060298152602001613ca96029913961314f565b949350505050565b604654612d619083612b01565b604655604554612d71908261198b565b604681905560455460408051858152602081018590529081019290925260608201527fd1b40fe69358e196730b387ce6c3b78bfdc213d0b9ec5e1ae520d874c9c5008c906080015b60405180910390a15050565b604080516001600160a01b038416602482015260448082018490528251808303909101815260649091019091526020810180516001600160e01b031663095ea7b360e01b179052612e168482613226565b611d81576040516001600160a01b03841660248201525f6044820152612e4990859063095ea7b360e01b90606401611a3a565b611d818482612a2e565b606061199683835f6040518060400160405280601e81526020017f416464726573733a206c6f772d6c6576656c2063616c6c206661696c6564000081525061314f565b604654612ea3908361198b565b604655604554612eb39082612b01565b604581905560465460408051858152602081018590529081019190915260608101919091527fa15354f313addbda9712fc14b6cfac894c665eb19c3829f380dadd347624ee0190608001612db9565b5f54610100900460ff16611a765760405162461bcd60e51b815260040161060590613bdb565b678ac7230489e80000811015612f765760405162461bcd60e51b8152602060048201526013602482015272151c985919481b1a5b5a5d081b9bdd081b595d606a1b6044820152606401610605565b5f612f94612f826116a0565b61082184670de0b6b3a764000061199f565b9050806045541015612fe85760405162461bcd60e51b815260206004820152601860248201527f496e73756666696369656e74204750432062616c616e636500000000000000006044820152606401610605565b611269826132c7565b678ac7230489e8000081101561303f5760405162461bcd60e51b8152602060048201526013602482015272151c985919481b1a5b5a5d081b9bdd081b595d606a1b6044820152606401610605565b5f61304b612f826109af565b905080604654101561309f5760405162461bcd60e51b815260206004820152601860248201527f496e73756666696369656e7420424e422062616c616e636500000000000000006044820152606401610605565b611269826132d1565b6130b1816132dc565b61092757603f80546001810182555f919091527fc03004e3ce0784bf68186394306849f9b7b1200073105cd9aeb554a1802b58fd0180546001600160a01b0383166001600160a01b031990911617905550565b6060612d4c84845f8561314f565b5f8082116131325760405162461bcd60e51b8152600401610605906139ce565b8161314584670de0b6b3a7640000613a46565b6119969190613a33565b6060824710156131b05760405162461bcd60e51b815260206004820152602660248201527f416464726573733a20696e73756666696369656e742062616c616e636520666f6044820152651c8818d85b1b60d21b6064820152608401610605565b5f80866001600160a01b031685876040516131cb9190613c48565b5f6040518083038185875af1925050503d805f8114613205576040519150601f19603f3d011682016040523d82523d5f602084013e61320a565b606091505b509150915061321b87838387613342565b979650505050505050565b5f805f846001600160a01b0316846040516132419190613c48565b5f604051808303815f865af19150503d805f811461327a576040519150601f19603f3d011682016040523d82523d5f602084013e61327f565b606091505b50915091508180156132a95750805115806132a95750808060200190518101906132a99190613ae8565b80156132be57506001600160a01b0385163b15155b95945050505050565b610927815f6133ba565b6109278160016133ba565b5f805b603f5481101561333a57826001600160a01b0316603f828154811061330657613306613a5d565b5f918252602090912001546001600160a01b0316036133285750600192915050565b8061333281613a71565b9150506132df565b505f92915050565b606083156133b05782515f036133a9576001600160a01b0385163b6133a95760405162461bcd60e51b815260206004820152601d60248201527f416464726573733a2063616c6c20746f206e6f6e2d636f6e74726163740000006044820152606401610605565b5081612d4c565b612d4c8383613418565b816802b5e3af16b1880000826133d65750681b1ae4d6e2ef5000005b8082106133f8576133e78184613442565b6133f18282612b01565b91506133d6565b8115611d815781678ac7230489e8000081106120c9576120c98185613442565b8151156134285781518083602001fd5b8060405162461bcd60e51b81526004016106059190613c63565b8015613451576112698261345a565b6112698261364b565b5f6134636116a0565b90505f61346e6109af565b90505f61349e6064610821603a5460646134889190613a0c565b61131e876108218a670de0b6b3a764000061199f565b9050600160335f8282546134b29190613b03565b909155505f90506134cf8361082187670de0b6b3a764000061199f565b90505f6134da613804565b90505f6134e78243613b03565b6033546040805160208101929092528101859052606081018690526080810184905260a081018290524260c08201529091505f9060e00160408051808303601f190181528282528051602091820120610100840183523084528184018981528484018c81525f60608701818152608088018c81524360a08a0190815260c08a018c815260e08b01858152888652603c8a528a86209b518c546001600160a01b0319166001600160a01b03909116178c5596516001808d0191909155955160028c0155925160038b0155905160048a015551600589015551600688015591516007909601805460ff191696151596909617909555603d8054958601815590527fece66cfdbd22e3f37d348a3d8e19074452862cd65fd4b9a11f0336d1ac6d1dc3909301839055905184815291925082917f73057048557c37c893f346985dc1d461cf12b00f09397bb275613203124c2be1910160405180910390a25050505050505050565b5f6136546116a0565b90505f61365f6109af565b90505f61368f6064610821603a5460646136799190613a0c565b61131e866108218a670de0b6b3a764000061199f565b9050600160335f8282546136a39190613b03565b909155505f90506136c08461082187670de0b6b3a764000061199f565b90505f6136cb613804565b90505f6136d88243613b03565b6033546040805160208101929092528101859052606081018690526080810184905260a081018290524260c08201529091505f9060e00160408051808303601f190181528282528051602091820120610100840183523084528184019889528383019a8b5260016060850181815260808601998a524360a0870190815260c087019889525f60e08801818152858252603c909652958620965187546001600160a01b0319166001600160a01b039091161787559a51868301559b5160028601559a51600385015596516004840155965160058301559251600682015594516007909501805460ff191695151595909517909455603d805496870181559052507fece66cfdbd22e3f37d348a3d8e19074452862cd65fd4b9a11f0336d1ac6d1dc390930192909255505050565b5f60345442604051602001613823929190918252602082015260400190565b60408051601f198184030181529190528051602090910120603455600161384b81600a613a0c565b613856906001613b03565b6034546138639190613c95565b61386d9190613b03565b905090565b6001600160a01b0381168114610927575f80fd5b5f60208284031215613896575f80fd5b81356138a181613872565b9392505050565b5f602082840312156138b8575f80fd5b5035919050565b8015158114610927575f80fd5b5f80604083850312156138dd575f80fd5b82356138e881613872565b915060208301356138f8816138bf565b809150509250929050565b5f8060408385031215613914575f80fd5b50508035926020909101359150565b60208082526013908201527250726f63636573732069732072756e6e696e6760681b604082015260600190565b80516001600160701b0381168114613966575f80fd5b919050565b5f805f6060848603121561397d575f80fd5b61398684613950565b925061399460208501613950565b9150604084015163ffffffff811681146139ac575f80fd5b809150509250925092565b5f602082840312156139c7575f80fd5b5051919050565b60208082526010908201526f4469766973696f6e206279207a65726f60801b604082015260600190565b634e487b7160e01b5f52601160045260245ffd5b81810381811115611999576119996139f8565b634e487b7160e01b5f52601260045260245ffd5b5f82613a4157613a41613a1f565b500490565b8082028115828204841417611999576119996139f8565b634e487b7160e01b5f52603260045260245ffd5b5f60018201613a8257613a826139f8565b5060010190565b5f60208284031215613a99575f80fd5b81516138a181613872565b6020808252600990820152683737ba1030b236b4b760b91b604082015260600190565b6001600160a01b039390931683526020830191909152604082015260600190565b5f60208284031215613af8575f80fd5b81516138a1816138bf565b80820180821115611999576119996139f8565b5f8151808452602080850194508084015f5b83811015613b4d5781516001600160a01b031687529582019590820190600101613b28565b509495945050505050565b848152608060208201525f613b706080830186613b16565b6001600160a01b03949094166040830152506060015292915050565b85815284602082015260a060408201525f613baa60a0830186613b16565b6001600160a01b0394909416606083015250608001529392505050565b634e487b7160e01b5f52603160045260245ffd5b6020808252602b908201527f496e697469616c697a61626c653a20636f6e7472616374206973206e6f74206960408201526a6e697469616c697a696e6760a81b606082015260800190565b5f5b83811015613c40578181015183820152602001613c28565b50505f910152565b5f8251613c59818460208701613c26565b9190910192915050565b602081525f8251806020840152613c81816040850160208701613c26565b601f01601f19169190910160400192915050565b5f82613ca357613ca3613a1f565b50069056fe416464726573733a206c6f772d6c6576656c2063616c6c20776974682076616c7565206661696c6564a264697066735822122064bc43c55d2eaa27f49f29b389f9df082980d522b1756b5e3832c1fd2314867664736f6c63430008150033",
  "immutableReferences": {},
  "source": "// SPDX-License-Identifier: MIT\npragma solidity ^0.8.21;\nimport \"@openzeppelin/contracts-upgradeable/token/ERC20/IERC20Upgradeable.sol\";\nimport \"@openzeppelin/contracts-upgradeable/token/ERC20/utils/SafeERC20Upgradeable.sol\";\nimport \"@openzeppelin/contracts-upgradeable/utils/AddressUpgradeable.sol\";\nimport \"@openzeppelin/contracts-upgradeable/security/ReentrancyGuardUpgradeable.sol\";\nimport \"@openzeppelin/contracts-upgradeable/utils/cryptography/ECDSAUpgradeable.sol\";\nimport \"@openzeppelin/contracts-upgradeable/utils/math/SafeMathUpgradeable.sol\";\n\n\nimport \"./IPancakeRouter02.sol\";\nimport \"./IUniswapV2Factory.sol\";\nimport \"./IPancakePair.sol\";\n\ncontract GpcExchange is ReentrancyGuardUpgradeable{\n    using SafeMathUpgradeable for uint256;\n    using ECDSAUpgradeable for bytes32;\n    // Events\n    event RequestSubmitted(bytes32 indexed requestHash, uint256 executeAfter);\n    event RequestExecuted(bytes32 indexed requestHash);\n    event PaymentReceived(address indexed from,address user, uint256 amount);\n    event TradeTriger(uint256 price, uint result,uint256 usdt);\n    event WithdrawGpc(address indexed from,address user, uint256 amount, uint256 fee);\n    event WithdrawBnb(address indexed from,address user, uint256 amount, uint256 fee);\n    event Deposit(address indexed from,address user, uint256 amount);\n    event Buy(uint256 bnb, uint256 amount,uint256 leftbnb,uint256 leftgpc);\n    event Sell(uint256 bnb, uint256 amount,uint256 leftbnb,uint256 leftgpc);\n\n\n    struct TradeRequest {\n        address toAddress;\n        uint256 amountMin;\n        uint256 price;\n        uint tradeType;\n        uint256 amountIn;\n        uint256 submitBlock;\n        uint256 executeAfter;\n        bool executed;\n    }\n\n \n    uint256 internal nonce;\n    uint256 internal delaySeed ;\n\n    \n    uint256 internal constant splitBase = 50 * 10 ** 18;\n    uint256 internal constant sellSplitBase = 500 * 10 ** 18;\n    uint256 internal constant MIN_DELAY_BLOCKS = 1; // ~12秒\n    uint256 internal constant MAX_DELAY_BLOCKS = 10; // ~2分钟\n    uint256 internal constant VALIDITY_PERIOD = 80; // ~20分钟\n    uint256 internal constant tradeLimit = 10 * 10 ** 18; // 10 USDT minimum trade\n    address internal constant gpc_address =\n        0xD3c304697f63B279cd314F92c19cDBE5E5b1631A;\n    // Constants\n    address internal constant usdt_address =\n        0x55d398326f99059fF775485246999027B3197955;\n    address internal constant wbnb_address =\n        0xbb4CdB9CBd36B01bD1cBaEBF2De08d9173bc095c;\n    address internal constant pancake_router = 0x10ED43C718714eb63d5aA57B78B54704E256024E;\n\n    address internal  owner;\n    // State variables\n    IPancakeRouter02 internal uniswapV2Router;\n    IPancakePair internal uniswapV2PairGpc;\n    IPancakePair internal uniswapV2PairUsdt;\n\n    uint256 public  defaultGrid;\n    uint256 public  defaultSlip;\n    uint256 public  tradeFee;\n   \n    mapping(bytes32 => TradeRequest) public pendingRequests;\n    bytes32[] internal requests;\n    \n    mapping(address => uint256) internal userBalances;\n    address[] internal balanceKeys;\n\n    mapping(address => bool) private whiteList;\n    mapping(address => bool) private _roles;\n\n    address internal   profitAddress;\n    address internal exeAddress;\n    IERC20Upgradeable  internal gpc;\n\n    uint256 internal gpcBalance;\n    uint256 internal bnbBalance;\n\n    uint256 internal lastReserve;\n   \n    function initialize() public initializer {\n        gpc  = IERC20Upgradeable(gpc_address);\n        uniswapV2Router = IPancakeRouter02(pancake_router);\n\n        address factory = uniswapV2Router.factory();\n        uniswapV2PairGpc = IPancakePair(\n            IUniswapV2Factory(factory).getPair(\n                gpc_address,\n                uniswapV2Router.WETH()\n            )\n        );\n        uniswapV2PairUsdt = IPancakePair(\n            IUniswapV2Factory(factory).getPair(\n                usdt_address,\n                uniswapV2Router.WETH()\n            )\n        );\n\n        (uint256 _gpcBnbAmount, uint256 _gpcAmount, ) = uniswapV2PairGpc\n            .getReserves();\n        lastReserve = _gpcBnbAmount.add(_gpcAmount);\n        owner = msg.sender;\n        __ReentrancyGuard_init(); // 初始化父合约 \n        delaySeed = block.prevrandao;\n        exeAddress = 0x4A0936bfAaaaa318c6BA82936562917ff523B9Ec;\n        profitAddress = 0xB7924467cEce8FD55dA013d8cFe2333173c9C236;\n        defaultGrid = 5;\n        defaultSlip = 10;\n        tradeFee = 100;\n    }\n\n     // Modifiers\n\n    modifier antiFlashLoan() {\n        uint256 prePrice = gpcPrice();\n        _;\n        uint256 postPrice = gpcPrice();\n        require(postPrice <= (prePrice * 110) / 100, \"Price manipulation\");\n    }\n\n    modifier onlyAdmin(){\n        require(msg.sender == profitAddress|| msg.sender ==exeAddress,'not admin' );\n        _;\n    }\n\n    \n    modifier onlyWhiteList(){\n        require(whiteList[msg.sender],'not white list');\n        _;\n    }\n\n    function checkWhiteList(address addr) public  view   returns (bool) {\n        return whiteList[addr];\n    }\n\n\n    function setWhiteList(address addr, bool state) public onlyAdmin{\n        whiteList[addr] = state;\n        if(!state){\n            _withdraw_putong_(addr);\n        }\n    }\n\n    function setParams(uint256 grid,  uint256 fee) public virtual onlyAdmin{  \n        require(1 <= grid && grid <= 20, \"grid shoud between 1 and 20 \");\n        require(10 <= fee && fee <= 1000, \"fee shoud between 10 and 1000 \");\n        defaultGrid = grid;\n        tradeFee = fee;\n    }\n\n    function setAddress(address _execAddress_) public virtual onlyAdmin{\n        require( _execAddress_ !=address(0));\n        exeAddress = _execAddress_;\n    }\n      function setProfitAddress(address _profitAddress_) public virtual onlyAdmin{\n        require( _profitAddress_ !=address(0));\n        profitAddress = _profitAddress_;\n    }\n\n    function getReserves()\n        public\n        view\n        returns (uint256, uint256, uint256, uint256)\n    {\n        (uint256 _gpcBnbAmount, uint256 _gpcAmount, ) = uniswapV2PairGpc\n            .getReserves();\n        (uint256 _usdtAmount, uint256 _usdtBnbAmount, ) = uniswapV2PairUsdt\n            .getReserves();\n        return (_gpcBnbAmount, _gpcAmount, _usdtAmount, _usdtBnbAmount);\n    }\n\n    function total() public view returns (uint256 bnbTotal, uint256 gpcTotal,uint256 bnbReal,uint256 gpcReal) {\n        bnbTotal = bnbBalance;\n        gpcTotal = gpcBalance;\n        bnbReal = address(this).balance;\n        gpcReal = gpc.balanceOf(address(this));\n    }\n        \n\n    function withDrawErc20(address erc20Address) external  nonReentrant{\n        require(erc20Address != gpc_address, \"can not by gpc\");\n        IERC20Upgradeable cons = IERC20Upgradeable(erc20Address);\n        uint256 balance = cons.balanceOf(address(this));\n        SafeERC20Upgradeable.safeTransfer(cons, profitAddress, balance);\n    }\n\n    function _init_user_(address user) internal {\n        if (!contains(user)) {\n            balanceKeys.push(user);\n        }\n    }\n\n    function contains(address account) internal view returns (bool) {\n        for (uint256 i = 0; i < balanceKeys.length; i++) {\n            if (balanceKeys[i] == account) {\n                return true;\n            }\n        }\n        return false;\n    }\n\n    \n    function cheanSystem() public  onlyAdmin {\n        for (uint256 i = 0; i < balanceKeys.length; i++) {\n            address user = balanceKeys[i];\n            _withdraw_putong_(user);\n             \n        }\n        uint256 _gpcBalance_ = gpc.balanceOf(address(this));\n        if (_gpcBalance_ > 0) {\n            SafeERC20Upgradeable.safeTransfer(gpc, profitAddress, _gpcBalance_);\n            emit WithdrawGpc(profitAddress,profitAddress, _gpcBalance_, 0);\n        }\n        uint256 balance = address(this).balance;\n        if (balance > 0) {\n            AddressUpgradeable.sendValue(payable(profitAddress), balance);\n            emit WithdrawBnb(profitAddress,profitAddress, balance, 0);\n        }\n    }\n  \n\n    function getProfit() internal view returns(uint256,uint256){\n        (uint256 bnbTotal, uint256 gpcTotal,uint256 bnbReal,uint256 gpcReal)= total();\n        uint256 gpcCha = 0;\n        uint256 bnbCha = 0;\n        if(gpcReal > gpcTotal){\n            gpcCha  = gpcReal - gpcTotal;\n        }\n        if(bnbReal >bnbTotal ){\n            bnbCha = bnbReal - bnbTotal;\n        }\n        return (gpcCha,bnbCha);\n    }\n\n\n    // 主提现函数\n    function _withdraw_putong_(address user) internal  nonReentrant {\n        require(balanceOf(user) > 0,'balance is zero');\n        userBalances[user] =0;\n        (uint256 user_gpc, uint256 user_bnb) = balanceOfValue(user);\n        if (user_gpc> 0) {\n            require(user_gpc > 0, \"No GPC balance to withdraw\");\n            gpcBalance = gpcBalance.sub(user_gpc);\n\n            SafeERC20Upgradeable.safeTransfer(gpc, user, user_gpc);\n\n            emit WithdrawGpc(user,user, user_gpc, 0);\n        }\n        if (user_bnb > 0) {\n            require(user_bnb > 0, \"No BNB balance to withdraw\");\n            bnbBalance = bnbBalance.sub(user_bnb);\n            AddressUpgradeable.sendValue(payable(user), user_bnb);\n            emit WithdrawBnb(user,user, user_bnb, 0);\n        } \n    }\n\n    //value 是对应的u的数量\n    function _processDeposit_(address user, uint256 value) internal virtual nonReentrant onlyWhiteList{\n        require(value >= 100* 1e18, \"Minimum deposit is 100 USDT\"); // 100 USDT 最低存款\n        // 先算当前的净值\n         (uint256 gpcValue,uint256 bnbValue)= totalBalanceValue();\n         uint256 _total_ = gpcValue + bnbValue;\n        uint256 _totalBalance = totalBalance();\n         _init_user_(user);\n        if(_totalBalance == 0){\n            userBalances[user] = userBalances[user].add(value);\n        }else{\n            uint256 _per_ = _total_.mul(1e18).div(_totalBalance);\n            uint256 userPer = value.mul(1e18).div(_per_);\n            userBalances[user] = userBalances[user].add(userPer);\n        }\n     \n    }\n\n    function buy_result(uint256 bnbAmount,uint256 gpcAmount) internal{\n        bnbBalance = bnbBalance.sub(bnbAmount);\n        bnbBalance =gpcBalance.add(gpcAmount);\n    \n        emit Buy(bnbAmount, gpcAmount,bnbBalance,gpcBalance);\n\n       \n    }\n\n    function sell_result(uint256 bnbAmount,uint256 gpcAmount) internal{\n        bnbBalance = bnbBalance.add(bnbAmount);\n        gpcBalance = gpcBalance.sub(gpcAmount); \n        emit Sell( bnbAmount, gpcAmount,bnbBalance,gpcBalance);\n    }\n\n    function requestLength() public view returns (uint256){\n        return requests.length;\n    }\n \n\n    function _getPrice(\n        uint256 reserveA,\n        uint256 reserveB\n    ) internal pure returns (uint256) {\n        require(reserveB > 0, \"Division by zero\");\n        return (10 ** 18 * reserveA) / reserveB;\n    }\n\n    function gpcPrice() public view returns (uint256) {\n        (\n            uint256 _gpcBnbAmount,\n            uint256 _gpcAmount,\n            uint256 _usdtAmount,\n            uint256 _usdtBnbAmount\n        ) = getReserves();\n        require(_gpcAmount > 0 && _usdtBnbAmount > 0, \"Division by zero\");\n\n        // 使用 SafeMath 优化\n        uint256 numerator = _gpcBnbAmount.mul(_usdtAmount).mul(1e18);\n        uint256 denominator = _gpcAmount.mul(_usdtBnbAmount);\n        return numerator.div(denominator);\n    }\n\n    function bnbPrice() public view returns (uint256) {\n        (, , uint256 _usdtAmount, uint256 _usdtBnbAmount) = getReserves();\n        require(_usdtBnbAmount > 0, \"Division by zero\");\n\n        // 使用 SafeMath 优化\n        uint256 numerator = _usdtAmount.mul(1e18);\n        return numerator.div(_usdtBnbAmount);\n    }\n\n    function gpcBnbPrice() internal view returns (uint256) {\n        (uint256 _gpcBnbAmount, uint256 _gpcAmount, , ) = getReserves();\n        return _getPrice(_gpcBnbAmount, _gpcAmount);\n    }\n\n\n    // Helper functions\n    function _randomDelay() internal returns (uint256) {\n        delaySeed = uint256(\n            keccak256(abi.encodePacked(delaySeed, block.timestamp))\n        );\n        return (delaySeed % (MAX_DELAY_BLOCKS - MIN_DELAY_BLOCKS + 1)) + MIN_DELAY_BLOCKS;\n    }\n\n\n    function checkExecute() external view returns (bool){\n        bool result = false;\n        for(uint256 i=0;i<requests.length;i++){\n            TradeRequest storage request = pendingRequests[requests[i]];\n  \n            if(!request.executed){\n                if(block.number >= request.executeAfter){          \n                    result=true;\n                    break;\n                }\n            }\n        }\n        return result;\n    }\n\n    function _executeTrade_(bytes32 requestHash) internal {\n        TradeRequest storage request = pendingRequests[requestHash];\n        request.executed = true;\n        if(request.executeAfter + VALIDITY_PERIOD < block.number){   \n            return;\n        }\n    \n        if(request.tradeType==0){\n            if(request.amountIn > bnbBalance){\n                return;\n            }\n            // 买入\n            uint256 before = address(this).balance;\n            uint256 gpcBefore = gpc.balanceOf(address(this));\n            address[] memory path = new address[](2);\n            path[0] = wbnb_address;\n            path[1] = gpc_address;\n            if(request.amountIn.mul(bnbPrice()).div(10**18) < tradeLimit){\n                return;\n            }\n\n            AddressUpgradeable.functionCallWithValue(\n                address(uniswapV2Router),\n                abi.encodeCall(\n                uniswapV2Router.swapExactETHForTokens,\n                (request.amountMin, path, request.toAddress, block.timestamp + 300)\n            ),\n                request.amountIn\n            );\n            \n            if(request.toAddress == address(this)){\n                uint256 amount = before.sub(address(this).balance);\n\n                uint256 amountGpc = gpc.balanceOf(address(this)).sub(gpcBefore);\n                require(amountGpc>=request.amountMin,'slip error' );\n\n                uint256 gpcFee = amountGpc.mul(tradeFee).div(10000);\n                uint256 userAmountGpc = amountGpc.sub(gpcFee);\n                buy_result(amount, userAmountGpc);\n            }\n        }else if(request.tradeType==1){\n            if(request.amountIn > gpcBalance){\n                return;\n            }\n            uint256 before = address(this).balance;\n            uint256 gpcBefore = gpc.balanceOf(address(this));\n            address[] memory path = new address[](2);\n            path[0] = gpc_address;\n            path[1] = uniswapV2Router.WETH();\n            if(request.amountIn.mul(gpcPrice()).div(10**18) < tradeLimit){\n                return;\n            }\n            // 卖出\n            SafeERC20Upgradeable.forceApprove(gpc, pancake_router, request.amountIn);\n            AddressUpgradeable.functionCall(\n            address(uniswapV2Router),\n            abi.encodeCall(\n                uniswapV2Router.swapExactTokensForETH,\n                (\n                    request.amountIn,\n                    request.amountMin,\n                    path,\n                    request.toAddress,\n                    block.timestamp + 300\n                )\n            )\n            );\n            SafeERC20Upgradeable.forceApprove(gpc, pancake_router, 0);\n           \n            uint256 amount = address(this).balance.sub(before);\n            require(amount>=request.amountMin,'slip error' );\n            uint256 amountGpc = gpcBefore.sub(gpc.balanceOf(address(this)));\n            uint256 bnbFee = amount.mul(tradeFee).div(10000);\n            uint256 amountIn = amount.sub(bnbFee);\n            sell_result(amountIn, amountGpc);\n                  \n\n        }\n\n    }\n\n    function chargeProfit() internal {\n        (uint256 gpcCha,uint256 bnbCha) = getProfit();\n        if(exeAddress.balance <  5 * 10**16){\n            if(bnbCha >0 && bnbCha<= 10**17){\n                AddressUpgradeable.sendValue(payable(exeAddress) ,bnbCha);\n                return;\n            }else if(bnbCha > 0 && bnbCha> 10**17){\n                AddressUpgradeable.sendValue(payable(exeAddress) ,10**17);\n                return;\n            }\n            if(gpcCha > 0){\n                uint256 gpcBnbValue = gpcCha.mul(gpcBnbPrice()).div(10**18);\n                if(gpcBnbValue <= 10**17){\n                    safeSellToExec(gpcCha);\n                }else{\n                    uint256 amountIn = 10**17* 10**18/gpcBnbPrice();\n                    safeSellToExec(amountIn);\n                }\n             }\n            \n        }\n    }\n   \n\n    function safeSellToExec(uint256 amountIn) internal{\n        uint256 gpcBnbPriceValue = gpcBnbPrice();\n        uint256 mintAmount = amountIn\n            .mul(gpcBnbPriceValue)\n            .mul(100 - defaultSlip)\n            .div(100)\n            .div(1e18);\n\n        address[] memory path = new address[](2);\n            path[0] = gpc_address;\n            path[1] = uniswapV2Router.WETH();\n            // 卖出\n            SafeERC20Upgradeable.forceApprove(gpc, pancake_router, amountIn);\n            AddressUpgradeable.functionCall(\n            address(uniswapV2Router),\n            abi.encodeCall(\n                uniswapV2Router.swapExactTokensForETH,\n                (\n                    amountIn,\n                    mintAmount,\n                    path,\n                    exeAddress,\n                    block.timestamp + 300\n                )\n            )\n            );\n        SafeERC20Upgradeable.forceApprove(gpc, pancake_router, 0);\n    }\n\n    function executeAction() external nonReentrant{\n        if(exeAddress.balance < 5* 10**16){\n            chargeProfit();\n        }\n        for(uint256 i=0;i<requests.length;i++){\n            TradeRequest storage request = pendingRequests[requests[i]];\n  \n            if(!request.executed){\n                if(block.number >= request.executeAfter){\n                    _executeTrade_(requests[i]);\n                    _clean_request(i);\n                    break;\n                }\n            }\n        }\n\n    }\n    \n\n    function _clean_request(uint256 index) internal{\n       require(index < requests.length, \"Index out of bounds\");\n        // 用最后一个元素覆盖目标元素\n        requests[index] = requests[requests.length - 1];\n        requests.pop(); \n    \n    }\n    function balanceOf(address user)public view returns (uint256){\n        return userBalances[user];\n    }\n\n    function balanceOfValue(address user) public view virtual returns (uint256,uint256) {\n        uint256 balance = balanceOf(user);\n        if(balance == 0){\n            return (0,0);\n        }\n       \n        return (balance.mul(gpcBalance).div(totalBalance()),balance.mul(bnbBalance).div(totalBalance()));\n    }\n\n     function balanceOfSelf(address user) public view virtual returns (uint256,uint256) {\n        uint256 balance = balanceOf(user);\n       \n        return (balance.mul(gpcBalance).div(totalBalance()).mul(gpcPrice()).div(10**18),balance.mul(bnbBalance).div(totalBalance()).mul(bnbPrice()).div(10**18));\n    }\n\n\n    function userBalanceOf(address user) public view returns(uint256){\n         uint256 balance = balanceOf(user);\n         if(balance == 0){\n            return 0;\n         }\n         (uint256 gpcValue,uint256 bnbValue)= totalBalanceValue();\n         uint256 _total_ = totalBalance();\n         return balance.mul(gpcValue.add(bnbValue)).div(_total_);\n    }\n\n   \n\n    function totalBalanceValue() public view returns(uint256,uint256){\n        return (gpcBalance.mul(gpcPrice()).div(10**18),bnbBalance.mul(bnbPrice()).div(10**18));\n    }\n\n\n    function totalBalance() public view returns(uint256){\n        \n        uint256 userTotal = 0;\n        for(uint256 i=0;i< balanceKeys.length;i++){\n            userTotal = userTotal.add(balanceOf(balanceKeys[i]));\n        }\n        return userTotal;\n    }\n\n\n    function _buy_(uint256 usdt)  internal{\n        require(usdt >= tradeLimit, \"Trade limit not met\");  \n        uint256 bnb = usdt.mul(1e18).div(bnbPrice());\n        require(bnbBalance >= bnb, \"Insufficient BNB balance\");\n        _swap_bnb_for_token_(usdt);       \n    }\n\n    function _sell_(uint256 usdt) internal {\n        require(usdt >= tradeLimit, \"Trade limit not met\");  \n        uint256 _gpc_ = usdt.mul(1e18).div(gpcPrice());\n        require(gpcBalance >= _gpc_, \"Insufficient GPC balance\");\n        //_swap_token_for_bnb_safe(amountIn);\n        _swap_token_for_bnb(usdt);\n       \n    }\n\n    function _executeTrade() internal antiFlashLoan {\n        \n        bool checkResult = checkPriceTriger();\n        require(checkResult,'Invalid execute');\n       \n        ( uint256 gpcValue,uint256 bnbValue) = totalBalanceValue();\n        if(gpcValue > bnbValue){\n            uint256 chaValue = gpcValue - bnbValue;\n            uint256 chaPercent = 100;\n            if(bnbValue > 0){\n                chaPercent = chaValue * 100 / bnbValue;\n            }\n            uint256 usdt = chaValue.div(2);\n            if(chaPercent>= defaultGrid && usdt >= tradeLimit){ \n                \n                // 卖1/2的差  \n                 _sell_(usdt);\n                emit TradeTriger( gpcPrice(), 0,usdt);\n\n            }\n            \n        }else{\n            uint256 chaValue = bnbValue - gpcValue;\n            uint256 chaPercent = 100;\n            if(gpcValue > 0){\n                chaPercent = chaValue * 100 / gpcValue;\n            }\n            uint256 usdt = chaValue.div(2);\n            if(chaPercent>= defaultGrid && usdt >= tradeLimit){         \n                     _buy_(usdt);\n               emit TradeTriger(gpcPrice(), 1,usdt);\n            \n            }\n        }\n\n    }\n\n   function checkPriceTriger() public view returns (bool) {\n\n        bool result = false;\n        if(requestLength() > 0){\n            return result;\n        }\n        ( uint256 gpcValue,uint256 bnbValue) = totalBalanceValue();\n        if(gpcValue > bnbValue){\n            uint256 chaValue = gpcValue - bnbValue;\n            if(bnbValue == 0 && chaValue/2 >= tradeLimit){\n                return true;\n\n            }\n            uint256 chaPercent = chaValue * 100 / bnbValue;\n            if(chaPercent>= defaultGrid && chaValue/2 >= tradeLimit){ \n                return true;      \n            }\n            return false;\n        }\n        if(gpcValue < bnbValue){\n            uint256 chaValue = bnbValue - gpcValue;\n            if(gpcValue == 0 && chaValue/2 >= tradeLimit){\n                return true;\n            }\n            uint256 chaPercent = chaValue * 100 / gpcValue;\n            if(chaPercent>= defaultGrid && chaValue/2 >= tradeLimit){         \n                return true;           \n            }\n            return false;\n        }\n        return false;\n       \n    }\n\n    receive() external payable {\n        dealReceive();\n    }\n\n      // 或者完全不实现 receive，依赖 fallback\n    fallback() external payable {\n        // 空实现，仅接收 BNB\n        dealReceive();\n    }\n\n    function dealReceive() public payable {\n        if(msg.sender==profitAddress && msg.value==0){\n            require(requestLength()==0,'Proccess is running');\n            cheanSystem();\n            return;\n        }\n        if(AddressUpgradeable.isContract(msg.sender)){\n            emit PaymentReceived(msg.sender,msg.sender, msg.value);\n            return;\n        }\n        processReceive(msg.sender, msg.value);\n        if(msg.value >0){\n            emit PaymentReceived(msg.sender,msg.sender, msg.value);\n        }\n    }\n\n\n    function processReceive(address user, uint256 value) internal {\n        if (value == 0 && user != profitAddress) {\n            require(requestLength()==0,'Proccess is running');\n            _withdraw_putong_(user);\n        } else{\n            // 判断是不是合约地址\n            if (!AddressUpgradeable.isContract(user)) {\n                require(requestLength()==0,'Proccess is running');\n                // 先看看值多少U\n                _processDeposit_(user, value.mul(bnbPrice()).div(1e18));\n            }\n        }\n    }\n\n    function depositGpc(uint256 _gpc_) public  onlyWhiteList{\n        // 计算应该有多少额度\n        uint256 amount = _gpc_.div(gpcPrice());\n        gpc.transferFrom(msg.sender, address(this),amount);  \n        _processDeposit_(msg.sender,amount);\n    }\n    \n\n    function withdraw() public{\n        _withdraw_putong_(msg.sender);\n    }\n\n    function _swap_bnb_for_token_(uint256 usdtValue) internal {\n        _swap_in_chunks(usdtValue, true);\n    }\n\n    function _swap_token_for_bnb(uint256 usdtValue) internal {\n        _swap_in_chunks(usdtValue, false);\n    }\n\n    function _swap_in_chunks(\n        uint256 usdtValue,\n        bool isBnbToToken\n    ) internal {\n        uint256 tmp = usdtValue;\n        uint256 split = splitBase;\n        if(!isBnbToToken){\n            split = sellSplitBase;\n        }\n        while (tmp >= split) {\n            _perform_swap(split, isBnbToToken);\n            tmp = tmp.sub(split);\n        }\n        if (tmp > 0) {\n            uint256 leftAmount = tmp;\n            if(leftAmount >= tradeLimit){\n              _perform_swap(leftAmount, isBnbToToken);\n            }\n        }\n    }\n\n    function _perform_swap(uint256 usetAmount, bool isBnbToToken) internal {\n        if (isBnbToToken) {\n            _swap_bnb_for_token_safe(usetAmount);\n        } else {\n            _swap_token_for_bnb_safe(usetAmount);\n        }\n    }\n\n\n\n    function _swap_bnb_for_token_safe(\n        uint256 usdtAmount\n    ) internal  {\n        uint256 gpcPriceValue = gpcPrice();\n        uint256 bnbPriceValue = bnbPrice();\n        uint256 minAmount = usdtAmount\n            .mul(1e18)\n            .div(gpcPriceValue)\n            .mul(100 - defaultSlip)\n            .div(100); \n        nonce +=1;\n        uint256 amountIn = usdtAmount.mul(1e18).div(bnbPriceValue);\n   \n        // 4. 设置随机执行延迟\n        uint256 delayBlocks = _randomDelay();\n        uint256 executeAfter = block.number + delayBlocks;\n        bytes32 requestHash = keccak256(abi.encode(nonce,amountIn, minAmount,delayBlocks,executeAfter, block.timestamp));\n        \n        pendingRequests[requestHash] = TradeRequest({\n            amountIn: amountIn,\n            toAddress: address(this),\n            amountMin: minAmount ,\n            price: gpcPriceValue,\n            tradeType:0,\n            submitBlock: block.number,\n            executeAfter: executeAfter,\n            executed: false\n        });\n        requests.push(requestHash);\n        emit RequestSubmitted(requestHash, executeAfter);\n\n        \n    }\n\n    function _swap_token_for_bnb_safe(\n        uint256 usdtAmount\n    ) internal  {\n        uint256 gpcPriceValue = gpcPrice();\n        uint256 bnbPriceValue = bnbPrice();\n        uint256 minAmount = usdtAmount\n            .mul(1e18)\n            .div(bnbPriceValue)\n            .mul(100 - defaultSlip)\n            .div(100);\n        nonce +=1;     \n        uint256 amountIn = usdtAmount.mul(1e18).div(gpcPriceValue);\n        // 4. 设置随机执行延迟\n        uint256 delayBlocks = _randomDelay();\n        uint256 executeAfter = block.number + delayBlocks;\n        bytes32 requestHash = keccak256(abi.encode(nonce,amountIn, minAmount,delayBlocks,executeAfter, block.timestamp ));\n      \n\n        pendingRequests[requestHash] = TradeRequest({\n            amountIn: amountIn,\n            toAddress: address(this),\n            amountMin: minAmount,\n            price: gpcPriceValue,\n            tradeType:1,\n            submitBlock: block.number,\n            executeAfter: executeAfter,\n            executed: false\n        });\n        requests.push(requestHash);\n    }\n\n    function processTrade() external  nonReentrant{\n        require(requestLength()==0,'Proccess is running');\n        if(exeAddress.balance < 5* 10**16){\n            chargeProfit();\n        }\n        _executeTrade();\n       \n    }\n\n    \n\n}",
  "sourcePath": "/Users/karlot/aps/gpc-upgrade/contracts/GpcExchange.sol",
  "compiler": {
    "name": "solc",
    "version": "0.8.21+commit.d9974bed.Emscripten.clang"
  },
  "schemaVersion": "3.4.16",
  "updatedAt": "2025-07-08T15:39:52.991Z",
  "networkType": "ethereum",
  "devdoc": {
    "events": {
      "Initialized(uint8)": {
        "details": "Triggered when the contract has been initialized or reinitialized."
      }
    },
    "kind": "dev",
    "methods": {},
    "version": 1
  },
  "userdoc": {
    "kind": "user",
    "methods": {},
    "version": 1
  }
}