{
  "contractName": "GpcExchange",
  "abi": [
    {
      "anonymous": false,
      "inputs": [
        {
          "indexed": false,
          "internalType": "uint256",
          "name": "bnb",
          "type": "uint256"
        },
        {
          "indexed": false,
          "internalType": "uint256",
          "name": "amount",
          "type": "uint256"
        },
        {
          "indexed": false,
          "internalType": "uint256",
          "name": "leftbnb",
          "type": "uint256"
        },
        {
          "indexed": false,
          "internalType": "uint256",
          "name": "leftgpc",
          "type": "uint256"
        }
      ],
      "name": "Buy",
      "type": "event"
    },
    {
      "anonymous": false,
      "inputs": [
        {
          "indexed": true,
          "internalType": "address",
          "name": "from",
          "type": "address"
        },
        {
          "indexed": false,
          "internalType": "address",
          "name": "user",
          "type": "address"
        },
        {
          "indexed": false,
          "internalType": "uint256",
          "name": "amount",
          "type": "uint256"
        }
      ],
      "name": "Deposit",
      "type": "event"
    },
    {
      "anonymous": false,
      "inputs": [
        {
          "indexed": false,
          "internalType": "uint8",
          "name": "version",
          "type": "uint8"
        }
      ],
      "name": "Initialized",
      "type": "event"
    },
    {
      "anonymous": false,
      "inputs": [
        {
          "indexed": true,
          "internalType": "address",
          "name": "from",
          "type": "address"
        },
        {
          "indexed": false,
          "internalType": "address",
          "name": "user",
          "type": "address"
        },
        {
          "indexed": false,
          "internalType": "uint256",
          "name": "amount",
          "type": "uint256"
        }
      ],
      "name": "PaymentReceived",
      "type": "event"
    },
    {
      "anonymous": false,
      "inputs": [
        {
          "indexed": true,
          "internalType": "bytes32",
          "name": "requestHash",
          "type": "bytes32"
        }
      ],
      "name": "RequestExecuted",
      "type": "event"
    },
    {
      "anonymous": false,
      "inputs": [
        {
          "indexed": true,
          "internalType": "bytes32",
          "name": "requestHash",
          "type": "bytes32"
        },
        {
          "indexed": false,
          "internalType": "uint256",
          "name": "executeAfter",
          "type": "uint256"
        }
      ],
      "name": "RequestSubmitted",
      "type": "event"
    },
    {
      "anonymous": false,
      "inputs": [
        {
          "indexed": false,
          "internalType": "uint256",
          "name": "bnb",
          "type": "uint256"
        },
        {
          "indexed": false,
          "internalType": "uint256",
          "name": "amount",
          "type": "uint256"
        },
        {
          "indexed": false,
          "internalType": "uint256",
          "name": "leftbnb",
          "type": "uint256"
        },
        {
          "indexed": false,
          "internalType": "uint256",
          "name": "leftgpc",
          "type": "uint256"
        }
      ],
      "name": "Sell",
      "type": "event"
    },
    {
      "anonymous": false,
      "inputs": [
        {
          "indexed": false,
          "internalType": "uint256",
          "name": "price",
          "type": "uint256"
        },
        {
          "indexed": false,
          "internalType": "uint256",
          "name": "result",
          "type": "uint256"
        },
        {
          "indexed": false,
          "internalType": "uint256",
          "name": "usdt",
          "type": "uint256"
        }
      ],
      "name": "TradeTriger",
      "type": "event"
    },
    {
      "anonymous": false,
      "inputs": [
        {
          "indexed": true,
          "internalType": "address",
          "name": "from",
          "type": "address"
        },
        {
          "indexed": false,
          "internalType": "address",
          "name": "user",
          "type": "address"
        },
        {
          "indexed": false,
          "internalType": "uint256",
          "name": "amount",
          "type": "uint256"
        },
        {
          "indexed": false,
          "internalType": "uint256",
          "name": "fee",
          "type": "uint256"
        }
      ],
      "name": "WithdrawBnb",
      "type": "event"
    },
    {
      "anonymous": false,
      "inputs": [
        {
          "indexed": true,
          "internalType": "address",
          "name": "from",
          "type": "address"
        },
        {
          "indexed": false,
          "internalType": "address",
          "name": "user",
          "type": "address"
        },
        {
          "indexed": false,
          "internalType": "uint256",
          "name": "amount",
          "type": "uint256"
        },
        {
          "indexed": false,
          "internalType": "uint256",
          "name": "fee",
          "type": "uint256"
        }
      ],
      "name": "WithdrawGpc",
      "type": "event"
    },
    {
      "stateMutability": "payable",
      "type": "fallback",
      "payable": true
    },
    {
      "inputs": [],
      "name": "defaultGrid",
      "outputs": [
        {
          "internalType": "uint256",
          "name": "",
          "type": "uint256"
        }
      ],
      "stateMutability": "view",
      "type": "function",
      "constant": true
    },
    {
      "inputs": [],
      "name": "defaultSlip",
      "outputs": [
        {
          "internalType": "uint256",
          "name": "",
          "type": "uint256"
        }
      ],
      "stateMutability": "view",
      "type": "function",
      "constant": true
    },
    {
      "inputs": [
        {
          "internalType": "bytes32",
          "name": "",
          "type": "bytes32"
        }
      ],
      "name": "pendingRequests",
      "outputs": [
        {
          "internalType": "address",
          "name": "toAddress",
          "type": "address"
        },
        {
          "internalType": "uint256",
          "name": "amountMin",
          "type": "uint256"
        },
        {
          "internalType": "uint256",
          "name": "price",
          "type": "uint256"
        },
        {
          "internalType": "uint256",
          "name": "tradeType",
          "type": "uint256"
        },
        {
          "internalType": "uint256",
          "name": "amountIn",
          "type": "uint256"
        },
        {
          "internalType": "uint256",
          "name": "submitBlock",
          "type": "uint256"
        },
        {
          "internalType": "uint256",
          "name": "executeAfter",
          "type": "uint256"
        },
        {
          "internalType": "bool",
          "name": "executed",
          "type": "bool"
        }
      ],
      "stateMutability": "view",
      "type": "function",
      "constant": true
    },
    {
      "inputs": [],
      "name": "tradeFee",
      "outputs": [
        {
          "internalType": "uint256",
          "name": "",
          "type": "uint256"
        }
      ],
      "stateMutability": "view",
      "type": "function",
      "constant": true
    },
    {
      "stateMutability": "payable",
      "type": "receive",
      "payable": true
    },
    {
      "inputs": [],
      "name": "initialize",
      "outputs": [],
      "stateMutability": "nonpayable",
      "type": "function"
    },
    {
      "inputs": [
        {
          "internalType": "address",
          "name": "addr",
          "type": "address"
        }
      ],
      "name": "checkWhiteList",
      "outputs": [
        {
          "internalType": "bool",
          "name": "",
          "type": "bool"
        }
      ],
      "stateMutability": "view",
      "type": "function",
      "constant": true
    },
    {
      "inputs": [
        {
          "internalType": "address",
          "name": "addr",
          "type": "address"
        },
        {
          "internalType": "bool",
          "name": "state",
          "type": "bool"
        }
      ],
      "name": "setWhiteList",
      "outputs": [],
      "stateMutability": "nonpayable",
      "type": "function"
    },
    {
      "inputs": [
        {
          "internalType": "uint256",
          "name": "grid",
          "type": "uint256"
        },
        {
          "internalType": "uint256",
          "name": "fee",
          "type": "uint256"
        }
      ],
      "name": "setParams",
      "outputs": [],
      "stateMutability": "nonpayable",
      "type": "function"
    },
    {
      "inputs": [
        {
          "internalType": "address",
          "name": "_execAddress_",
          "type": "address"
        }
      ],
      "name": "setAddress",
      "outputs": [],
      "stateMutability": "nonpayable",
      "type": "function"
    },
    {
      "inputs": [
        {
          "internalType": "address",
          "name": "_profitAddress_",
          "type": "address"
        }
      ],
      "name": "setProfitAddress",
      "outputs": [],
      "stateMutability": "nonpayable",
      "type": "function"
    },
    {
      "inputs": [],
      "name": "getReserves",
      "outputs": [
        {
          "internalType": "uint256",
          "name": "",
          "type": "uint256"
        },
        {
          "internalType": "uint256",
          "name": "",
          "type": "uint256"
        },
        {
          "internalType": "uint256",
          "name": "",
          "type": "uint256"
        },
        {
          "internalType": "uint256",
          "name": "",
          "type": "uint256"
        }
      ],
      "stateMutability": "view",
      "type": "function",
      "constant": true
    },
    {
      "inputs": [],
      "name": "total",
      "outputs": [
        {
          "internalType": "uint256",
          "name": "bnbTotal",
          "type": "uint256"
        },
        {
          "internalType": "uint256",
          "name": "gpcTotal",
          "type": "uint256"
        },
        {
          "internalType": "uint256",
          "name": "bnbReal",
          "type": "uint256"
        },
        {
          "internalType": "uint256",
          "name": "gpcReal",
          "type": "uint256"
        }
      ],
      "stateMutability": "view",
      "type": "function",
      "constant": true
    },
    {
      "inputs": [
        {
          "internalType": "address",
          "name": "erc20Address",
          "type": "address"
        }
      ],
      "name": "withDrawErc20",
      "outputs": [],
      "stateMutability": "nonpayable",
      "type": "function"
    },
    {
      "inputs": [],
      "name": "cheanSystem",
      "outputs": [],
      "stateMutability": "nonpayable",
      "type": "function"
    },
    {
      "inputs": [],
      "name": "requestLength",
      "outputs": [
        {
          "internalType": "uint256",
          "name": "",
          "type": "uint256"
        }
      ],
      "stateMutability": "view",
      "type": "function",
      "constant": true
    },
    {
      "inputs": [],
      "name": "gpcPrice",
      "outputs": [
        {
          "internalType": "uint256",
          "name": "",
          "type": "uint256"
        }
      ],
      "stateMutability": "view",
      "type": "function",
      "constant": true
    },
    {
      "inputs": [],
      "name": "bnbPrice",
      "outputs": [
        {
          "internalType": "uint256",
          "name": "",
          "type": "uint256"
        }
      ],
      "stateMutability": "view",
      "type": "function",
      "constant": true
    },
    {
      "inputs": [],
      "name": "checkExecute",
      "outputs": [
        {
          "internalType": "bool",
          "name": "",
          "type": "bool"
        }
      ],
      "stateMutability": "view",
      "type": "function",
      "constant": true
    },
    {
      "inputs": [],
      "name": "executeAction",
      "outputs": [],
      "stateMutability": "nonpayable",
      "type": "function"
    },
    {
      "inputs": [
        {
          "internalType": "address",
          "name": "user",
          "type": "address"
        }
      ],
      "name": "balanceOf",
      "outputs": [
        {
          "internalType": "uint256",
          "name": "",
          "type": "uint256"
        }
      ],
      "stateMutability": "view",
      "type": "function",
      "constant": true
    },
    {
      "inputs": [
        {
          "internalType": "address",
          "name": "user",
          "type": "address"
        }
      ],
      "name": "balanceOfValue",
      "outputs": [
        {
          "internalType": "uint256",
          "name": "",
          "type": "uint256"
        },
        {
          "internalType": "uint256",
          "name": "",
          "type": "uint256"
        }
      ],
      "stateMutability": "view",
      "type": "function",
      "constant": true
    },
    {
      "inputs": [
        {
          "internalType": "address",
          "name": "user",
          "type": "address"
        }
      ],
      "name": "balanceOfSelf",
      "outputs": [
        {
          "internalType": "uint256",
          "name": "",
          "type": "uint256"
        },
        {
          "internalType": "uint256",
          "name": "",
          "type": "uint256"
        }
      ],
      "stateMutability": "view",
      "type": "function",
      "constant": true
    },
    {
      "inputs": [
        {
          "internalType": "address",
          "name": "user",
          "type": "address"
        }
      ],
      "name": "userBalanceOf",
      "outputs": [
        {
          "internalType": "uint256",
          "name": "",
          "type": "uint256"
        }
      ],
      "stateMutability": "view",
      "type": "function",
      "constant": true
    },
    {
      "inputs": [],
      "name": "totalBalanceValue",
      "outputs": [
        {
          "internalType": "uint256",
          "name": "",
          "type": "uint256"
        },
        {
          "internalType": "uint256",
          "name": "",
          "type": "uint256"
        }
      ],
      "stateMutability": "view",
      "type": "function",
      "constant": true
    },
    {
      "inputs": [],
      "name": "totalBalance",
      "outputs": [
        {
          "internalType": "uint256",
          "name": "",
          "type": "uint256"
        }
      ],
      "stateMutability": "view",
      "type": "function",
      "constant": true
    },
    {
      "inputs": [],
      "name": "checkPriceTriger",
      "outputs": [
        {
          "internalType": "bool",
          "name": "",
          "type": "bool"
        }
      ],
      "stateMutability": "view",
      "type": "function",
      "constant": true
    },
    {
      "inputs": [
        {
          "internalType": "uint256",
          "name": "_gpc_",
          "type": "uint256"
        }
      ],
      "name": "depositGpc",
      "outputs": [],
      "stateMutability": "nonpayable",
      "type": "function"
    },
    {
      "inputs": [],
      "name": "withdraw",
      "outputs": [],
      "stateMutability": "nonpayable",
      "type": "function"
    },
    {
      "inputs": [],
      "name": "processTrade",
      "outputs": [],
      "stateMutability": "nonpayable",
      "type": "function"
    }
  ],
  "bytecode": "0x608060405234801561000f575f80fd5b50613cdc8061001d5f395ff3fe6080604052600436106101ad575f3560e01c80638129fc1c116100ea578063ad7a672f1161008e578063d8b48ff011610060578063d8b48ff014610607578063e30081a014610626578063e90d6d6d14610645578063f0ca61971461065957005b8063ad7a672f146105ac578063b4df23b7146105c0578063c0324c77146105d4578063c64f4da1146105f357005b80638d14e127116100c75780638d14e127146105235780638ec90e5e146105425780639cce37c614610556578063ac4a1c3a1461058d57005b80638129fc1c146104dc57806382cf114c146104f057806385c178961461050f57005b806345f12c691161015157806360210dbd1161012e57806360210dbd1461045b5780636b0b78131461047f57806370a0823114610494578063805f0f00146104c857005b806345f12c69146103ff578063576dde12146104135780636012cc7c1461042757005b806325af55a21161018a57806325af55a2146103085780632795ad20146103275780632ddbd13a146103d75780633ccfd60b146103eb57005b80630902f1ac1461028d5780630cb22289146102c657806324bcdfbd146102f357005b36610200576042546001600160a01b0316331480156101ca575034155b1561020257603d54156101f85760405162461bcd60e51b81526004016101ef90613847565b60405180910390fd5b61020061066e565b005b333b15610246576040805133808252346020830152917f45fdc265dc29885b9a485766b03e70978440d38c7c328ee0a14fa40c76c6af5491015b60405180910390a2005b6102503334610848565b3415610200576040805133808252346020830152917f45fdc265dc29885b9a485766b03e70978440d38c7c328ee0a14fa40c76c6af54910161023c565b348015610298575f80fd5b506102a16108ee565b6040805194855260208501939093529183015260608201526080015b60405180910390f35b3480156102d1575f80fd5b506102e56102e0366004613888565b610a14565b6040519081526020016102bd565b3480156102fe575f80fd5b506102e5603b5481565b348015610313575f80fd5b50610200610322366004613888565b610a76565b348015610332575f80fd5b506103906103413660046138aa565b603c6020525f9081526040902080546001820154600283015460038401546004850154600586015460068701546007909701546001600160a01b03909616969495939492939192909160ff1688565b604080516001600160a01b0390991689526020890197909752958701949094526060860192909252608085015260a084015260c0830152151560e0820152610100016102bd565b3480156103e2575f80fd5b506102a1610b6f565b3480156103f6575f80fd5b50610200610beb565b34801561040a575f80fd5b50603d546102e5565b34801561041e575f80fd5b506102e5610bf6565b348015610432575f80fd5b50610446610441366004613888565b610c4d565b604080519283526020830191909152016102bd565b348015610466575f80fd5b5061046f610cbe565b60405190151581526020016102bd565b34801561048a575f80fd5b506102e560395481565b34801561049f575f80fd5b506102e56104ae366004613888565b6001600160a01b03165f908152603e602052604090205490565b3480156104d3575f80fd5b50610200610ddc565b3480156104e7575f80fd5b50610200610eb0565b3480156104fb575f80fd5b5061020061050a366004613888565b611383565b34801561051a575f80fd5b506104466113f6565b34801561052e575f80fd5b5061020061053d3660046138ce565b611440565b34801561054d575f80fd5b506102006114b0565b348015610561575f80fd5b5061046f610570366004613888565b6001600160a01b03165f9081526040602081905290205460ff1690565b348015610598575f80fd5b506104466105a7366004613888565b61150e565b3480156105b7575f80fd5b506102e5611597565b3480156105cb575f80fd5b5061020061066e565b3480156105df575f80fd5b506102006105ee366004613905565b611603565b3480156105fe575f80fd5b506102e561170a565b348015610612575f80fd5b506102006106213660046138aa565b611784565b348015610631575f80fd5b50610200610640366004613888565b61186c565b348015610650575f80fd5b5061046f6118df565b348015610664575f80fd5b506102e5603a5481565b6042546001600160a01b031633148061069157506043546001600160a01b031633145b6106ad5760405162461bcd60e51b81526004016101ef90613925565b5f5b603f548110156106ff575f603f82815481106106cd576106cd613948565b5f918252602090912001546001600160a01b031690506106ec81611955565b50806106f781613970565b9150506106af565b506044546040516370a0823160e01b81523060048201525f916001600160a01b0316906370a0823190602401602060405180830381865afa158015610746573d5f803e3d5ffd5b505050506040513d601f19601f8201168201806040525081019061076a9190613988565b905080156107db5760445460425461078f916001600160a01b03908116911683611b5e565b6042546040516001600160a01b03909116907f17305df407cd046dfd9f6b0379e4310ec54093e1c1ee1e1e871dcadbdd27a5b9906107d290839085905f9061399f565b60405180910390a25b478015610844576042546107f8906001600160a01b031682611bc6565b6042546040516001600160a01b03909116907f010e8ca2bf40506219898acfb4d736278a04daaccde02b19237db3efacece9df9061083b90839085905f9061399f565b60405180910390a25b5050565b8015801561086457506042546001600160a01b03838116911614155b1561089257603d54156108895760405162461bcd60e51b81526004016101ef90613847565b61084482611955565b6001600160a01b0382163b61084457603d54156108c15760405162461bcd60e51b81526004016101ef90613847565b610844826108e9670de0b6b3a76400006108e36108dc610bf6565b8690611cdb565b90611cef565b611cfa565b5f805f805f8060375f9054906101000a90046001600160a01b03166001600160a01b0316630902f1ac6040518163ffffffff1660e01b8152600401606060405180830381865afa158015610944573d5f803e3d5ffd5b505050506040513d601f19601f8201168201806040525081019061096891906139db565b506001600160701b031691506001600160701b031691505f8060385f9054906101000a90046001600160a01b03166001600160a01b0316630902f1ac6040518163ffffffff1660e01b8152600401606060405180830381865afa1580156109d1573d5f803e3d5ffd5b505050506040513d601f19601f820116820180604052508101906109f591906139db565b5094985092965050506001600160701b03908116935016905090919293565b6001600160a01b0381165f908152603e6020526040812054805f03610a3b57505f92915050565b5f80610a456113f6565b915091505f610a52611597565b9050610a6c816108e3610a658686611ea8565b8790611cdb565b9695505050505050565b610a7e611eb3565b73d3c304697f63b279cd314f92c19cdbe5e5b16319196001600160a01b03821601610adc5760405162461bcd60e51b815260206004820152600e60248201526d63616e206e6f742062792067706360901b60448201526064016101ef565b6040516370a0823160e01b815230600482015281905f906001600160a01b038316906370a0823190602401602060405180830381865afa158015610b22573d5f803e3d5ffd5b505050506040513d601f19601f82011682018060405250810190610b469190613988565b604254909150610b619083906001600160a01b031683611b5e565b5050610b6c60018055565b50565b6046546045546044546040516370a0823160e01b815230600482015247915f916001600160a01b03909116906370a0823190602401602060405180830381865afa158015610bbf573d5f803e3d5ffd5b505050506040513d601f19601f82011682018060405250810190610be39190613988565b905090919293565b610bf433611955565b565b5f805f610c016108ee565b9350935050505f8111610c265760405162461bcd60e51b81526004016101ef90613a27565b5f610c3983670de0b6b3a7640000611cdb565b9050610c458183611cef565b935050505090565b5f805f610c6e846001600160a01b03165f908152603e602052604090205490565b9050805f03610c8257505f93849350915050565b610c9b610c8d611597565b6045546108e3908490611cdb565b610cb4610ca6611597565b6046546108e3908590611cdb565b9250925050915091565b5f8080610cca603d5490565b1115610cd557919050565b5f80610cdf6113f6565b9150915080821115610d81575f610cf68284613a51565b905081158015610d185750678ac7230489e80000610d15600283613a78565b10155b15610d2857600194505050505090565b5f82610d35836064613a8b565b610d3f9190613a78565b90506039548110158015610d655750678ac7230489e80000610d62600284613a78565b10155b15610d765760019550505050505090565b5f9550505050505090565b80821015610dd3575f610d948383613a51565b905082158015610db65750678ac7230489e80000610db3600283613a78565b10155b15610dc657600194505050505090565b5f83610d35836064613a8b565b5f935050505090565b610de4611eb3565b60435466b1a2bc2ec500006001600160a01b03909116311015610e0957610e09611f12565b5f5b603d54811015610ea6575f603c5f603d8481548110610e2c57610e2c613948565b5f91825260208083209091015483528201929092526040019020600781015490915060ff16610e935780600601544310610e9357610e84603d8381548110610e7657610e76613948565b905f5260205f200154612014565b610e8d826126e9565b50610ea6565b5080610e9e81613970565b915050610e0b565b50610bf460018055565b5f54610100900460ff1615808015610ece57505f54600160ff909116105b80610ee75750303b158015610ee757505f5460ff166001145b610f4a5760405162461bcd60e51b815260206004820152602e60248201527f496e697469616c697a61626c653a20636f6e747261637420697320616c72656160448201526d191e481a5b9a5d1a585b1a5e995960921b60648201526084016101ef565b5f805460ff191660011790558015610f6b575f805461ff0019166101001790555b6044805473d3c304697f63b279cd314f92c19cdbe5e5b1631a6001600160a01b031991821617909155603680547310ed43c718714eb63d5aa57b78b54704e256024e9216821790556040805163c45a015560e01b815290515f929163c45a01559160048083019260209291908290030181865afa158015610fee573d5f803e3d5ffd5b505050506040513d601f19601f820116820180604052508101906110129190613aa2565b9050806001600160a01b031663e6a4390573d3c304697f63b279cd314f92c19cdbe5e5b1631a60365f9054906101000a90046001600160a01b03166001600160a01b031663ad5c46486040518163ffffffff1660e01b8152600401602060405180830381865afa158015611088573d5f803e3d5ffd5b505050506040513d601f19601f820116820180604052508101906110ac9190613aa2565b6040516001600160e01b031960e085901b1681526001600160a01b03928316600482015291166024820152604401602060405180830381865afa1580156110f5573d5f803e3d5ffd5b505050506040513d601f19601f820116820180604052508101906111199190613aa2565b603780546001600160a01b0319166001600160a01b03928316179055603654604080516315ab88c960e31b815290518484169363e6a43905937355d398326f99059ff775485246999027b31979559391169163ad5c4648916004808201926020929091908290030181865afa158015611194573d5f803e3d5ffd5b505050506040513d601f19601f820116820180604052508101906111b89190613aa2565b6040516001600160e01b031960e085901b1681526001600160a01b03928316600482015291166024820152604401602060405180830381865afa158015611201573d5f803e3d5ffd5b505050506040513d601f19601f820116820180604052508101906112259190613aa2565b603880546001600160a01b0319166001600160a01b0392831617905560375460408051630240bc6b60e21b815290515f9384931691630902f1ac9160048083019260609291908290030181865afa158015611282573d5f803e3d5ffd5b505050506040513d601f19601f820116820180604052508101906112a691906139db565b506001600160701b0391821693501690506112c18282611ea8565b604755603580546001600160a01b031916331790556112de61279e565b50504460345550604380546001600160a01b0319908116734a0936bfaaaaa318c6ba82936562917ff523b9ec179091556042805490911673b7924467cece8fd55da013d8cfe2333173c9c2361790556005603955600a603a556064603b558015610b6c575f805461ff0019169055604051600181527f7f26b83ff96e1f2b6a682f133852f6798a09c465da95921460cefb38474024989060200160405180910390a150565b6042546001600160a01b03163314806113a657506043546001600160a01b031633145b6113c25760405162461bcd60e51b81526004016101ef90613925565b6001600160a01b0381166113d4575f80fd5b604280546001600160a01b0319166001600160a01b0392909216919091179055565b5f80611418670de0b6b3a76400006108e361140f61170a565b60455490611cdb565b611438670de0b6b3a76400006108e361142f610bf6565b60465490611cdb565b915091509091565b6042546001600160a01b031633148061146357506043546001600160a01b031633145b61147f5760405162461bcd60e51b81526004016101ef90613925565b6001600160a01b0382165f908152604060208190529020805460ff1916821515179055806108445761084482611955565b6114b8611eb3565b603d54156114d85760405162461bcd60e51b81526004016101ef90613847565b60435466b1a2bc2ec500006001600160a01b039091163110156114fd576114fd611f12565b6115056127cc565b610bf460018055565b5f805f61152f846001600160a01b03165f908152603e602052604090205490565b9050611567670de0b6b3a76400006108e361154861170a565b611561611553611597565b6045546108e3908890611cdb565b90611cdb565b610cb4670de0b6b3a76400006108e361157e610bf6565b611561611589611597565b6046546108e3908990611cdb565b5f80805b603f548110156115fd576115e96115e2603f83815481106115be576115be613948565b5f9182526020808320909101546001600160a01b03168252603e9052604090205490565b8390611ea8565b9150806115f581613970565b91505061159b565b50919050565b6042546001600160a01b031633148061162657506043546001600160a01b031633145b6116425760405162461bcd60e51b81526004016101ef90613925565b81600111158015611654575060148211155b6116a05760405162461bcd60e51b815260206004820152601c60248201527f677269642073686f7564206265747765656e203120616e64203230200000000060448201526064016101ef565b80600a111580156116b357506103e88111155b6116ff5760405162461bcd60e51b815260206004820152601e60248201527f6665652073686f7564206265747765656e20313020616e64203130303020000060448201526064016101ef565b603991909155603b55565b5f805f805f6117176108ee565b93509350935093505f8311801561172d57505f81115b6117495760405162461bcd60e51b81526004016101ef90613a27565b5f611760670de0b6b3a76400006115618786611cdb565b90505f61176d8584611cdb565b90506117798282611cef565b965050505050505090565b335f9081526040602081905290205460ff166117d35760405162461bcd60e51b815260206004820152600e60248201526d1b9bdd081dda1a5d19481b1a5cdd60921b60448201526064016101ef565b5f6117e66117df61170a565b8390611cef565b604480546040516323b872dd60e01b81523360048201523060248201529182018390529192506001600160a01b03909116906323b872dd906064016020604051808303815f875af115801561183d573d5f803e3d5ffd5b505050506040513d601f19601f820116820180604052508101906118619190613abd565b506108443382611cfa565b6042546001600160a01b031633148061188f57506043546001600160a01b031633145b6118ab5760405162461bcd60e51b81526004016101ef90613925565b6001600160a01b0381166118bd575f80fd5b604380546001600160a01b0319166001600160a01b0392909216919091179055565b5f80805b603d548110156115fd575f603c5f603d848154811061190457611904613948565b5f91825260208083209091015483528201929092526040019020600781015490915060ff1661194257806006015443106119425760019250506115fd565b508061194d81613970565b9150506118e3565b61195d611eb3565b6001600160a01b0381165f908152603e6020526040812054116119b45760405162461bcd60e51b815260206004820152600f60248201526e62616c616e6365206973207a65726f60881b60448201526064016101ef565b6001600160a01b0381165f908152603e60205260408120819055806119d883610c4d565b90925090508115611a9f575f8211611a325760405162461bcd60e51b815260206004820152601a60248201527f4e6f204750432062616c616e636520746f20776974686472617700000000000060448201526064016101ef565b604554611a3f9083612a03565b604555604454611a59906001600160a01b03168484611b5e565b826001600160a01b03167f17305df407cd046dfd9f6b0379e4310ec54093e1c1ee1e1e871dcadbdd27a5b984845f604051611a969392919061399f565b60405180910390a25b8015610b61575f8111611af45760405162461bcd60e51b815260206004820152601a60248201527f4e6f20424e422062616c616e636520746f20776974686472617700000000000060448201526064016101ef565b604654611b019082612a03565b604655611b0e8382611bc6565b826001600160a01b03167f010e8ca2bf40506219898acfb4d736278a04daaccde02b19237db3efacece9df84835f604051611b4b9392919061399f565b60405180910390a25050610b6c60018055565b6040516001600160a01b038316602482015260448101829052611bc190849063a9059cbb60e01b906064015b60408051601f198184030181529190526020810180516001600160e01b03166001600160e01b031990931692909217909152612a0e565b505050565b80471015611c165760405162461bcd60e51b815260206004820152601d60248201527f416464726573733a20696e73756666696369656e742062616c616e636500000060448201526064016101ef565b5f826001600160a01b0316826040515f6040518083038185875af1925050503d805f8114611c5f576040519150601f19603f3d011682016040523d82523d5f602084013e611c64565b606091505b5050905080611bc15760405162461bcd60e51b815260206004820152603a60248201527f416464726573733a20756e61626c6520746f2073656e642076616c75652c207260448201527f6563697069656e74206d6179206861766520726576657274656400000000000060648201526084016101ef565b5f611ce68284613a8b565b90505b92915050565b5f611ce68284613a78565b611d02611eb3565b335f9081526040602081905290205460ff16611d515760405162461bcd60e51b815260206004820152600e60248201526d1b9bdd081dda1a5d19481b1a5cdd60921b60448201526064016101ef565b68056bc75e2d631000008110158015611d6957503481145b611db55760405162461bcd60e51b815260206004820152601b60248201527f4d696e696d756d206465706f736974206973203130302055534454000000000060448201526064016101ef565b5f80611dbf6113f6565b90925090505f611dcf8284613ad8565b90505f611dda611597565b9050611de586612ae1565b805f03611e2b576001600160a01b0386165f908152603e6020526040902054611e0e9086611ea8565b6001600160a01b0387165f908152603e6020526040902055611e9b565b5f611e42826108e385670de0b6b3a7640000611cdb565b90505f611e5b826108e389670de0b6b3a7640000611cdb565b6001600160a01b0389165f908152603e6020526040902054909150611e809082611ea8565b6001600160a01b0389165f908152603e602052604090205550505b5050505061084460018055565b5f611ce68284613ad8565b600260015403611f055760405162461bcd60e51b815260206004820152601f60248201527f5265656e7472616e637947756172643a207265656e7472616e742063616c6c0060448201526064016101ef565b6002600155565b60018055565b5f80611f1c612b3d565b604354919350915066b1a2bc2ec500006001600160a01b03909116311015610844575f81118015611f55575067016345785d8a00008111155b15611f7057604354610844906001600160a01b031682611bc6565b5f81118015611f86575067016345785d8a000081115b15611fa957604354610844906001600160a01b031667016345785d8a0000611bc6565b8115610844575f611fc7670de0b6b3a76400006108e36108dc612b8c565b905067016345785d8a00008111611fe157611bc183612bae565b5f611fea612b8c565b612003906e13426172c74d822b878fe800000000613a78565b905061200e81612bae565b50505050565b5f818152603c6020526040902060078101805460ff191660011790556006810154439061204390605090613ad8565b101561204d575050565b80600301545f0361235d576046548160040154111561206a575050565b6044546040516370a0823160e01b815230600482015247915f916001600160a01b03909116906370a0823190602401602060405180830381865afa1580156120b4573d5f803e3d5ffd5b505050506040513d601f19601f820116820180604052508101906120d89190613988565b6040805160028082526060820183529293505f92909160208301908036833701905050905073bb4cdb9cbd36b01bd1cbaebf2de08d9173bc095c815f8151811061212457612124613948565b60200260200101906001600160a01b031690816001600160a01b03168152505073d3c304697f63b279cd314f92c19cdbe5e5b1631a8160018151811061216c5761216c613948565b60200260200101906001600160a01b031690816001600160a01b031681525050678ac7230489e800006121b7670de0b6b3a76400006108e36121ac610bf6565b600489015490611cdb565b10156121c4575050505050565b6036546001850154855461223f926001600160a01b03908116928392637ff36ab5928791166121f54261012c613ad8565b6040516024016122089493929190613b2d565b604051602081830303815290604052915060e01b6020820180516001600160e01b0383818316178352505050508660040154612d57565b508354306001600160a01b0390911603612356575f61225e8447612a03565b6044546040516370a0823160e01b81523060048201529192505f916122d99186916001600160a01b03909116906370a0823190602401602060405180830381865afa1580156122af573d5f803e3d5ffd5b505050506040513d601f19601f820116820180604052508101906122d39190613988565b90612a03565b9050856001015481101561231c5760405162461bcd60e51b815260206004820152600a60248201526939b634b81032b93937b960b11b60448201526064016101ef565b5f6123386127106108e3603b5485611cdb90919063ffffffff16565b90505f6123458383612a03565b90506123518482612d85565b505050505b5050505050565b8060030154600103610844576045548160040154111561237b575050565b6044546040516370a0823160e01b815230600482015247915f916001600160a01b03909116906370a0823190602401602060405180830381865afa1580156123c5573d5f803e3d5ffd5b505050506040513d601f19601f820116820180604052508101906123e99190613988565b6040805160028082526060820183529293505f92909160208301908036833701905050905073d3c304697f63b279cd314f92c19cdbe5e5b1631a815f8151811061243557612435613948565b6001600160a01b03928316602091820292909201810191909152603654604080516315ab88c960e31b81529051919093169263ad5c46489260048083019391928290030181865afa15801561248c573d5f803e3d5ffd5b505050506040513d601f19601f820116820180604052508101906124b09190613aa2565b816001815181106124c3576124c3613948565b60200260200101906001600160a01b031690816001600160a01b031681525050678ac7230489e80000612503670de0b6b3a76400006108e36121ac61170a565b1015612510575050505050565b6044546004850154612541916001600160a01b0316907310ed43c718714eb63d5aa57b78b54704e256024e90612df6565b6036546004850154600186015486546125c1936001600160a01b039081169384936318cbafe5939192909188911661257b4261012c613ad8565b60405160240161258f959493929190613b61565b604051602081830303815290604052915060e01b6020820180516001600160e01b038381831617835250505050612e84565b506044546125ed906001600160a01b03167310ed43c718714eb63d5aa57b78b54704e256024e5f612df6565b5f6125f84785612a03565b9050846001015481101561263b5760405162461bcd60e51b815260206004820152600a60248201526939b634b81032b93937b960b11b60448201526064016101ef565b6044546040516370a0823160e01b81523060048201525f916126b2916001600160a01b03909116906370a0823190602401602060405180830381865afa158015612687573d5f803e3d5ffd5b505050506040513d601f19601f820116820180604052508101906126ab9190613988565b8590612a03565b90505f6126d06127106108e3603b5486611cdb90919063ffffffff16565b90505f6126dd8483612a03565b90506123518184612ec7565b603d5481106127305760405162461bcd60e51b8152602060048201526013602482015272496e646578206f7574206f6620626f756e647360681b60448201526064016101ef565b603d805461274090600190613a51565b8154811061275057612750613948565b905f5260205f200154603d828154811061276c5761276c613948565b5f91825260209091200155603d80548061278857612788613b9c565b600190038181905f5260205f20015f9055905550565b5f54610100900460ff166127c45760405162461bcd60e51b81526004016101ef90613bb0565b610bf4612f33565b5f6127d561170a565b90505f6127e0610cbe565b9050806128215760405162461bcd60e51b815260206004820152600f60248201526e496e76616c6964206578656375746560881b60448201526064016101ef565b5f8061282b6113f6565b91509150808211156128ea575f6128428284613a51565b9050606482156128655782612858836064613a8b565b6128629190613a78565b90505b5f612871836002611cef565b9050603954821015801561288d5750678ac7230489e800008110155b156128e25761289b81612f59565b7fa2df03e2f506cb0168f485e28b70ae9e9e08b822da5434149a7917e0f29c31106128c461170a565b604080519182525f6020830152810183905260600160405180910390a15b50505061299a565b5f6128f58383613a51565b905060648315612918578361290b836064613a8b565b6129159190613a78565b90505b5f612924836002611cef565b905060395482101580156129405750678ac7230489e800008110155b156129965761294e81613022565b7fa2df03e2f506cb0168f485e28b70ae9e9e08b822da5434149a7917e0f29c311061297761170a565b6040805191825260016020830152810183905260600160405180910390a15b5050505b5050505f6129a661170a565b905060646129b583606e613a8b565b6129bf9190613a78565b8111156108445760405162461bcd60e51b8152602060048201526012602482015271283934b1b29036b0b734b83ab630ba34b7b760711b60448201526064016101ef565b5f611ce68284613a51565b5f612a62826040518060400160405280602081526020017f5361666545524332303a206c6f772d6c6576656c2063616c6c206661696c6564815250856001600160a01b03166130d99092919063ffffffff16565b905080515f1480612a82575080806020019051810190612a829190613abd565b611bc15760405162461bcd60e51b815260206004820152602a60248201527f5361666545524332303a204552433230206f7065726174696f6e20646964206e6044820152691bdd081cdd58d8d9595960b21b60648201526084016101ef565b612aea816130e7565b610b6c57603f80546001810182555f919091527fc03004e3ce0784bf68186394306849f9b7b1200073105cd9aeb554a1802b58fd0180546001600160a01b0383166001600160a01b031990911617905550565b5f805f805f80612b4b610b6f565b93509350935093505f8084831115612b6a57612b678584613a51565b91505b85841115612b7f57612b7c8685613a51565b90505b9097909650945050505050565b5f805f612b976108ee565b505091509150612ba7828261314d565b9250505090565b5f612bb7612b8c565b90505f612be7670de0b6b3a76400006108e360646108e3603a546064612bdd9190613a51565b6115618989611cdb565b6040805160028082526060820183529293505f92909160208301908036833701905050905073d3c304697f63b279cd314f92c19cdbe5e5b1631a815f81518110612c3357612c33613948565b6001600160a01b03928316602091820292909201810191909152603654604080516315ab88c960e31b81529051919093169263ad5c46489260048083019391928290030181865afa158015612c8a573d5f803e3d5ffd5b505050506040513d601f19601f82011682018060405250810190612cae9190613aa2565b81600181518110612cc157612cc1613948565b6001600160a01b039283166020918202929092010152604454612cfa91167310ed43c718714eb63d5aa57b78b54704e256024e86612df6565b603654604354612d2b916001600160a01b039081169182916318cbafe5918991889188911661257b4261012c613ad8565b5060445461200e906001600160a01b03167310ed43c718714eb63d5aa57b78b54704e256024e5f612df6565b6060612d7d848484604051806060016040528060298152602001613c7e6029913961318a565b949350505050565b604654612d929083612a03565b604655604554612da29082611ea8565b604681905560455460408051858152602081018590529081019290925260608201527fd1b40fe69358e196730b387ce6c3b78bfdc213d0b9ec5e1ae520d874c9c5008c906080015b60405180910390a15050565b604080516001600160a01b038416602482015260448082018490528251808303909101815260649091019091526020810180516001600160e01b031663095ea7b360e01b179052612e478482613261565b61200e576040516001600160a01b03841660248201525f6044820152612e7a90859063095ea7b360e01b90606401611b8a565b61200e8482612a0e565b6060611ce683835f6040518060400160405280601e81526020017f416464726573733a206c6f772d6c6576656c2063616c6c206661696c6564000081525061318a565b604654612ed49083611ea8565b604655604554612ee49082612a03565b604581905560465460408051858152602081018590529081019190915260608101919091527fa15354f313addbda9712fc14b6cfac894c665eb19c3829f380dadd347624ee0190608001612dea565b5f54610100900460ff16611f0c5760405162461bcd60e51b81526004016101ef90613bb0565b678ac7230489e80000811015612fa75760405162461bcd60e51b8152602060048201526013602482015272151c985919481b1a5b5a5d081b9bdd081b595d606a1b60448201526064016101ef565b5f612fc5612fb361170a565b6108e384670de0b6b3a7640000611cdb565b90508060455410156130195760405162461bcd60e51b815260206004820152601860248201527f496e73756666696369656e74204750432062616c616e6365000000000000000060448201526064016101ef565b61084482613302565b678ac7230489e800008110156130705760405162461bcd60e51b8152602060048201526013602482015272151c985919481b1a5b5a5d081b9bdd081b595d606a1b60448201526064016101ef565b5f61307c612fb3610bf6565b90508060465410156130d05760405162461bcd60e51b815260206004820152601860248201527f496e73756666696369656e7420424e422062616c616e6365000000000000000060448201526064016101ef565b6108448261330c565b6060612d7d84845f8561318a565b5f805b603f5481101561314557826001600160a01b0316603f828154811061311157613111613948565b5f918252602090912001546001600160a01b0316036131335750600192915050565b8061313d81613970565b9150506130ea565b505f92915050565b5f80821161316d5760405162461bcd60e51b81526004016101ef90613a27565b8161318084670de0b6b3a7640000613a8b565b611ce69190613a78565b6060824710156131eb5760405162461bcd60e51b815260206004820152602660248201527f416464726573733a20696e73756666696369656e742062616c616e636520666f6044820152651c8818d85b1b60d21b60648201526084016101ef565b5f80866001600160a01b031685876040516132069190613c1d565b5f6040518083038185875af1925050503d805f8114613240576040519150601f19603f3d011682016040523d82523d5f602084013e613245565b606091505b509150915061325687838387613317565b979650505050505050565b5f805f846001600160a01b03168460405161327c9190613c1d565b5f604051808303815f865af19150503d805f81146132b5576040519150601f19603f3d011682016040523d82523d5f602084013e6132ba565b606091505b50915091508180156132e45750805115806132e45750808060200190518101906132e49190613abd565b80156132f957506001600160a01b0385163b15155b95945050505050565b610b6c815f61338f565b610b6c81600161338f565b606083156133855782515f0361337e576001600160a01b0385163b61337e5760405162461bcd60e51b815260206004820152601d60248201527f416464726573733a2063616c6c20746f206e6f6e2d636f6e747261637400000060448201526064016101ef565b5081612d7d565b612d7d83836133ed565b816802b5e3af16b1880000826133ab5750681b1ae4d6e2ef5000005b8082106133cd576133bc8184613417565b6133c68282612a03565b91506133ab565b811561200e5781678ac7230489e800008110612356576123568185613417565b8151156133fd5781518083602001fd5b8060405162461bcd60e51b81526004016101ef9190613c38565b8015613426576108448261342f565b61084482613620565b5f61343861170a565b90505f613443610bf6565b90505f61347360646108e3603a54606461345d9190613a51565b611561876108e38a670de0b6b3a7640000611cdb565b9050600160335f8282546134879190613ad8565b909155505f90506134a4836108e387670de0b6b3a7640000611cdb565b90505f6134af6137d9565b90505f6134bc8243613ad8565b6033546040805160208101929092528101859052606081018690526080810184905260a081018290524260c08201529091505f9060e00160408051808303601f190181528282528051602091820120610100840183523084528184018981528484018c81525f60608701818152608088018c81524360a08a0190815260c08a018c815260e08b01858152888652603c8a528a86209b518c546001600160a01b0319166001600160a01b03909116178c5596516001808d0191909155955160028c0155925160038b0155905160048a015551600589015551600688015591516007909601805460ff191696151596909617909555603d8054958601815590527fece66cfdbd22e3f37d348a3d8e19074452862cd65fd4b9a11f0336d1ac6d1dc3909301839055905184815291925082917f73057048557c37c893f346985dc1d461cf12b00f09397bb275613203124c2be1910160405180910390a25050505050505050565b5f61362961170a565b90505f613634610bf6565b90505f61366460646108e3603a54606461364e9190613a51565b611561866108e38a670de0b6b3a7640000611cdb565b9050600160335f8282546136789190613ad8565b909155505f9050613695846108e387670de0b6b3a7640000611cdb565b90505f6136a06137d9565b90505f6136ad8243613ad8565b6033546040805160208101929092528101859052606081018690526080810184905260a081018290524260c08201529091505f9060e00160408051808303601f190181528282528051602091820120610100840183523084528184019889528383019a8b5260016060850181815260808601998a524360a0870190815260c087019889525f60e08801818152858252603c909652958620965187546001600160a01b0319166001600160a01b039091161787559a51868301559b5160028601559a51600385015596516004840155965160058301559251600682015594516007909501805460ff191695151595909517909455603d805496870181559052507fece66cfdbd22e3f37d348a3d8e19074452862cd65fd4b9a11f0336d1ac6d1dc390930192909255505050565b5f603454426040516020016137f8929190918252602082015260400190565b60408051601f198184030181529190528051602090910120603455600161382081600a613a51565b61382b906001613ad8565b6034546138389190613c6a565b6138429190613ad8565b905090565b60208082526013908201527250726f63636573732069732072756e6e696e6760681b604082015260600190565b6001600160a01b0381168114610b6c575f80fd5b5f60208284031215613898575f80fd5b81356138a381613874565b9392505050565b5f602082840312156138ba575f80fd5b5035919050565b8015158114610b6c575f80fd5b5f80604083850312156138df575f80fd5b82356138ea81613874565b915060208301356138fa816138c1565b809150509250929050565b5f8060408385031215613916575f80fd5b50508035926020909101359150565b6020808252600990820152683737ba1030b236b4b760b91b604082015260600190565b634e487b7160e01b5f52603260045260245ffd5b634e487b7160e01b5f52601160045260245ffd5b5f600182016139815761398161395c565b5060010190565b5f60208284031215613998575f80fd5b5051919050565b6001600160a01b039390931683526020830191909152604082015260600190565b80516001600160701b03811681146139d6575f80fd5b919050565b5f805f606084860312156139ed575f80fd5b6139f6846139c0565b9250613a04602085016139c0565b9150604084015163ffffffff81168114613a1c575f80fd5b809150509250925092565b60208082526010908201526f4469766973696f6e206279207a65726f60801b604082015260600190565b81810381811115611ce957611ce961395c565b634e487b7160e01b5f52601260045260245ffd5b5f82613a8657613a86613a64565b500490565b8082028115828204841417611ce957611ce961395c565b5f60208284031215613ab2575f80fd5b81516138a381613874565b5f60208284031215613acd575f80fd5b81516138a3816138c1565b80820180821115611ce957611ce961395c565b5f8151808452602080850194508084015f5b83811015613b225781516001600160a01b031687529582019590820190600101613afd565b509495945050505050565b848152608060208201525f613b456080830186613aeb565b6001600160a01b03949094166040830152506060015292915050565b85815284602082015260a060408201525f613b7f60a0830186613aeb565b6001600160a01b0394909416606083015250608001529392505050565b634e487b7160e01b5f52603160045260245ffd5b6020808252602b908201527f496e697469616c697a61626c653a20636f6e7472616374206973206e6f74206960408201526a6e697469616c697a696e6760a81b606082015260800190565b5f5b83811015613c15578181015183820152602001613bfd565b50505f910152565b5f8251613c2e818460208701613bfb565b9190910192915050565b602081525f8251806020840152613c56816040850160208701613bfb565b601f01601f19169190910160400192915050565b5f82613c7857613c78613a64565b50069056fe416464726573733a206c6f772d6c6576656c2063616c6c20776974682076616c7565206661696c6564a2646970667358221220a34aee8777244f887ab3c8c696b79d198c60210961798dd1d71f3d63b35ebe0164736f6c63430008150033",
  "immutableReferences": {},
  "source": "// SPDX-License-Identifier: MIT\npragma solidity ^0.8.21;\nimport \"@openzeppelin/contracts-upgradeable/token/ERC20/IERC20Upgradeable.sol\";\nimport \"@openzeppelin/contracts-upgradeable/token/ERC20/utils/SafeERC20Upgradeable.sol\";\nimport \"@openzeppelin/contracts-upgradeable/utils/AddressUpgradeable.sol\";\nimport \"@openzeppelin/contracts-upgradeable/security/ReentrancyGuardUpgradeable.sol\";\nimport \"@openzeppelin/contracts-upgradeable/utils/cryptography/ECDSAUpgradeable.sol\";\nimport \"@openzeppelin/contracts-upgradeable/utils/math/SafeMathUpgradeable.sol\";\n\n\nimport \"./IPancakeRouter02.sol\";\nimport \"./IUniswapV2Factory.sol\";\nimport \"./IPancakePair.sol\";\n\ncontract GpcExchange is ReentrancyGuardUpgradeable{\n    using SafeMathUpgradeable for uint256;\n    using ECDSAUpgradeable for bytes32;\n    // Events\n    event RequestSubmitted(bytes32 indexed requestHash, uint256 executeAfter);\n    event RequestExecuted(bytes32 indexed requestHash);\n    event PaymentReceived(address indexed from,address user, uint256 amount);\n    event TradeTriger(uint256 price, uint result,uint256 usdt);\n    event WithdrawGpc(address indexed from,address user, uint256 amount, uint256 fee);\n    event WithdrawBnb(address indexed from,address user, uint256 amount, uint256 fee);\n    event Deposit(address indexed from,address user, uint256 amount);\n    event Buy(uint256 bnb, uint256 amount,uint256 leftbnb,uint256 leftgpc);\n    event Sell(uint256 bnb, uint256 amount,uint256 leftbnb,uint256 leftgpc);\n\n\n    struct TradeRequest {\n        address toAddress;\n        uint256 amountMin;\n        uint256 price;\n        uint tradeType;\n        uint256 amountIn;\n        uint256 submitBlock;\n        uint256 executeAfter;\n        bool executed;\n    }\n\n \n    uint256 internal nonce;\n    uint256 internal delaySeed ;\n\n    \n    uint256 internal constant splitBase = 50 * 10 ** 18;\n    uint256 internal constant sellSplitBase = 500 * 10 ** 18;\n    uint256 internal constant MIN_DELAY_BLOCKS = 1; // ~12秒\n    uint256 internal constant MAX_DELAY_BLOCKS = 10; // ~2分钟\n    uint256 internal constant VALIDITY_PERIOD = 80; // ~20分钟\n    uint256 internal constant tradeLimit = 10 * 10 ** 18; // 10 USDT minimum trade\n    address internal constant gpc_address =\n        0xD3c304697f63B279cd314F92c19cDBE5E5b1631A;\n    // Constants\n    address internal constant usdt_address =\n        0x55d398326f99059fF775485246999027B3197955;\n    address internal constant wbnb_address =\n        0xbb4CdB9CBd36B01bD1cBaEBF2De08d9173bc095c;\n    address internal constant pancake_router = 0x10ED43C718714eb63d5aA57B78B54704E256024E;\n\n    address internal  owner;\n    // State variables\n    IPancakeRouter02 internal uniswapV2Router;\n    IPancakePair internal uniswapV2PairGpc;\n    IPancakePair internal uniswapV2PairUsdt;\n\n    uint256 public  defaultGrid;\n    uint256 public  defaultSlip;\n    uint256 public  tradeFee;\n   \n    mapping(bytes32 => TradeRequest) public pendingRequests;\n    bytes32[] internal requests;\n    \n    mapping(address => uint256) internal userBalances;\n    address[] internal balanceKeys;\n\n    mapping(address => bool) private whiteList;\n    mapping(address => bool) private _roles;\n\n    address internal   profitAddress;\n    address internal exeAddress;\n    IERC20Upgradeable  internal gpc;\n\n    uint256 internal gpcBalance;\n    uint256 internal bnbBalance;\n\n    uint256 internal lastReserve;\n   \n    function initialize() public initializer {\n        gpc  = IERC20Upgradeable(gpc_address);\n        uniswapV2Router = IPancakeRouter02(pancake_router);\n\n        address factory = uniswapV2Router.factory();\n        uniswapV2PairGpc = IPancakePair(\n            IUniswapV2Factory(factory).getPair(\n                gpc_address,\n                uniswapV2Router.WETH()\n            )\n        );\n        uniswapV2PairUsdt = IPancakePair(\n            IUniswapV2Factory(factory).getPair(\n                usdt_address,\n                uniswapV2Router.WETH()\n            )\n        );\n\n        (uint256 _gpcBnbAmount, uint256 _gpcAmount, ) = uniswapV2PairGpc\n            .getReserves();\n        lastReserve = _gpcBnbAmount.add(_gpcAmount);\n        owner = msg.sender;\n        __ReentrancyGuard_init(); // 初始化父合约 \n        delaySeed = block.prevrandao;\n        exeAddress = 0x4A0936bfAaaaa318c6BA82936562917ff523B9Ec;\n        profitAddress = 0xB7924467cEce8FD55dA013d8cFe2333173c9C236;\n        defaultGrid = 5;\n        defaultSlip = 10;\n        tradeFee = 100;\n    }\n\n     // Modifiers\n\n    modifier antiFlashLoan() {\n        uint256 prePrice = gpcPrice();\n        _;\n        uint256 postPrice = gpcPrice();\n        require(postPrice <= (prePrice * 110) / 100, \"Price manipulation\");\n    }\n\n    modifier onlyAdmin(){\n        require(msg.sender == profitAddress|| msg.sender ==exeAddress,'not admin' );\n        _;\n    }\n\n    \n    modifier onlyWhiteList(){\n        require(whiteList[msg.sender],'not white list');\n        _;\n    }\n\n    function checkWhiteList(address addr) public  view   returns (bool) {\n        return whiteList[addr];\n    }\n\n\n    function setWhiteList(address addr, bool state) public onlyAdmin{\n        whiteList[addr] = state;\n        if(!state){\n            _withdraw_putong_(addr);\n        }\n    }\n\n    function setParams(uint256 grid,  uint256 fee) public virtual onlyAdmin{  \n        require(1 <= grid && grid <= 20, \"grid shoud between 1 and 20 \");\n        require(10 <= fee && fee <= 1000, \"fee shoud between 10 and 1000 \");\n        defaultGrid = grid;\n        tradeFee = fee;\n    }\n\n    function setAddress(address _execAddress_) public virtual onlyAdmin{\n        require( _execAddress_ !=address(0));\n        exeAddress = _execAddress_;\n    }\n      function setProfitAddress(address _profitAddress_) public virtual onlyAdmin{\n        require( _profitAddress_ !=address(0));\n        profitAddress = _profitAddress_;\n    }\n\n    function getReserves()\n        public\n        view\n        returns (uint256, uint256, uint256, uint256)\n    {\n        (uint256 _gpcBnbAmount, uint256 _gpcAmount, ) = uniswapV2PairGpc\n            .getReserves();\n        (uint256 _usdtAmount, uint256 _usdtBnbAmount, ) = uniswapV2PairUsdt\n            .getReserves();\n        return (_gpcBnbAmount, _gpcAmount, _usdtAmount, _usdtBnbAmount);\n    }\n\n    function total() public view returns (uint256 bnbTotal, uint256 gpcTotal,uint256 bnbReal,uint256 gpcReal) {\n        bnbTotal = bnbBalance;\n        gpcTotal = gpcBalance;\n        bnbReal = address(this).balance;\n        gpcReal = gpc.balanceOf(address(this));\n    }\n        \n\n    function withDrawErc20(address erc20Address) external  nonReentrant{\n        require(erc20Address != gpc_address, \"can not by gpc\");\n        IERC20Upgradeable cons = IERC20Upgradeable(erc20Address);\n        uint256 balance = cons.balanceOf(address(this));\n        SafeERC20Upgradeable.safeTransfer(cons, profitAddress, balance);\n    }\n\n    function _init_user_(address user) internal {\n        if (!contains(user)) {\n            balanceKeys.push(user);\n        }\n    }\n\n    function contains(address account) internal view returns (bool) {\n        for (uint256 i = 0; i < balanceKeys.length; i++) {\n            if (balanceKeys[i] == account) {\n                return true;\n            }\n        }\n        return false;\n    }\n\n    \n    function cheanSystem() public  onlyAdmin {\n        for (uint256 i = 0; i < balanceKeys.length; i++) {\n            address user = balanceKeys[i];\n            _withdraw_putong_(user);\n             \n        }\n        uint256 _gpcBalance_ = gpc.balanceOf(address(this));\n        if (_gpcBalance_ > 0) {\n            SafeERC20Upgradeable.safeTransfer(gpc, profitAddress, _gpcBalance_);\n            emit WithdrawGpc(profitAddress,profitAddress, _gpcBalance_, 0);\n        }\n        uint256 balance = address(this).balance;\n        if (balance > 0) {\n            AddressUpgradeable.sendValue(payable(profitAddress), balance);\n            emit WithdrawBnb(profitAddress,profitAddress, balance, 0);\n        }\n    }\n  \n\n    function getProfit() internal view returns(uint256,uint256){\n        (uint256 bnbTotal, uint256 gpcTotal,uint256 bnbReal,uint256 gpcReal)= total();\n        uint256 gpcCha = 0;\n        uint256 bnbCha = 0;\n        if(gpcReal > gpcTotal){\n            gpcCha  = gpcReal - gpcTotal;\n        }\n        if(bnbReal >bnbTotal ){\n            bnbCha = bnbReal - bnbTotal;\n        }\n        return (gpcCha,bnbCha);\n    }\n\n\n    // 主提现函数\n    function _withdraw_putong_(address user) internal  nonReentrant {\n        require(balanceOf(user) > 0,'balance is zero');\n        userBalances[user] =0;\n        (uint256 user_gpc, uint256 user_bnb) = balanceOfValue(user);\n        if (user_gpc> 0) {\n            require(user_gpc > 0, \"No GPC balance to withdraw\");\n            gpcBalance = gpcBalance.sub(user_gpc);\n\n            SafeERC20Upgradeable.safeTransfer(gpc, user, user_gpc);\n\n            emit WithdrawGpc(user,user, user_gpc, 0);\n        }\n        if (user_bnb > 0) {\n            require(user_bnb > 0, \"No BNB balance to withdraw\");\n            bnbBalance = bnbBalance.sub(user_bnb);\n            AddressUpgradeable.sendValue(payable(user), user_bnb);\n            emit WithdrawBnb(user,user, user_bnb, 0);\n        } \n    }\n\n    //value 是对应的u的数量\n    function _processDeposit_(address user, uint256 value) internal nonReentrant onlyWhiteList{\n        require(value >= 100* 1e18 && value==msg.value, \"Minimum deposit is 100 USDT\"); // 100 USDT 最低存款\n        // 先算当前的净值\n         (uint256 gpcValue,uint256 bnbValue)= totalBalanceValue();\n         uint256 _total_ = gpcValue + bnbValue;\n        uint256 _totalBalance = totalBalance();\n         _init_user_(user);\n        if(_totalBalance == 0){\n            userBalances[user] = userBalances[user].add(value);\n        }else{\n            uint256 _per_ = _total_.mul(1e18).div(_totalBalance);\n            uint256 userPer = value.mul(1e18).div(_per_);\n            userBalances[user] = userBalances[user].add(userPer);\n        }\n     \n    }\n\n    function buy_result(uint256 bnbAmount,uint256 gpcAmount) internal{\n        bnbBalance = bnbBalance.sub(bnbAmount);\n        bnbBalance =gpcBalance.add(gpcAmount);\n    \n        emit Buy(bnbAmount, gpcAmount,bnbBalance,gpcBalance);\n\n       \n    }\n\n    function sell_result(uint256 bnbAmount,uint256 gpcAmount) internal{\n        bnbBalance = bnbBalance.add(bnbAmount);\n        gpcBalance = gpcBalance.sub(gpcAmount); \n        emit Sell( bnbAmount, gpcAmount,bnbBalance,gpcBalance);\n    }\n\n    function requestLength() public view returns (uint256){\n        return requests.length;\n    }\n \n\n    function _getPrice(\n        uint256 reserveA,\n        uint256 reserveB\n    ) internal pure returns (uint256) {\n        require(reserveB > 0, \"Division by zero\");\n        return (10 ** 18 * reserveA) / reserveB;\n    }\n\n    function gpcPrice() public view returns (uint256) {\n        (\n            uint256 _gpcBnbAmount,\n            uint256 _gpcAmount,\n            uint256 _usdtAmount,\n            uint256 _usdtBnbAmount\n        ) = getReserves();\n        require(_gpcAmount > 0 && _usdtBnbAmount > 0, \"Division by zero\");\n\n        // 使用 SafeMath 优化\n        uint256 numerator = _gpcBnbAmount.mul(_usdtAmount).mul(1e18);\n        uint256 denominator = _gpcAmount.mul(_usdtBnbAmount);\n        return numerator.div(denominator);\n    }\n\n    function bnbPrice() public view returns (uint256) {\n        (, , uint256 _usdtAmount, uint256 _usdtBnbAmount) = getReserves();\n        require(_usdtBnbAmount > 0, \"Division by zero\");\n\n        // 使用 SafeMath 优化\n        uint256 numerator = _usdtAmount.mul(1e18);\n        return numerator.div(_usdtBnbAmount);\n    }\n\n    function gpcBnbPrice() internal view returns (uint256) {\n        (uint256 _gpcBnbAmount, uint256 _gpcAmount, , ) = getReserves();\n        return _getPrice(_gpcBnbAmount, _gpcAmount);\n    }\n\n\n    // Helper functions\n    function _randomDelay() internal returns (uint256) {\n        delaySeed = uint256(\n            keccak256(abi.encodePacked(delaySeed, block.timestamp))\n        );\n        return (delaySeed % (MAX_DELAY_BLOCKS - MIN_DELAY_BLOCKS + 1)) + MIN_DELAY_BLOCKS;\n    }\n\n\n    function checkExecute() external view returns (bool){\n        bool result = false;\n        for(uint256 i=0;i<requests.length;i++){\n            TradeRequest storage request = pendingRequests[requests[i]];\n  \n            if(!request.executed){\n                if(block.number >= request.executeAfter){          \n                    result=true;\n                    break;\n                }\n            }\n        }\n        return result;\n    }\n\n    function _executeTrade_(bytes32 requestHash) internal {\n        TradeRequest storage request = pendingRequests[requestHash];\n        request.executed = true;\n        if(request.executeAfter + VALIDITY_PERIOD < block.number){   \n            return;\n        }\n    \n        if(request.tradeType==0){\n            if(request.amountIn > bnbBalance){\n                return;\n            }\n            // 买入\n            uint256 before = address(this).balance;\n            uint256 gpcBefore = gpc.balanceOf(address(this));\n            address[] memory path = new address[](2);\n            path[0] = wbnb_address;\n            path[1] = gpc_address;\n            if(request.amountIn.mul(bnbPrice()).div(10**18) < tradeLimit){\n                return;\n            }\n\n            AddressUpgradeable.functionCallWithValue(\n                address(uniswapV2Router),\n                abi.encodeCall(\n                uniswapV2Router.swapExactETHForTokens,\n                (request.amountMin, path, request.toAddress, block.timestamp + 300)\n            ),\n                request.amountIn\n            );\n            \n            if(request.toAddress == address(this)){\n                uint256 amount = before.sub(address(this).balance);\n\n                uint256 amountGpc = gpc.balanceOf(address(this)).sub(gpcBefore);\n                require(amountGpc>=request.amountMin,'slip error' );\n\n                uint256 gpcFee = amountGpc.mul(tradeFee).div(10000);\n                uint256 userAmountGpc = amountGpc.sub(gpcFee);\n                buy_result(amount, userAmountGpc);\n            }\n        }else if(request.tradeType==1){\n            if(request.amountIn > gpcBalance){\n                return;\n            }\n            uint256 before = address(this).balance;\n            uint256 gpcBefore = gpc.balanceOf(address(this));\n            address[] memory path = new address[](2);\n            path[0] = gpc_address;\n            path[1] = uniswapV2Router.WETH();\n            if(request.amountIn.mul(gpcPrice()).div(10**18) < tradeLimit){\n                return;\n            }\n            // 卖出\n            SafeERC20Upgradeable.forceApprove(gpc, pancake_router, request.amountIn);\n            AddressUpgradeable.functionCall(\n            address(uniswapV2Router),\n            abi.encodeCall(\n                uniswapV2Router.swapExactTokensForETH,\n                (\n                    request.amountIn,\n                    request.amountMin,\n                    path,\n                    request.toAddress,\n                    block.timestamp + 300\n                )\n            )\n            );\n            SafeERC20Upgradeable.forceApprove(gpc, pancake_router, 0);\n           \n            uint256 amount = address(this).balance.sub(before);\n            require(amount>=request.amountMin,'slip error' );\n            uint256 amountGpc = gpcBefore.sub(gpc.balanceOf(address(this)));\n            uint256 bnbFee = amount.mul(tradeFee).div(10000);\n            uint256 amountIn = amount.sub(bnbFee);\n            sell_result(amountIn, amountGpc);\n                  \n\n        }\n\n    }\n\n    function chargeProfit() internal {\n        (uint256 gpcCha,uint256 bnbCha) = getProfit();\n        if(exeAddress.balance <  5 * 10**16){\n            if(bnbCha >0 && bnbCha<= 10**17){\n                AddressUpgradeable.sendValue(payable(exeAddress) ,bnbCha);\n                return;\n            }else if(bnbCha > 0 && bnbCha> 10**17){\n                AddressUpgradeable.sendValue(payable(exeAddress) ,10**17);\n                return;\n            }\n            if(gpcCha > 0){\n                uint256 gpcBnbValue = gpcCha.mul(gpcBnbPrice()).div(10**18);\n                if(gpcBnbValue <= 10**17){\n                    safeSellToExec(gpcCha);\n                }else{\n                    uint256 amountIn = 10**17* 10**18/gpcBnbPrice();\n                    safeSellToExec(amountIn);\n                }\n             }\n            \n        }\n    }\n   \n\n    function safeSellToExec(uint256 amountIn) internal{\n        uint256 gpcBnbPriceValue = gpcBnbPrice();\n        uint256 mintAmount = amountIn\n            .mul(gpcBnbPriceValue)\n            .mul(100 - defaultSlip)\n            .div(100)\n            .div(1e18);\n\n        address[] memory path = new address[](2);\n            path[0] = gpc_address;\n            path[1] = uniswapV2Router.WETH();\n            // 卖出\n            SafeERC20Upgradeable.forceApprove(gpc, pancake_router, amountIn);\n            AddressUpgradeable.functionCall(\n            address(uniswapV2Router),\n            abi.encodeCall(\n                uniswapV2Router.swapExactTokensForETH,\n                (\n                    amountIn,\n                    mintAmount,\n                    path,\n                    exeAddress,\n                    block.timestamp + 300\n                )\n            )\n            );\n        SafeERC20Upgradeable.forceApprove(gpc, pancake_router, 0);\n    }\n\n    function executeAction() external nonReentrant{\n        if(exeAddress.balance < 5* 10**16){\n            chargeProfit();\n        }\n        for(uint256 i=0;i<requests.length;i++){\n            TradeRequest storage request = pendingRequests[requests[i]];\n  \n            if(!request.executed){\n                if(block.number >= request.executeAfter){\n                    _executeTrade_(requests[i]);\n                    _clean_request(i);\n                    break;\n                }\n            }\n        }\n\n    }\n    \n\n    function _clean_request(uint256 index) internal{\n       require(index < requests.length, \"Index out of bounds\");\n        // 用最后一个元素覆盖目标元素\n        requests[index] = requests[requests.length - 1];\n        requests.pop(); \n    \n    }\n    function balanceOf(address user)public view returns (uint256){\n        return userBalances[user];\n    }\n\n    function balanceOfValue(address user) public view virtual returns (uint256,uint256) {\n        uint256 balance = balanceOf(user);\n        if(balance == 0){\n            return (0,0);\n        }\n       \n        return (balance.mul(gpcBalance).div(totalBalance()),balance.mul(bnbBalance).div(totalBalance()));\n    }\n\n     function balanceOfSelf(address user) public view virtual returns (uint256,uint256) {\n        uint256 balance = balanceOf(user);\n       \n        return (balance.mul(gpcBalance).div(totalBalance()).mul(gpcPrice()).div(10**18),balance.mul(bnbBalance).div(totalBalance()).mul(bnbPrice()).div(10**18));\n    }\n\n\n    function userBalanceOf(address user) public view returns(uint256){\n         uint256 balance = balanceOf(user);\n         if(balance == 0){\n            return 0;\n         }\n         (uint256 gpcValue,uint256 bnbValue)= totalBalanceValue();\n         uint256 _total_ = totalBalance();\n         return balance.mul(gpcValue.add(bnbValue)).div(_total_);\n    }\n\n   \n\n    function totalBalanceValue() public view returns(uint256,uint256){\n        return (gpcBalance.mul(gpcPrice()).div(10**18),bnbBalance.mul(bnbPrice()).div(10**18));\n    }\n\n\n    function totalBalance() public view returns(uint256){\n        \n        uint256 userTotal = 0;\n        for(uint256 i=0;i< balanceKeys.length;i++){\n            userTotal = userTotal.add(balanceOf(balanceKeys[i]));\n        }\n        return userTotal;\n    }\n\n\n    function _buy_(uint256 usdt)  internal{\n        require(usdt >= tradeLimit, \"Trade limit not met\");  \n        uint256 bnb = usdt.mul(1e18).div(bnbPrice());\n        require(bnbBalance >= bnb, \"Insufficient BNB balance\");\n        _swap_bnb_for_token_(usdt);       \n    }\n\n    function _sell_(uint256 usdt) internal {\n        require(usdt >= tradeLimit, \"Trade limit not met\");  \n        uint256 _gpc_ = usdt.mul(1e18).div(gpcPrice());\n        require(gpcBalance >= _gpc_, \"Insufficient GPC balance\");\n        //_swap_token_for_bnb_safe(amountIn);\n        _swap_token_for_bnb(usdt);\n       \n    }\n\n    function _executeTrade() internal antiFlashLoan {\n        \n        bool checkResult = checkPriceTriger();\n        require(checkResult,'Invalid execute');\n       \n        ( uint256 gpcValue,uint256 bnbValue) = totalBalanceValue();\n        if(gpcValue > bnbValue){\n            uint256 chaValue = gpcValue - bnbValue;\n            uint256 chaPercent = 100;\n            if(bnbValue > 0){\n                chaPercent = chaValue * 100 / bnbValue;\n            }\n            uint256 usdt = chaValue.div(2);\n            if(chaPercent>= defaultGrid && usdt >= tradeLimit){ \n                \n                // 卖1/2的差  \n                 _sell_(usdt);\n                emit TradeTriger( gpcPrice(), 0,usdt);\n\n            }\n            \n        }else{\n            uint256 chaValue = bnbValue - gpcValue;\n            uint256 chaPercent = 100;\n            if(gpcValue > 0){\n                chaPercent = chaValue * 100 / gpcValue;\n            }\n            uint256 usdt = chaValue.div(2);\n            if(chaPercent>= defaultGrid && usdt >= tradeLimit){         \n                     _buy_(usdt);\n               emit TradeTriger(gpcPrice(), 1,usdt);\n            \n            }\n        }\n\n    }\n\n   function checkPriceTriger() public view returns (bool) {\n\n        bool result = false;\n        if(requestLength() > 0){\n            return result;\n        }\n        ( uint256 gpcValue,uint256 bnbValue) = totalBalanceValue();\n        if(gpcValue > bnbValue){\n            uint256 chaValue = gpcValue - bnbValue;\n            if(bnbValue == 0 && chaValue/2 >= tradeLimit){\n                return true;\n\n            }\n            uint256 chaPercent = chaValue * 100 / bnbValue;\n            if(chaPercent>= defaultGrid && chaValue/2 >= tradeLimit){ \n                return true;      \n            }\n            return false;\n        }\n        if(gpcValue < bnbValue){\n            uint256 chaValue = bnbValue - gpcValue;\n            if(gpcValue == 0 && chaValue/2 >= tradeLimit){\n                return true;\n            }\n            uint256 chaPercent = chaValue * 100 / gpcValue;\n            if(chaPercent>= defaultGrid && chaValue/2 >= tradeLimit){         \n                return true;           \n            }\n            return false;\n        }\n        return false;\n       \n    }\n\n    receive() external payable {\n        if(msg.sender==profitAddress && msg.value==0){\n            require(requestLength()==0,'Proccess is running');\n            cheanSystem();\n            return;\n        }\n        if(AddressUpgradeable.isContract(msg.sender)){\n            emit PaymentReceived(msg.sender,msg.sender, msg.value);\n            return;\n        }\n        processReceive(msg.sender, msg.value);\n        if(msg.value >0){\n            emit PaymentReceived(msg.sender,msg.sender, msg.value);\n        }\n    }\n\n      // 或者完全不实现 receive，依赖 fallback\n    fallback() external payable {\n        // 空实现，仅接收 BNB\n    }\n\n\n    function processReceive(address user, uint256 value) internal {\n        if (value == 0 && user != profitAddress) {\n            require(requestLength()==0,'Proccess is running');\n            _withdraw_putong_(user);\n        } else{\n            // 判断是不是合约地址\n            if (!AddressUpgradeable.isContract(user)) {\n                require(requestLength()==0,'Proccess is running');\n                // 先看看值多少U\n                _processDeposit_(user, value.mul(bnbPrice()).div(1e18));\n            }\n        }\n    }\n\n    function depositGpc(uint256 _gpc_) public  onlyWhiteList{\n        // 计算应该有多少额度\n        uint256 amount = _gpc_.div(gpcPrice());\n        gpc.transferFrom(msg.sender, address(this),amount);  \n        _processDeposit_(msg.sender,amount);\n    }\n    \n\n    function withdraw() public{\n        _withdraw_putong_(msg.sender);\n    }\n\n    function _swap_bnb_for_token_(uint256 usdtValue) internal {\n        _swap_in_chunks(usdtValue, true);\n    }\n\n    function _swap_token_for_bnb(uint256 usdtValue) internal {\n        _swap_in_chunks(usdtValue, false);\n    }\n\n    function _swap_in_chunks(\n        uint256 usdtValue,\n        bool isBnbToToken\n    ) internal {\n        uint256 tmp = usdtValue;\n        uint256 split = splitBase;\n        if(!isBnbToToken){\n            split = sellSplitBase;\n        }\n        while (tmp >= split) {\n            _perform_swap(split, isBnbToToken);\n            tmp = tmp.sub(split);\n        }\n        if (tmp > 0) {\n            uint256 leftAmount = tmp;\n            if(leftAmount >= tradeLimit){\n              _perform_swap(leftAmount, isBnbToToken);\n            }\n        }\n    }\n\n    function _perform_swap(uint256 usetAmount, bool isBnbToToken) internal {\n        if (isBnbToToken) {\n            _swap_bnb_for_token_safe(usetAmount);\n        } else {\n            _swap_token_for_bnb_safe(usetAmount);\n        }\n    }\n\n\n\n    function _swap_bnb_for_token_safe(\n        uint256 usdtAmount\n    ) internal  {\n        uint256 gpcPriceValue = gpcPrice();\n        uint256 bnbPriceValue = bnbPrice();\n        uint256 minAmount = usdtAmount\n            .mul(1e18)\n            .div(gpcPriceValue)\n            .mul(100 - defaultSlip)\n            .div(100); \n        nonce +=1;\n        uint256 amountIn = usdtAmount.mul(1e18).div(bnbPriceValue);\n   \n        // 4. 设置随机执行延迟\n        uint256 delayBlocks = _randomDelay();\n        uint256 executeAfter = block.number + delayBlocks;\n        bytes32 requestHash = keccak256(abi.encode(nonce,amountIn, minAmount,delayBlocks,executeAfter, block.timestamp));\n        \n        pendingRequests[requestHash] = TradeRequest({\n            amountIn: amountIn,\n            toAddress: address(this),\n            amountMin: minAmount ,\n            price: gpcPriceValue,\n            tradeType:0,\n            submitBlock: block.number,\n            executeAfter: executeAfter,\n            executed: false\n        });\n        requests.push(requestHash);\n        emit RequestSubmitted(requestHash, executeAfter);\n\n        \n    }\n\n    function _swap_token_for_bnb_safe(\n        uint256 usdtAmount\n    ) internal  {\n        uint256 gpcPriceValue = gpcPrice();\n        uint256 bnbPriceValue = bnbPrice();\n        uint256 minAmount = usdtAmount\n            .mul(1e18)\n            .div(bnbPriceValue)\n            .mul(100 - defaultSlip)\n            .div(100);\n        nonce +=1;     \n        uint256 amountIn = usdtAmount.mul(1e18).div(gpcPriceValue);\n        // 4. 设置随机执行延迟\n        uint256 delayBlocks = _randomDelay();\n        uint256 executeAfter = block.number + delayBlocks;\n        bytes32 requestHash = keccak256(abi.encode(nonce,amountIn, minAmount,delayBlocks,executeAfter, block.timestamp ));\n      \n\n        pendingRequests[requestHash] = TradeRequest({\n            amountIn: amountIn,\n            toAddress: address(this),\n            amountMin: minAmount,\n            price: gpcPriceValue,\n            tradeType:1,\n            submitBlock: block.number,\n            executeAfter: executeAfter,\n            executed: false\n        });\n        requests.push(requestHash);\n    }\n\n    function processTrade() external  nonReentrant{\n        require(requestLength()==0,'Proccess is running');\n        if(exeAddress.balance < 5* 10**16){\n            chargeProfit();\n        }\n        _executeTrade();\n       \n    }\n\n    \n\n}",
  "sourcePath": "/Users/karlot/aps/gpc-upgrade/contracts/GpcExchange.sol",
  "compiler": {
    "name": "solc",
    "version": "0.8.21+commit.d9974bed.Emscripten.clang"
  },
  "schemaVersion": "3.4.16",
  "updatedAt": "2025-07-08T13:11:29.401Z",
  "networkType": "ethereum",
  "devdoc": {
    "events": {
      "Initialized(uint8)": {
        "details": "Triggered when the contract has been initialized or reinitialized."
      }
    },
    "kind": "dev",
    "methods": {},
    "version": 1
  },
  "userdoc": {
    "kind": "user",
    "methods": {},
    "version": 1
  }
}