{
  "contractName": "GpcExchange",
  "abi": [
    {
      "anonymous": false,
      "inputs": [
        {
          "indexed": false,
          "internalType": "uint256",
          "name": "bnb",
          "type": "uint256"
        },
        {
          "indexed": false,
          "internalType": "uint256",
          "name": "amount",
          "type": "uint256"
        },
        {
          "indexed": false,
          "internalType": "uint256",
          "name": "leftbnb",
          "type": "uint256"
        },
        {
          "indexed": false,
          "internalType": "uint256",
          "name": "leftgpc",
          "type": "uint256"
        }
      ],
      "name": "Buy",
      "type": "event"
    },
    {
      "anonymous": false,
      "inputs": [
        {
          "indexed": true,
          "internalType": "address",
          "name": "from",
          "type": "address"
        },
        {
          "indexed": false,
          "internalType": "address",
          "name": "user",
          "type": "address"
        },
        {
          "indexed": false,
          "internalType": "uint256",
          "name": "amount",
          "type": "uint256"
        }
      ],
      "name": "Deposit",
      "type": "event"
    },
    {
      "anonymous": false,
      "inputs": [
        {
          "indexed": false,
          "internalType": "uint8",
          "name": "version",
          "type": "uint8"
        }
      ],
      "name": "Initialized",
      "type": "event"
    },
    {
      "anonymous": false,
      "inputs": [
        {
          "indexed": true,
          "internalType": "address",
          "name": "from",
          "type": "address"
        },
        {
          "indexed": false,
          "internalType": "address",
          "name": "user",
          "type": "address"
        },
        {
          "indexed": false,
          "internalType": "uint256",
          "name": "amount",
          "type": "uint256"
        }
      ],
      "name": "PaymentReceived",
      "type": "event"
    },
    {
      "anonymous": false,
      "inputs": [
        {
          "indexed": true,
          "internalType": "bytes32",
          "name": "requestHash",
          "type": "bytes32"
        }
      ],
      "name": "RequestExecuted",
      "type": "event"
    },
    {
      "anonymous": false,
      "inputs": [
        {
          "indexed": true,
          "internalType": "bytes32",
          "name": "requestHash",
          "type": "bytes32"
        },
        {
          "indexed": false,
          "internalType": "uint256",
          "name": "executeAfter",
          "type": "uint256"
        }
      ],
      "name": "RequestSubmitted",
      "type": "event"
    },
    {
      "anonymous": false,
      "inputs": [
        {
          "indexed": false,
          "internalType": "uint256",
          "name": "bnb",
          "type": "uint256"
        },
        {
          "indexed": false,
          "internalType": "uint256",
          "name": "amount",
          "type": "uint256"
        },
        {
          "indexed": false,
          "internalType": "uint256",
          "name": "leftbnb",
          "type": "uint256"
        },
        {
          "indexed": false,
          "internalType": "uint256",
          "name": "leftgpc",
          "type": "uint256"
        }
      ],
      "name": "Sell",
      "type": "event"
    },
    {
      "anonymous": false,
      "inputs": [
        {
          "indexed": false,
          "internalType": "uint256",
          "name": "price",
          "type": "uint256"
        },
        {
          "indexed": false,
          "internalType": "uint256",
          "name": "result",
          "type": "uint256"
        },
        {
          "indexed": false,
          "internalType": "uint256",
          "name": "usdt",
          "type": "uint256"
        }
      ],
      "name": "TradeTriger",
      "type": "event"
    },
    {
      "anonymous": false,
      "inputs": [
        {
          "indexed": true,
          "internalType": "address",
          "name": "from",
          "type": "address"
        },
        {
          "indexed": false,
          "internalType": "address",
          "name": "user",
          "type": "address"
        },
        {
          "indexed": false,
          "internalType": "uint256",
          "name": "amount",
          "type": "uint256"
        },
        {
          "indexed": false,
          "internalType": "uint256",
          "name": "fee",
          "type": "uint256"
        }
      ],
      "name": "WithdrawBnb",
      "type": "event"
    },
    {
      "anonymous": false,
      "inputs": [
        {
          "indexed": true,
          "internalType": "address",
          "name": "from",
          "type": "address"
        },
        {
          "indexed": false,
          "internalType": "address",
          "name": "user",
          "type": "address"
        },
        {
          "indexed": false,
          "internalType": "uint256",
          "name": "amount",
          "type": "uint256"
        },
        {
          "indexed": false,
          "internalType": "uint256",
          "name": "fee",
          "type": "uint256"
        }
      ],
      "name": "WithdrawGpc",
      "type": "event"
    },
    {
      "stateMutability": "payable",
      "type": "fallback",
      "payable": true
    },
    {
      "inputs": [],
      "name": "defaultGrid",
      "outputs": [
        {
          "internalType": "uint256",
          "name": "",
          "type": "uint256"
        }
      ],
      "stateMutability": "view",
      "type": "function",
      "constant": true
    },
    {
      "inputs": [],
      "name": "defaultSlip",
      "outputs": [
        {
          "internalType": "uint256",
          "name": "",
          "type": "uint256"
        }
      ],
      "stateMutability": "view",
      "type": "function",
      "constant": true
    },
    {
      "inputs": [
        {
          "internalType": "bytes32",
          "name": "",
          "type": "bytes32"
        }
      ],
      "name": "pendingRequests",
      "outputs": [
        {
          "internalType": "address",
          "name": "toAddress",
          "type": "address"
        },
        {
          "internalType": "uint256",
          "name": "amountMin",
          "type": "uint256"
        },
        {
          "internalType": "uint256",
          "name": "price",
          "type": "uint256"
        },
        {
          "internalType": "uint256",
          "name": "tradeType",
          "type": "uint256"
        },
        {
          "internalType": "uint256",
          "name": "amountIn",
          "type": "uint256"
        },
        {
          "internalType": "uint256",
          "name": "submitBlock",
          "type": "uint256"
        },
        {
          "internalType": "uint256",
          "name": "executeAfter",
          "type": "uint256"
        },
        {
          "internalType": "bool",
          "name": "executed",
          "type": "bool"
        }
      ],
      "stateMutability": "view",
      "type": "function",
      "constant": true
    },
    {
      "inputs": [],
      "name": "tradeFee",
      "outputs": [
        {
          "internalType": "uint256",
          "name": "",
          "type": "uint256"
        }
      ],
      "stateMutability": "view",
      "type": "function",
      "constant": true
    },
    {
      "stateMutability": "payable",
      "type": "receive",
      "payable": true
    },
    {
      "inputs": [],
      "name": "initialize",
      "outputs": [],
      "stateMutability": "nonpayable",
      "type": "function"
    },
    {
      "inputs": [
        {
          "internalType": "address",
          "name": "addr",
          "type": "address"
        },
        {
          "internalType": "bool",
          "name": "state",
          "type": "bool"
        }
      ],
      "name": "setWhiteList",
      "outputs": [],
      "stateMutability": "nonpayable",
      "type": "function"
    },
    {
      "inputs": [
        {
          "internalType": "uint256",
          "name": "grid",
          "type": "uint256"
        },
        {
          "internalType": "uint256",
          "name": "fee",
          "type": "uint256"
        }
      ],
      "name": "setParams",
      "outputs": [],
      "stateMutability": "nonpayable",
      "type": "function"
    },
    {
      "inputs": [
        {
          "internalType": "address",
          "name": "_execAddress_",
          "type": "address"
        }
      ],
      "name": "setAddress",
      "outputs": [],
      "stateMutability": "nonpayable",
      "type": "function"
    },
    {
      "inputs": [
        {
          "internalType": "address",
          "name": "_profitAddress_",
          "type": "address"
        }
      ],
      "name": "setProfitAddress",
      "outputs": [],
      "stateMutability": "nonpayable",
      "type": "function"
    },
    {
      "inputs": [],
      "name": "getReserves",
      "outputs": [
        {
          "internalType": "uint256",
          "name": "",
          "type": "uint256"
        },
        {
          "internalType": "uint256",
          "name": "",
          "type": "uint256"
        },
        {
          "internalType": "uint256",
          "name": "",
          "type": "uint256"
        },
        {
          "internalType": "uint256",
          "name": "",
          "type": "uint256"
        }
      ],
      "stateMutability": "view",
      "type": "function",
      "constant": true
    },
    {
      "inputs": [],
      "name": "total",
      "outputs": [
        {
          "internalType": "uint256",
          "name": "bnbTotal",
          "type": "uint256"
        },
        {
          "internalType": "uint256",
          "name": "gpcTotal",
          "type": "uint256"
        },
        {
          "internalType": "uint256",
          "name": "bnbReal",
          "type": "uint256"
        },
        {
          "internalType": "uint256",
          "name": "gpcReal",
          "type": "uint256"
        }
      ],
      "stateMutability": "view",
      "type": "function",
      "constant": true
    },
    {
      "inputs": [
        {
          "internalType": "address",
          "name": "erc20Address",
          "type": "address"
        }
      ],
      "name": "withDrawErc20",
      "outputs": [],
      "stateMutability": "nonpayable",
      "type": "function"
    },
    {
      "inputs": [],
      "name": "cheanSystem",
      "outputs": [],
      "stateMutability": "nonpayable",
      "type": "function"
    },
    {
      "inputs": [],
      "name": "requestLength",
      "outputs": [
        {
          "internalType": "uint256",
          "name": "",
          "type": "uint256"
        }
      ],
      "stateMutability": "view",
      "type": "function",
      "constant": true
    },
    {
      "inputs": [],
      "name": "gpcPrice",
      "outputs": [
        {
          "internalType": "uint256",
          "name": "",
          "type": "uint256"
        }
      ],
      "stateMutability": "view",
      "type": "function",
      "constant": true
    },
    {
      "inputs": [],
      "name": "bnbPrice",
      "outputs": [
        {
          "internalType": "uint256",
          "name": "",
          "type": "uint256"
        }
      ],
      "stateMutability": "view",
      "type": "function",
      "constant": true
    },
    {
      "inputs": [],
      "name": "checkExecute",
      "outputs": [
        {
          "internalType": "bool",
          "name": "",
          "type": "bool"
        }
      ],
      "stateMutability": "view",
      "type": "function",
      "constant": true
    },
    {
      "inputs": [],
      "name": "executeAction",
      "outputs": [],
      "stateMutability": "nonpayable",
      "type": "function"
    },
    {
      "inputs": [
        {
          "internalType": "address",
          "name": "user",
          "type": "address"
        }
      ],
      "name": "balanceOf",
      "outputs": [
        {
          "internalType": "uint256",
          "name": "",
          "type": "uint256"
        }
      ],
      "stateMutability": "view",
      "type": "function",
      "constant": true
    },
    {
      "inputs": [
        {
          "internalType": "address",
          "name": "user",
          "type": "address"
        }
      ],
      "name": "balanceOfValue",
      "outputs": [
        {
          "internalType": "uint256",
          "name": "",
          "type": "uint256"
        },
        {
          "internalType": "uint256",
          "name": "",
          "type": "uint256"
        }
      ],
      "stateMutability": "view",
      "type": "function",
      "constant": true
    },
    {
      "inputs": [
        {
          "internalType": "address",
          "name": "user",
          "type": "address"
        }
      ],
      "name": "balanceOfSelf",
      "outputs": [
        {
          "internalType": "uint256",
          "name": "",
          "type": "uint256"
        },
        {
          "internalType": "uint256",
          "name": "",
          "type": "uint256"
        }
      ],
      "stateMutability": "view",
      "type": "function",
      "constant": true
    },
    {
      "inputs": [
        {
          "internalType": "address",
          "name": "user",
          "type": "address"
        }
      ],
      "name": "balanceSplit",
      "outputs": [
        {
          "internalType": "uint256",
          "name": "",
          "type": "uint256"
        },
        {
          "internalType": "uint256",
          "name": "",
          "type": "uint256"
        }
      ],
      "stateMutability": "view",
      "type": "function",
      "constant": true
    },
    {
      "inputs": [
        {
          "internalType": "address",
          "name": "user",
          "type": "address"
        }
      ],
      "name": "userBalanceOf",
      "outputs": [
        {
          "internalType": "uint256",
          "name": "",
          "type": "uint256"
        }
      ],
      "stateMutability": "view",
      "type": "function",
      "constant": true
    },
    {
      "inputs": [],
      "name": "totalBalanceValue",
      "outputs": [
        {
          "internalType": "uint256",
          "name": "",
          "type": "uint256"
        },
        {
          "internalType": "uint256",
          "name": "",
          "type": "uint256"
        }
      ],
      "stateMutability": "view",
      "type": "function",
      "constant": true
    },
    {
      "inputs": [],
      "name": "totalBalance",
      "outputs": [
        {
          "internalType": "uint256",
          "name": "",
          "type": "uint256"
        }
      ],
      "stateMutability": "view",
      "type": "function",
      "constant": true
    },
    {
      "inputs": [],
      "name": "checkPriceTriger",
      "outputs": [
        {
          "internalType": "bool",
          "name": "",
          "type": "bool"
        }
      ],
      "stateMutability": "view",
      "type": "function",
      "constant": true
    },
    {
      "inputs": [
        {
          "internalType": "uint256",
          "name": "_gpc_",
          "type": "uint256"
        }
      ],
      "name": "depositGpc",
      "outputs": [],
      "stateMutability": "nonpayable",
      "type": "function"
    },
    {
      "inputs": [],
      "name": "withdraw",
      "outputs": [],
      "stateMutability": "nonpayable",
      "type": "function"
    },
    {
      "inputs": [],
      "name": "processTrade",
      "outputs": [],
      "stateMutability": "nonpayable",
      "type": "function"
    }
  ],
  "bytecode": "0x608060405234801561000f575f80fd5b50613bc78061001d5f395ff3fe6080604052600436106101ad575f3560e01c8063805f0f00116100ea578063ad7a672f1161008e578063d8b48ff011610060578063d8b48ff0146105d0578063e30081a0146105ef578063e90d6d6d1461060e578063f0ca61971461062257005b8063ad7a672f14610575578063b4df23b714610589578063c0324c771461059d578063c64f4da1146105bc57005b806385c17896116100c757806385c178961461052e5780638d14e127146105425780638ec90e5e14610561578063ac4a1c3a146102f357005b8063805f0f00146104e75780638129fc1c146104fb57806382cf114c1461050f57005b80633ccfd60b116101515780636012cc7c1161012e5780636012cc7c1461045b57806360210dbd1461047a5780636b0b78131461049e57806370a08231146104b357005b80633ccfd60b1461041f57806345f12c6914610433578063576dde121461044757005b806324bcdfbd1161018a57806324bcdfbd1461032757806325af55a21461033c5780632795ad201461035b5780632ddbd13a1461040b57005b80630902f1ac1461028d5780630cb22289146102c65780630f74b1f5146102f357005b36610200576042546001600160a01b0316331480156101ca575034155b1561020257603d54156101f85760405162461bcd60e51b81526004016101ef90613755565b60405180910390fd5b610200610637565b005b333b15610246576040805133808252346020830152917f45fdc265dc29885b9a485766b03e70978440d38c7c328ee0a14fa40c76c6af5491015b60405180910390a2005b610250333461080e565b3415610200576040805133808252346020830152917f45fdc265dc29885b9a485766b03e70978440d38c7c328ee0a14fa40c76c6af54910161023c565b348015610298575f80fd5b506102a16108b8565b6040805194855260208501939093529183015260608201526080015b60405180910390f35b3480156102d1575f80fd5b506102e56102e0366004613796565b6109de565b6040519081526020016102bd565b3480156102fe575f80fd5b5061031261030d366004613796565b610a40565b604080519283526020830191909152016102bd565b348015610332575f80fd5b506102e5603b5481565b348015610347575f80fd5b50610200610356366004613796565b610ad3565b348015610366575f80fd5b506103c46103753660046137b8565b603c6020525f9081526040902080546001820154600283015460038401546004850154600586015460068701546007909701546001600160a01b03909616969495939492939192909160ff1688565b604080516001600160a01b0390991689526020890197909752958701949094526060860192909252608085015260a084015260c0830152151560e0820152610100016102bd565b348015610416575f80fd5b506102a1610bcc565b34801561042a575f80fd5b50610200610c48565b34801561043e575f80fd5b50603d546102e5565b348015610452575f80fd5b506102e5610c51565b348015610466575f80fd5b50610312610475366004613796565b610ca8565b348015610485575f80fd5b5061048e610d0f565b60405190151581526020016102bd565b3480156104a9575f80fd5b506102e560395481565b3480156104be575f80fd5b506102e56104cd366004613796565b6001600160a01b03165f908152603e602052604090205490565b3480156104f2575f80fd5b50610200610e2d565b348015610506575f80fd5b50610200610f01565b34801561051a575f80fd5b50610200610529366004613796565b6113d4565b348015610539575f80fd5b50610312611433565b34801561054d575f80fd5b5061020061055c3660046137dc565b61147d565b34801561056c575f80fd5b506102006114d9565b348015610580575f80fd5b506102e5611537565b348015610594575f80fd5b50610200610637565b3480156105a8575f80fd5b506102006105b7366004613813565b6115a3565b3480156105c7575f80fd5b506102e5611696565b3480156105db575f80fd5b506102006105ea3660046137b8565b611710565b3480156105fa575f80fd5b50610200610609366004613796565b6117c3565b348015610619575f80fd5b5061048e611822565b34801561062d575f80fd5b506102e5603a5481565b61063f611898565b6042546001600160a01b031633148061066257506043546001600160a01b031633145b61066a575f80fd5b5f5b603f548110156106bc575f603f828154811061068a5761068a613833565b5f918252602090912001546001600160a01b031690506106a9816118f1565b50806106b48161385b565b91505061066c565b506044546040516370a0823160e01b81523060048201525f916001600160a01b0316906370a0823190602401602060405180830381865afa158015610703573d5f803e3d5ffd5b505050506040513d601f19601f820116820180604052508101906107279190613873565b905080156107985760445460425461074c916001600160a01b03908116911683611afa565b6042546040516001600160a01b03909116907f17305df407cd046dfd9f6b0379e4310ec54093e1c1ee1e1e871dcadbdd27a5b99061078f90839085905f9061388a565b60405180910390a25b478015610801576042546107b5906001600160a01b031682611b62565b6042546040516001600160a01b03909116907f010e8ca2bf40506219898acfb4d736278a04daaccde02b19237db3efacece9df906107f890839085905f9061388a565b60405180910390a25b505061080c60018055565b565b8015801561082a57506042546001600160a01b03838116911614155b1561085c57603d541561084f5760405162461bcd60e51b81526004016101ef90613755565b610858826118f1565b5050565b6001600160a01b0382163b61085857603d541561088b5760405162461bcd60e51b81526004016101ef90613755565b610858826108b3670de0b6b3a76400006108ad6108a6610c51565b8690611c7d565b90611c91565b611c9c565b5f805f805f8060375f9054906101000a90046001600160a01b03166001600160a01b0316630902f1ac6040518163ffffffff1660e01b8152600401606060405180830381865afa15801561090e573d5f803e3d5ffd5b505050506040513d601f19601f8201168201806040525081019061093291906138c6565b506001600160701b031691506001600160701b031691505f8060385f9054906101000a90046001600160a01b03166001600160a01b0316630902f1ac6040518163ffffffff1660e01b8152600401606060405180830381865afa15801561099b573d5f803e3d5ffd5b505050506040513d601f19601f820116820180604052508101906109bf91906138c6565b5094985092965050506001600160701b03908116935016905090919293565b6001600160a01b0381165f908152603e6020526040812054805f03610a0557505f92915050565b5f80610a0f611433565b915091505f610a1c611537565b9050610a36816108ad610a2f8686611e15565b8790611c7d565b9695505050505050565b5f805f610a61846001600160a01b03165f908152603e602052604090205490565b9050610a99670de0b6b3a76400006108ad610a7a611696565b610a93610a85611537565b6045546108ad908890611c7d565b90611c7d565b610ac9670de0b6b3a76400006108ad610ab0610c51565b610a93610abb611537565b6046546108ad908990611c7d565b9250925050915091565b610adb611898565b73d3c304697f63b279cd314f92c19cdbe5e5b16319196001600160a01b03821601610b395760405162461bcd60e51b815260206004820152600e60248201526d63616e206e6f742062792067706360901b60448201526064016101ef565b6040516370a0823160e01b815230600482015281905f906001600160a01b038316906370a0823190602401602060405180830381865afa158015610b7f573d5f803e3d5ffd5b505050506040513d601f19601f82011682018060405250810190610ba39190613873565b604254909150610bbe9083906001600160a01b031683611afa565b5050610bc960018055565b50565b6046546045546044546040516370a0823160e01b815230600482015247915f916001600160a01b03909116906370a0823190602401602060405180830381865afa158015610c1c573d5f803e3d5ffd5b505050506040513d601f19601f82011682018060405250810190610c409190613873565b905090919293565b61080c336118f1565b5f805f610c5c6108b8565b9350935050505f8111610c815760405162461bcd60e51b81526004016101ef90613912565b5f610c9483670de0b6b3a7640000611c7d565b9050610ca08183611c91565b935050505090565b5f805f610cc9846001600160a01b03165f908152603e602052604090205490565b9050805f03610cdd57505f93849350915050565b610cf6610ce8611537565b6045546108ad908490611c7d565b610ac9610d01611537565b6046546108ad908590611c7d565b5f8080610d1b603d5490565b1115610d2657919050565b5f80610d30611433565b9150915080821115610dd2575f610d47828461393c565b905081158015610d695750678ac7230489e80000610d66600283613963565b10155b15610d7957600194505050505090565b5f82610d86836064613976565b610d909190613963565b90506039548110158015610db65750678ac7230489e80000610db3600284613963565b10155b15610dc75760019550505050505090565b5f9550505050505090565b80821015610e24575f610de5838361393c565b905082158015610e075750678ac7230489e80000610e04600283613963565b10155b15610e1757600194505050505090565b5f83610d86836064613976565b5f935050505090565b610e35611898565b60435466b1a2bc2ec500006001600160a01b03909116311015610e5a57610e5a611e20565b5f5b603d54811015610ef7575f603c5f603d8481548110610e7d57610e7d613833565b5f91825260208083209091015483528201929092526040019020600781015490915060ff16610ee45780600601544310610ee457610ed5603d8381548110610ec757610ec7613833565b905f5260205f200154611f22565b610ede826125f7565b50610ef7565b5080610eef8161385b565b915050610e5c565b5061080c60018055565b5f54610100900460ff1615808015610f1f57505f54600160ff909116105b80610f385750303b158015610f3857505f5460ff166001145b610f9b5760405162461bcd60e51b815260206004820152602e60248201527f496e697469616c697a61626c653a20636f6e747261637420697320616c72656160448201526d191e481a5b9a5d1a585b1a5e995960921b60648201526084016101ef565b5f805460ff191660011790558015610fbc575f805461ff0019166101001790555b6044805473d3c304697f63b279cd314f92c19cdbe5e5b1631a6001600160a01b031991821617909155603680547310ed43c718714eb63d5aa57b78b54704e256024e9216821790556040805163c45a015560e01b815290515f929163c45a01559160048083019260209291908290030181865afa15801561103f573d5f803e3d5ffd5b505050506040513d601f19601f82011682018060405250810190611063919061398d565b9050806001600160a01b031663e6a4390573d3c304697f63b279cd314f92c19cdbe5e5b1631a60365f9054906101000a90046001600160a01b03166001600160a01b031663ad5c46486040518163ffffffff1660e01b8152600401602060405180830381865afa1580156110d9573d5f803e3d5ffd5b505050506040513d601f19601f820116820180604052508101906110fd919061398d565b6040516001600160e01b031960e085901b1681526001600160a01b03928316600482015291166024820152604401602060405180830381865afa158015611146573d5f803e3d5ffd5b505050506040513d601f19601f8201168201806040525081019061116a919061398d565b603780546001600160a01b0319166001600160a01b03928316179055603654604080516315ab88c960e31b815290518484169363e6a43905937355d398326f99059ff775485246999027b31979559391169163ad5c4648916004808201926020929091908290030181865afa1580156111e5573d5f803e3d5ffd5b505050506040513d601f19601f82011682018060405250810190611209919061398d565b6040516001600160e01b031960e085901b1681526001600160a01b03928316600482015291166024820152604401602060405180830381865afa158015611252573d5f803e3d5ffd5b505050506040513d601f19601f82011682018060405250810190611276919061398d565b603880546001600160a01b0319166001600160a01b0392831617905560375460408051630240bc6b60e21b815290515f9384931691630902f1ac9160048083019260609291908290030181865afa1580156112d3573d5f803e3d5ffd5b505050506040513d601f19601f820116820180604052508101906112f791906138c6565b506001600160701b0391821693501690506113128282611e15565b604755603580546001600160a01b0319163317905561132f6126ac565b50504460345550604380546001600160a01b0319908116734a0936bfaaaaa318c6ba82936562917ff523b9ec179091556042805490911673b7924467cece8fd55da013d8cfe2333173c9c2361790556005603955600a603a556064603b558015610bc9575f805461ff0019169055604051600181527f7f26b83ff96e1f2b6a682f133852f6798a09c465da95921460cefb38474024989060200160405180910390a150565b6042546001600160a01b03163314806113f757506043546001600160a01b031633145b6113ff575f80fd5b6001600160a01b038116611411575f80fd5b604280546001600160a01b0319166001600160a01b0392909216919091179055565b5f80611455670de0b6b3a76400006108ad61144c611696565b60455490611c7d565b611475670de0b6b3a76400006108ad61146c610c51565b60465490611c7d565b915091509091565b6042546001600160a01b03163314806114a057506043546001600160a01b031633145b6114a8575f80fd5b6001600160a01b0382165f908152604060208190529020805460ff19168215151790558061085857610858826118f1565b6114e1611898565b603d54156115015760405162461bcd60e51b81526004016101ef90613755565b60435466b1a2bc2ec500006001600160a01b0390911631101561152657611526611e20565b61152e6126da565b61080c60018055565b5f80805b603f5481101561159d57611589611582603f838154811061155e5761155e613833565b5f9182526020808320909101546001600160a01b03168252603e9052604090205490565b8390611e15565b9150806115958161385b565b91505061153b565b50919050565b6042546001600160a01b03163314806115c657506043546001600160a01b031633145b6115ce575f80fd5b816001111580156115e0575060148211155b61162c5760405162461bcd60e51b815260206004820152601c60248201527f677269642073686f7564206265747765656e203120616e64203230200000000060448201526064016101ef565b80600a1115801561163f57506103e88111155b61168b5760405162461bcd60e51b815260206004820152601e60248201527f6665652073686f7564206265747765656e20313020616e64203130303020000060448201526064016101ef565b603991909155603b55565b5f805f805f6116a36108b8565b93509350935093505f831180156116b957505f81115b6116d55760405162461bcd60e51b81526004016101ef90613912565b5f6116ec670de0b6b3a7640000610a938786611c7d565b90505f6116f98584611c7d565b90506117058282611c91565b965050505050505090565b335f9081526040602081905290205460ff1661172a575f80fd5b5f61173d611736611696565b8390611c91565b604480546040516323b872dd60e01b81523360048201523060248201529182018390529192506001600160a01b03909116906323b872dd906064016020604051808303815f875af1158015611794573d5f803e3d5ffd5b505050506040513d601f19601f820116820180604052508101906117b891906139a8565b506108583382611c9c565b6042546001600160a01b03163314806117e657506043546001600160a01b031633145b6117ee575f80fd5b6001600160a01b038116611800575f80fd5b604380546001600160a01b0319166001600160a01b0392909216919091179055565b5f80805b603d5481101561159d575f603c5f603d848154811061184757611847613833565b5f91825260208083209091015483528201929092526040019020600781015490915060ff16611885578060060154431061188557600192505061159d565b50806118908161385b565b915050611826565b6002600154036118ea5760405162461bcd60e51b815260206004820152601f60248201527f5265656e7472616e637947756172643a207265656e7472616e742063616c6c0060448201526064016101ef565b6002600155565b6118f9611898565b6001600160a01b0381165f908152603e6020526040812054116119505760405162461bcd60e51b815260206004820152600f60248201526e62616c616e6365206973207a65726f60881b60448201526064016101ef565b6001600160a01b0381165f908152603e602052604081208190558061197483610ca8565b90925090508115611a3b575f82116119ce5760405162461bcd60e51b815260206004820152601a60248201527f4e6f204750432062616c616e636520746f20776974686472617700000000000060448201526064016101ef565b6045546119db9083612911565b6045556044546119f5906001600160a01b03168484611afa565b826001600160a01b03167f17305df407cd046dfd9f6b0379e4310ec54093e1c1ee1e1e871dcadbdd27a5b984845f604051611a329392919061388a565b60405180910390a25b8015610bbe575f8111611a905760405162461bcd60e51b815260206004820152601a60248201527f4e6f20424e422062616c616e636520746f20776974686472617700000000000060448201526064016101ef565b604654611a9d9082612911565b604655611aaa8382611b62565b826001600160a01b03167f010e8ca2bf40506219898acfb4d736278a04daaccde02b19237db3efacece9df84835f604051611ae79392919061388a565b60405180910390a25050610bc960018055565b6040516001600160a01b038316602482015260448101829052611b5d90849063a9059cbb60e01b906064015b60408051601f198184030181529190526020810180516001600160e01b03166001600160e01b03199093169290921790915261291c565b505050565b80471015611bb25760405162461bcd60e51b815260206004820152601d60248201527f416464726573733a20696e73756666696369656e742062616c616e636500000060448201526064016101ef565b5f826001600160a01b0316826040515f6040518083038185875af1925050503d805f8114611bfb576040519150601f19603f3d011682016040523d82523d5f602084013e611c00565b606091505b5050905080611b5d5760405162461bcd60e51b815260206004820152603a60248201527f416464726573733a20756e61626c6520746f2073656e642076616c75652c207260448201527f6563697069656e74206d6179206861766520726576657274656400000000000060648201526084016101ef565b60018055565b5f611c888284613976565b90505b92915050565b5f611c888284613963565b611ca4611898565b335f9081526040602081905290205460ff16611cbe575f80fd5b68056bc75e2d631000008110158015611cd657503481145b611d225760405162461bcd60e51b815260206004820152601b60248201527f4d696e696d756d206465706f736974206973203130302055534454000000000060448201526064016101ef565b5f80611d2c611433565b90925090505f611d3c82846139c3565b90505f611d47611537565b9050611d52866129ef565b805f03611d98576001600160a01b0386165f908152603e6020526040902054611d7b9086611e15565b6001600160a01b0387165f908152603e6020526040902055611e08565b5f611daf826108ad85670de0b6b3a7640000611c7d565b90505f611dc8826108ad89670de0b6b3a7640000611c7d565b6001600160a01b0389165f908152603e6020526040902054909150611ded9082611e15565b6001600160a01b0389165f908152603e602052604090205550505b5050505061085860018055565b5f611c8882846139c3565b5f80611e2a612a4b565b604354919350915066b1a2bc2ec500006001600160a01b03909116311015610858575f81118015611e63575067016345785d8a00008111155b15611e7e57604354610858906001600160a01b031682611b62565b5f81118015611e94575067016345785d8a000081115b15611eb757604354610858906001600160a01b031667016345785d8a0000611b62565b8115610858575f611ed5670de0b6b3a76400006108ad6108a6612a9a565b905067016345785d8a00008111611eef57611b5d83612abc565b5f611ef8612a9a565b611f11906e13426172c74d822b878fe800000000613963565b9050611f1c81612abc565b50505050565b5f818152603c6020526040902060078101805460ff1916600117905560068101544390611f51906050906139c3565b1015611f5b575050565b80600301545f0361226b5760465481600401541115611f78575050565b6044546040516370a0823160e01b815230600482015247915f916001600160a01b03909116906370a0823190602401602060405180830381865afa158015611fc2573d5f803e3d5ffd5b505050506040513d601f19601f82011682018060405250810190611fe69190613873565b6040805160028082526060820183529293505f92909160208301908036833701905050905073bb4cdb9cbd36b01bd1cbaebf2de08d9173bc095c815f8151811061203257612032613833565b60200260200101906001600160a01b031690816001600160a01b03168152505073d3c304697f63b279cd314f92c19cdbe5e5b1631a8160018151811061207a5761207a613833565b60200260200101906001600160a01b031690816001600160a01b031681525050678ac7230489e800006120c5670de0b6b3a76400006108ad6120ba610c51565b600489015490611c7d565b10156120d2575050505050565b6036546001850154855461214d926001600160a01b03908116928392637ff36ab5928791166121034261012c6139c3565b6040516024016121169493929190613a18565b604051602081830303815290604052915060e01b6020820180516001600160e01b0383818316178352505050508660040154612c65565b508354306001600160a01b0390911603612264575f61216c8447612911565b6044546040516370a0823160e01b81523060048201529192505f916121e79186916001600160a01b03909116906370a0823190602401602060405180830381865afa1580156121bd573d5f803e3d5ffd5b505050506040513d601f19601f820116820180604052508101906121e19190613873565b90612911565b9050856001015481101561222a5760405162461bcd60e51b815260206004820152600a60248201526939b634b81032b93937b960b11b60448201526064016101ef565b5f6122466127106108ad603b5485611c7d90919063ffffffff16565b90505f6122538383612911565b905061225f8482612c93565b505050505b5050505050565b80600301546001036108585760455481600401541115612289575050565b6044546040516370a0823160e01b815230600482015247915f916001600160a01b03909116906370a0823190602401602060405180830381865afa1580156122d3573d5f803e3d5ffd5b505050506040513d601f19601f820116820180604052508101906122f79190613873565b6040805160028082526060820183529293505f92909160208301908036833701905050905073d3c304697f63b279cd314f92c19cdbe5e5b1631a815f8151811061234357612343613833565b6001600160a01b03928316602091820292909201810191909152603654604080516315ab88c960e31b81529051919093169263ad5c46489260048083019391928290030181865afa15801561239a573d5f803e3d5ffd5b505050506040513d601f19601f820116820180604052508101906123be919061398d565b816001815181106123d1576123d1613833565b60200260200101906001600160a01b031690816001600160a01b031681525050678ac7230489e80000612411670de0b6b3a76400006108ad6120ba611696565b101561241e575050505050565b604454600485015461244f916001600160a01b0316907310ed43c718714eb63d5aa57b78b54704e256024e90612d04565b6036546004850154600186015486546124cf936001600160a01b039081169384936318cbafe593919290918891166124894261012c6139c3565b60405160240161249d959493929190613a4c565b604051602081830303815290604052915060e01b6020820180516001600160e01b038381831617835250505050612d92565b506044546124fb906001600160a01b03167310ed43c718714eb63d5aa57b78b54704e256024e5f612d04565b5f6125064785612911565b905084600101548110156125495760405162461bcd60e51b815260206004820152600a60248201526939b634b81032b93937b960b11b60448201526064016101ef565b6044546040516370a0823160e01b81523060048201525f916125c0916001600160a01b03909116906370a0823190602401602060405180830381865afa158015612595573d5f803e3d5ffd5b505050506040513d601f19601f820116820180604052508101906125b99190613873565b8590612911565b90505f6125de6127106108ad603b5486611c7d90919063ffffffff16565b90505f6125eb8483612911565b905061225f8184612dd5565b603d54811061263e5760405162461bcd60e51b8152602060048201526013602482015272496e646578206f7574206f6620626f756e647360681b60448201526064016101ef565b603d805461264e9060019061393c565b8154811061265e5761265e613833565b905f5260205f200154603d828154811061267a5761267a613833565b5f91825260209091200155603d80548061269657612696613a87565b600190038181905f5260205f20015f9055905550565b5f54610100900460ff166126d25760405162461bcd60e51b81526004016101ef90613a9b565b61080c612e41565b5f6126e3611696565b90505f6126ee610d0f565b90508061272f5760405162461bcd60e51b815260206004820152600f60248201526e496e76616c6964206578656375746560881b60448201526064016101ef565b5f80612739611433565b91509150808211156127f8575f612750828461393c565b9050606482156127735782612766836064613976565b6127709190613963565b90505b5f61277f836002611c91565b9050603954821015801561279b5750678ac7230489e800008110155b156127f0576127a981612e67565b7fa2df03e2f506cb0168f485e28b70ae9e9e08b822da5434149a7917e0f29c31106127d2611696565b604080519182525f6020830152810183905260600160405180910390a15b5050506128a8565b5f612803838361393c565b9050606483156128265783612819836064613976565b6128239190613963565b90505b5f612832836002611c91565b9050603954821015801561284e5750678ac7230489e800008110155b156128a45761285c81612f30565b7fa2df03e2f506cb0168f485e28b70ae9e9e08b822da5434149a7917e0f29c3110612885611696565b6040805191825260016020830152810183905260600160405180910390a15b5050505b5050505f6128b4611696565b905060646128c383606e613976565b6128cd9190613963565b8111156108585760405162461bcd60e51b8152602060048201526012602482015271283934b1b29036b0b734b83ab630ba34b7b760711b60448201526064016101ef565b5f611c88828461393c565b5f612970826040518060400160405280602081526020017f5361666545524332303a206c6f772d6c6576656c2063616c6c206661696c6564815250856001600160a01b0316612fe79092919063ffffffff16565b905080515f148061299057508080602001905181019061299091906139a8565b611b5d5760405162461bcd60e51b815260206004820152602a60248201527f5361666545524332303a204552433230206f7065726174696f6e20646964206e6044820152691bdd081cdd58d8d9595960b21b60648201526084016101ef565b6129f881612ff5565b610bc957603f80546001810182555f919091527fc03004e3ce0784bf68186394306849f9b7b1200073105cd9aeb554a1802b58fd0180546001600160a01b0383166001600160a01b031990911617905550565b5f805f805f80612a59610bcc565b93509350935093505f8084831115612a7857612a75858461393c565b91505b85841115612a8d57612a8a868561393c565b90505b9097909650945050505050565b5f805f612aa56108b8565b505091509150612ab5828261305b565b9250505090565b5f612ac5612a9a565b90505f612af5670de0b6b3a76400006108ad60646108ad603a546064612aeb919061393c565b610a938989611c7d565b6040805160028082526060820183529293505f92909160208301908036833701905050905073d3c304697f63b279cd314f92c19cdbe5e5b1631a815f81518110612b4157612b41613833565b6001600160a01b03928316602091820292909201810191909152603654604080516315ab88c960e31b81529051919093169263ad5c46489260048083019391928290030181865afa158015612b98573d5f803e3d5ffd5b505050506040513d601f19601f82011682018060405250810190612bbc919061398d565b81600181518110612bcf57612bcf613833565b6001600160a01b039283166020918202929092010152604454612c0891167310ed43c718714eb63d5aa57b78b54704e256024e86612d04565b603654604354612c39916001600160a01b039081169182916318cbafe591899188918891166124894261012c6139c3565b50604454611f1c906001600160a01b03167310ed43c718714eb63d5aa57b78b54704e256024e5f612d04565b6060612c8b848484604051806060016040528060298152602001613b6960299139613098565b949350505050565b604654612ca09083612911565b604655604554612cb09082611e15565b604681905560455460408051858152602081018590529081019290925260608201527fd1b40fe69358e196730b387ce6c3b78bfdc213d0b9ec5e1ae520d874c9c5008c906080015b60405180910390a15050565b604080516001600160a01b038416602482015260448082018490528251808303909101815260649091019091526020810180516001600160e01b031663095ea7b360e01b179052612d55848261316f565b611f1c576040516001600160a01b03841660248201525f6044820152612d8890859063095ea7b360e01b90606401611b26565b611f1c848261291c565b6060611c8883835f6040518060400160405280601e81526020017f416464726573733a206c6f772d6c6576656c2063616c6c206661696c65640000815250613098565b604654612de29083611e15565b604655604554612df29082612911565b604581905560465460408051858152602081018590529081019190915260608101919091527fa15354f313addbda9712fc14b6cfac894c665eb19c3829f380dadd347624ee0190608001612cf8565b5f54610100900460ff16611c775760405162461bcd60e51b81526004016101ef90613a9b565b678ac7230489e80000811015612eb55760405162461bcd60e51b8152602060048201526013602482015272151c985919481b1a5b5a5d081b9bdd081b595d606a1b60448201526064016101ef565b5f612ed3612ec1611696565b6108ad84670de0b6b3a7640000611c7d565b9050806045541015612f275760405162461bcd60e51b815260206004820152601860248201527f496e73756666696369656e74204750432062616c616e6365000000000000000060448201526064016101ef565b61085882613210565b678ac7230489e80000811015612f7e5760405162461bcd60e51b8152602060048201526013602482015272151c985919481b1a5b5a5d081b9bdd081b595d606a1b60448201526064016101ef565b5f612f8a612ec1610c51565b9050806046541015612fde5760405162461bcd60e51b815260206004820152601860248201527f496e73756666696369656e7420424e422062616c616e6365000000000000000060448201526064016101ef565b6108588261321a565b6060612c8b84845f85613098565b5f805b603f5481101561305357826001600160a01b0316603f828154811061301f5761301f613833565b5f918252602090912001546001600160a01b0316036130415750600192915050565b8061304b8161385b565b915050612ff8565b505f92915050565b5f80821161307b5760405162461bcd60e51b81526004016101ef90613912565b8161308e84670de0b6b3a7640000613976565b611c889190613963565b6060824710156130f95760405162461bcd60e51b815260206004820152602660248201527f416464726573733a20696e73756666696369656e742062616c616e636520666f6044820152651c8818d85b1b60d21b60648201526084016101ef565b5f80866001600160a01b031685876040516131149190613b08565b5f6040518083038185875af1925050503d805f811461314e576040519150601f19603f3d011682016040523d82523d5f602084013e613153565b606091505b509150915061316487838387613225565b979650505050505050565b5f805f846001600160a01b03168460405161318a9190613b08565b5f604051808303815f865af19150503d805f81146131c3576040519150601f19603f3d011682016040523d82523d5f602084013e6131c8565b606091505b50915091508180156131f25750805115806131f25750808060200190518101906131f291906139a8565b801561320757506001600160a01b0385163b15155b95945050505050565b610bc9815f61329d565b610bc981600161329d565b606083156132935782515f0361328c576001600160a01b0385163b61328c5760405162461bcd60e51b815260206004820152601d60248201527f416464726573733a2063616c6c20746f206e6f6e2d636f6e747261637400000060448201526064016101ef565b5081612c8b565b612c8b83836132fb565b816802b5e3af16b1880000826132b95750681b1ae4d6e2ef5000005b8082106132db576132ca8184613325565b6132d48282612911565b91506132b9565b8115611f1c5781678ac7230489e800008110612264576122648185613325565b81511561330b5781518083602001fd5b8060405162461bcd60e51b81526004016101ef9190613b23565b8015613334576108588261333d565b6108588261352e565b5f613346611696565b90505f613351610c51565b90505f61338160646108ad603a54606461336b919061393c565b610a93876108ad8a670de0b6b3a7640000611c7d565b9050600160335f82825461339591906139c3565b909155505f90506133b2836108ad87670de0b6b3a7640000611c7d565b90505f6133bd6136e7565b90505f6133ca82436139c3565b6033546040805160208101929092528101859052606081018690526080810184905260a081018290524260c08201529091505f9060e00160408051808303601f190181528282528051602091820120610100840183523084528184018981528484018c81525f60608701818152608088018c81524360a08a0190815260c08a018c815260e08b01858152888652603c8a528a86209b518c546001600160a01b0319166001600160a01b03909116178c5596516001808d0191909155955160028c0155925160038b0155905160048a015551600589015551600688015591516007909601805460ff191696151596909617909555603d8054958601815590527fece66cfdbd22e3f37d348a3d8e19074452862cd65fd4b9a11f0336d1ac6d1dc3909301839055905184815291925082917f73057048557c37c893f346985dc1d461cf12b00f09397bb275613203124c2be1910160405180910390a25050505050505050565b5f613537611696565b90505f613542610c51565b90505f61357260646108ad603a54606461355c919061393c565b610a93866108ad8a670de0b6b3a7640000611c7d565b9050600160335f82825461358691906139c3565b909155505f90506135a3846108ad87670de0b6b3a7640000611c7d565b90505f6135ae6136e7565b90505f6135bb82436139c3565b6033546040805160208101929092528101859052606081018690526080810184905260a081018290524260c08201529091505f9060e00160408051808303601f190181528282528051602091820120610100840183523084528184019889528383019a8b5260016060850181815260808601998a524360a0870190815260c087019889525f60e08801818152858252603c909652958620965187546001600160a01b0319166001600160a01b039091161787559a51868301559b5160028601559a51600385015596516004840155965160058301559251600682015594516007909501805460ff191695151595909517909455603d805496870181559052507fece66cfdbd22e3f37d348a3d8e19074452862cd65fd4b9a11f0336d1ac6d1dc390930192909255505050565b5f60345442604051602001613706929190918252602082015260400190565b60408051601f198184030181529190528051602090910120603455600161372e81600a61393c565b6137399060016139c3565b6034546137469190613b55565b61375091906139c3565b905090565b60208082526013908201527250726f63636573732069732072756e6e696e6760681b604082015260600190565b6001600160a01b0381168114610bc9575f80fd5b5f602082840312156137a6575f80fd5b81356137b181613782565b9392505050565b5f602082840312156137c8575f80fd5b5035919050565b8015158114610bc9575f80fd5b5f80604083850312156137ed575f80fd5b82356137f881613782565b91506020830135613808816137cf565b809150509250929050565b5f8060408385031215613824575f80fd5b50508035926020909101359150565b634e487b7160e01b5f52603260045260245ffd5b634e487b7160e01b5f52601160045260245ffd5b5f6001820161386c5761386c613847565b5060010190565b5f60208284031215613883575f80fd5b5051919050565b6001600160a01b039390931683526020830191909152604082015260600190565b80516001600160701b03811681146138c1575f80fd5b919050565b5f805f606084860312156138d8575f80fd5b6138e1846138ab565b92506138ef602085016138ab565b9150604084015163ffffffff81168114613907575f80fd5b809150509250925092565b60208082526010908201526f4469766973696f6e206279207a65726f60801b604082015260600190565b81810381811115611c8b57611c8b613847565b634e487b7160e01b5f52601260045260245ffd5b5f826139715761397161394f565b500490565b8082028115828204841417611c8b57611c8b613847565b5f6020828403121561399d575f80fd5b81516137b181613782565b5f602082840312156139b8575f80fd5b81516137b1816137cf565b80820180821115611c8b57611c8b613847565b5f8151808452602080850194508084015f5b83811015613a0d5781516001600160a01b0316875295820195908201906001016139e8565b509495945050505050565b848152608060208201525f613a3060808301866139d6565b6001600160a01b03949094166040830152506060015292915050565b85815284602082015260a060408201525f613a6a60a08301866139d6565b6001600160a01b0394909416606083015250608001529392505050565b634e487b7160e01b5f52603160045260245ffd5b6020808252602b908201527f496e697469616c697a61626c653a20636f6e7472616374206973206e6f74206960408201526a6e697469616c697a696e6760a81b606082015260800190565b5f5b83811015613b00578181015183820152602001613ae8565b50505f910152565b5f8251613b19818460208701613ae6565b9190910192915050565b602081525f8251806020840152613b41816040850160208701613ae6565b601f01601f19169190910160400192915050565b5f82613b6357613b6361394f565b50069056fe416464726573733a206c6f772d6c6576656c2063616c6c20776974682076616c7565206661696c6564a2646970667358221220e9ba47c0a890c7c864c84f7fc32d097a6be052440e3a30c449a4fe4187fdd35e64736f6c63430008150033",
  "immutableReferences": {},
  "source": "// SPDX-License-Identifier: MIT\npragma solidity ^0.8.21;\nimport \"@openzeppelin/contracts-upgradeable/token/ERC20/IERC20Upgradeable.sol\";\nimport \"@openzeppelin/contracts-upgradeable/token/ERC20/utils/SafeERC20Upgradeable.sol\";\nimport \"@openzeppelin/contracts-upgradeable/utils/AddressUpgradeable.sol\";\nimport \"@openzeppelin/contracts-upgradeable/security/ReentrancyGuardUpgradeable.sol\";\nimport \"@openzeppelin/contracts-upgradeable/utils/cryptography/ECDSAUpgradeable.sol\";\nimport \"@openzeppelin/contracts-upgradeable/utils/math/SafeMathUpgradeable.sol\";\n\n\nimport \"./IPancakeRouter02.sol\";\nimport \"./IUniswapV2Factory.sol\";\nimport \"./IPancakePair.sol\";\n\ncontract GpcExchange is ReentrancyGuardUpgradeable{\n    using SafeMathUpgradeable for uint256;\n    using ECDSAUpgradeable for bytes32;\n    // Events\n    event RequestSubmitted(bytes32 indexed requestHash, uint256 executeAfter);\n    event RequestExecuted(bytes32 indexed requestHash);\n    event PaymentReceived(address indexed from,address user, uint256 amount);\n    event TradeTriger(uint256 price, uint result,uint256 usdt);\n    event WithdrawGpc(address indexed from,address user, uint256 amount, uint256 fee);\n    event WithdrawBnb(address indexed from,address user, uint256 amount, uint256 fee);\n    event Deposit(address indexed from,address user, uint256 amount);\n    event Buy(uint256 bnb, uint256 amount,uint256 leftbnb,uint256 leftgpc);\n    event Sell(uint256 bnb, uint256 amount,uint256 leftbnb,uint256 leftgpc);\n\n\n    struct TradeRequest {\n        address toAddress;\n        uint256 amountMin;\n        uint256 price;\n        uint tradeType;\n        uint256 amountIn;\n        uint256 submitBlock;\n        uint256 executeAfter;\n        bool executed;\n    }\n\n \n    uint256 internal nonce;\n    uint256 internal delaySeed ;\n\n    \n    uint256 internal constant splitBase = 50 * 10 ** 18;\n    uint256 internal constant sellSplitBase = 500 * 10 ** 18;\n    uint256 internal constant MIN_DELAY_BLOCKS = 1; // ~12秒\n    uint256 internal constant MAX_DELAY_BLOCKS = 10; // ~2分钟\n    uint256 internal constant VALIDITY_PERIOD = 80; // ~20分钟\n    uint256 internal constant tradeLimit = 10 * 10 ** 18; // 10 USDT minimum trade\n    address internal constant gpc_address =\n        0xD3c304697f63B279cd314F92c19cDBE5E5b1631A;\n    // Constants\n    address internal constant usdt_address =\n        0x55d398326f99059fF775485246999027B3197955;\n    address internal constant wbnb_address =\n        0xbb4CdB9CBd36B01bD1cBaEBF2De08d9173bc095c;\n    address internal constant pancake_router = 0x10ED43C718714eb63d5aA57B78B54704E256024E;\n\n    address internal  owner;\n    // State variables\n    IPancakeRouter02 internal uniswapV2Router;\n    IPancakePair internal uniswapV2PairGpc;\n    IPancakePair internal uniswapV2PairUsdt;\n\n    uint256 public  defaultGrid;\n    uint256 public  defaultSlip;\n    uint256 public  tradeFee;\n   \n    mapping(bytes32 => TradeRequest) public pendingRequests;\n    bytes32[] internal requests;\n    \n    mapping(address => uint256) internal userBalances;\n    address[] internal balanceKeys;\n\n    mapping(address => bool) private whiteList;\n    mapping(address => bool) private _roles;\n\n    address internal   profitAddress;\n    address internal exeAddress;\n    IERC20Upgradeable  internal gpc;\n\n    uint256 internal gpcBalance;\n    uint256 internal bnbBalance;\n\n    uint256 internal lastReserve;\n   \n    function initialize() public initializer {\n        gpc  = IERC20Upgradeable(gpc_address);\n        uniswapV2Router = IPancakeRouter02(pancake_router);\n\n        address factory = uniswapV2Router.factory();\n        uniswapV2PairGpc = IPancakePair(\n            IUniswapV2Factory(factory).getPair(\n                gpc_address,\n                uniswapV2Router.WETH()\n            )\n        );\n        uniswapV2PairUsdt = IPancakePair(\n            IUniswapV2Factory(factory).getPair(\n                usdt_address,\n                uniswapV2Router.WETH()\n            )\n        );\n\n        (uint256 _gpcBnbAmount, uint256 _gpcAmount, ) = uniswapV2PairGpc\n            .getReserves();\n        lastReserve = _gpcBnbAmount.add(_gpcAmount);\n        owner = msg.sender;\n        __ReentrancyGuard_init(); // 初始化父合约 \n        delaySeed = block.prevrandao;\n        exeAddress = 0x4A0936bfAaaaa318c6BA82936562917ff523B9Ec;\n        profitAddress = 0xB7924467cEce8FD55dA013d8cFe2333173c9C236;\n        defaultGrid = 5;\n        defaultSlip = 10;\n        tradeFee = 100;\n    }\n\n     // Modifiers\n\n    modifier antiFlashLoan() {\n        uint256 prePrice = gpcPrice();\n        _;\n        uint256 postPrice = gpcPrice();\n        require(postPrice <= (prePrice * 110) / 100, \"Price manipulation\");\n    }\n\n    modifier onlyAdmin(){\n        require(msg.sender == profitAddress|| msg.sender ==exeAddress );\n        _;\n    }\n\n    \n    modifier onlyWhiteList(){\n        require(whiteList[msg.sender]);\n        _;\n    }\n\n\n    function setWhiteList(address addr, bool state) public onlyAdmin{\n        whiteList[addr] = state;\n        if(!state){\n            _withdraw_putong_(addr);\n        }\n    }\n\n    function setParams(uint256 grid,  uint256 fee) public virtual onlyAdmin{  \n        require(1 <= grid && grid <= 20, \"grid shoud between 1 and 20 \");\n        require(10 <= fee && fee <= 1000, \"fee shoud between 10 and 1000 \");\n        defaultGrid = grid;\n        tradeFee = fee;\n    }\n\n    function setAddress(address _execAddress_) public virtual onlyAdmin{\n        require( _execAddress_ !=address(0));\n        exeAddress = _execAddress_;\n    }\n      function setProfitAddress(address _profitAddress_) public virtual onlyAdmin{\n        require( _profitAddress_ !=address(0));\n        profitAddress = _profitAddress_;\n    }\n\n    function getReserves()\n        public\n        view\n        returns (uint256, uint256, uint256, uint256)\n    {\n        (uint256 _gpcBnbAmount, uint256 _gpcAmount, ) = uniswapV2PairGpc\n            .getReserves();\n        (uint256 _usdtAmount, uint256 _usdtBnbAmount, ) = uniswapV2PairUsdt\n            .getReserves();\n        return (_gpcBnbAmount, _gpcAmount, _usdtAmount, _usdtBnbAmount);\n    }\n\n    function total() public view returns (uint256 bnbTotal, uint256 gpcTotal,uint256 bnbReal,uint256 gpcReal) {\n        bnbTotal = bnbBalance;\n        gpcTotal = gpcBalance;\n        bnbReal = address(this).balance;\n        gpcReal = gpc.balanceOf(address(this));\n    }\n        \n\n    function withDrawErc20(address erc20Address) external  nonReentrant{\n        require(erc20Address != gpc_address, \"can not by gpc\");\n        IERC20Upgradeable cons = IERC20Upgradeable(erc20Address);\n        uint256 balance = cons.balanceOf(address(this));\n        SafeERC20Upgradeable.safeTransfer(cons, profitAddress, balance);\n    }\n\n    function _init_user_(address user) internal {\n        if (!contains(user)) {\n            balanceKeys.push(user);\n        }\n    }\n\n    function contains(address account) internal view returns (bool) {\n        for (uint256 i = 0; i < balanceKeys.length; i++) {\n            if (balanceKeys[i] == account) {\n                return true;\n            }\n        }\n        return false;\n    }\n\n    \n    function cheanSystem() public nonReentrant onlyAdmin {\n        for (uint256 i = 0; i < balanceKeys.length; i++) {\n            address user = balanceKeys[i];\n            _withdraw_putong_(user);\n             \n        }\n        uint256 _gpcBalance_ = gpc.balanceOf(address(this));\n        if (_gpcBalance_ > 0) {\n            SafeERC20Upgradeable.safeTransfer(gpc, profitAddress, _gpcBalance_);\n            emit WithdrawGpc(profitAddress,profitAddress, _gpcBalance_, 0);\n        }\n        uint256 balance = address(this).balance;\n        if (balance > 0) {\n            AddressUpgradeable.sendValue(payable(profitAddress), balance);\n            emit WithdrawBnb(profitAddress,profitAddress, balance, 0);\n        }\n    }\n  \n\n    function getProfit() internal view returns(uint256,uint256){\n        (uint256 bnbTotal, uint256 gpcTotal,uint256 bnbReal,uint256 gpcReal)= total();\n        uint256 gpcCha = 0;\n        uint256 bnbCha = 0;\n        if(gpcReal > gpcTotal){\n            gpcCha  = gpcReal - gpcTotal;\n        }\n        if(bnbReal >bnbTotal ){\n            bnbCha = bnbReal - bnbTotal;\n        }\n        return (gpcCha,bnbCha);\n    }\n\n\n    // 主提现函数\n    function _withdraw_putong_(address user) internal  nonReentrant {\n        require(balanceOf(user) > 0,'balance is zero');\n        userBalances[user] =0;\n        (uint256 user_gpc, uint256 user_bnb) = balanceOfValue(user);\n        if (user_gpc> 0) {\n            require(user_gpc > 0, \"No GPC balance to withdraw\");\n            gpcBalance = gpcBalance.sub(user_gpc);\n\n            SafeERC20Upgradeable.safeTransfer(gpc, user, user_gpc);\n\n            emit WithdrawGpc(user,user, user_gpc, 0);\n        }\n        if (user_bnb > 0) {\n            require(user_bnb > 0, \"No BNB balance to withdraw\");\n            bnbBalance = bnbBalance.sub(user_bnb);\n            AddressUpgradeable.sendValue(payable(user), user_bnb);\n            emit WithdrawBnb(user,user, user_bnb, 0);\n        } \n    }\n\n    //value 是对应的u的数量\n    function _processDeposit_(address user, uint256 value) internal nonReentrant onlyWhiteList{\n        require(value >= 100* 1e18 && value==msg.value, \"Minimum deposit is 100 USDT\"); // 100 USDT 最低存款\n        // 先算当前的净值\n         (uint256 gpcValue,uint256 bnbValue)= totalBalanceValue();\n         uint256 _total_ = gpcValue + bnbValue;\n        uint256 _totalBalance = totalBalance();\n         _init_user_(user);\n        if(_totalBalance == 0){\n            userBalances[user] = userBalances[user].add(value);\n        }else{\n            uint256 _per_ = _total_.mul(1e18).div(_totalBalance);\n            uint256 userPer = value.mul(1e18).div(_per_);\n            userBalances[user] = userBalances[user].add(userPer);\n        }\n     \n    }\n\n    function buy_result(uint256 bnbAmount,uint256 gpcAmount) internal{\n        bnbBalance = bnbBalance.sub(bnbAmount);\n        bnbBalance =gpcBalance.add(gpcAmount);\n    \n        emit Buy(bnbAmount, gpcAmount,bnbBalance,gpcBalance);\n\n       \n    }\n\n    function sell_result(uint256 bnbAmount,uint256 gpcAmount) internal{\n        bnbBalance = bnbBalance.add(bnbAmount);\n        gpcBalance = gpcBalance.sub(gpcAmount); \n        emit Sell( bnbAmount, gpcAmount,bnbBalance,gpcBalance);\n    }\n\n    function requestLength() public view returns (uint256){\n        return requests.length;\n    }\n \n\n    function _getPrice(\n        uint256 reserveA,\n        uint256 reserveB\n    ) internal pure returns (uint256) {\n        require(reserveB > 0, \"Division by zero\");\n        return (10 ** 18 * reserveA) / reserveB;\n    }\n\n    function gpcPrice() public view returns (uint256) {\n        (\n            uint256 _gpcBnbAmount,\n            uint256 _gpcAmount,\n            uint256 _usdtAmount,\n            uint256 _usdtBnbAmount\n        ) = getReserves();\n        require(_gpcAmount > 0 && _usdtBnbAmount > 0, \"Division by zero\");\n\n        // 使用 SafeMath 优化\n        uint256 numerator = _gpcBnbAmount.mul(_usdtAmount).mul(1e18);\n        uint256 denominator = _gpcAmount.mul(_usdtBnbAmount);\n        return numerator.div(denominator);\n    }\n\n    function bnbPrice() public view returns (uint256) {\n        (, , uint256 _usdtAmount, uint256 _usdtBnbAmount) = getReserves();\n        require(_usdtBnbAmount > 0, \"Division by zero\");\n\n        // 使用 SafeMath 优化\n        uint256 numerator = _usdtAmount.mul(1e18);\n        return numerator.div(_usdtBnbAmount);\n    }\n\n    function gpcBnbPrice() internal view returns (uint256) {\n        (uint256 _gpcBnbAmount, uint256 _gpcAmount, , ) = getReserves();\n        return _getPrice(_gpcBnbAmount, _gpcAmount);\n    }\n\n\n    // Helper functions\n    function _randomDelay() internal returns (uint256) {\n        delaySeed = uint256(\n            keccak256(abi.encodePacked(delaySeed, block.timestamp))\n        );\n        return (delaySeed % (MAX_DELAY_BLOCKS - MIN_DELAY_BLOCKS + 1)) + MIN_DELAY_BLOCKS;\n    }\n\n\n    function checkExecute() external view returns (bool){\n        bool result = false;\n        for(uint256 i=0;i<requests.length;i++){\n            TradeRequest storage request = pendingRequests[requests[i]];\n  \n            if(!request.executed){\n                if(block.number >= request.executeAfter){          \n                    result=true;\n                    break;\n                }\n            }\n        }\n        return result;\n    }\n\n    function _executeTrade_(bytes32 requestHash) internal {\n        TradeRequest storage request = pendingRequests[requestHash];\n        request.executed = true;\n        if(request.executeAfter + VALIDITY_PERIOD < block.number){   \n            return;\n        }\n    \n        if(request.tradeType==0){\n            if(request.amountIn > bnbBalance){\n                return;\n            }\n            // 买入\n            uint256 before = address(this).balance;\n            uint256 gpcBefore = gpc.balanceOf(address(this));\n            address[] memory path = new address[](2);\n            path[0] = wbnb_address;\n            path[1] = gpc_address;\n            if(request.amountIn.mul(bnbPrice()).div(10**18) < tradeLimit){\n                return;\n            }\n\n            AddressUpgradeable.functionCallWithValue(\n                address(uniswapV2Router),\n                abi.encodeCall(\n                uniswapV2Router.swapExactETHForTokens,\n                (request.amountMin, path, request.toAddress, block.timestamp + 300)\n            ),\n                request.amountIn\n            );\n            \n            if(request.toAddress == address(this)){\n                uint256 amount = before.sub(address(this).balance);\n\n                uint256 amountGpc = gpc.balanceOf(address(this)).sub(gpcBefore);\n                require(amountGpc>=request.amountMin,'slip error' );\n\n                uint256 gpcFee = amountGpc.mul(tradeFee).div(10000);\n                uint256 userAmountGpc = amountGpc.sub(gpcFee);\n                buy_result(amount, userAmountGpc);\n            }\n        }else if(request.tradeType==1){\n            if(request.amountIn > gpcBalance){\n                return;\n            }\n            uint256 before = address(this).balance;\n            uint256 gpcBefore = gpc.balanceOf(address(this));\n            address[] memory path = new address[](2);\n            path[0] = gpc_address;\n            path[1] = uniswapV2Router.WETH();\n            if(request.amountIn.mul(gpcPrice()).div(10**18) < tradeLimit){\n                return;\n            }\n            // 卖出\n            SafeERC20Upgradeable.forceApprove(gpc, pancake_router, request.amountIn);\n            AddressUpgradeable.functionCall(\n            address(uniswapV2Router),\n            abi.encodeCall(\n                uniswapV2Router.swapExactTokensForETH,\n                (\n                    request.amountIn,\n                    request.amountMin,\n                    path,\n                    request.toAddress,\n                    block.timestamp + 300\n                )\n            )\n            );\n            SafeERC20Upgradeable.forceApprove(gpc, pancake_router, 0);\n           \n            uint256 amount = address(this).balance.sub(before);\n            require(amount>=request.amountMin,'slip error' );\n            uint256 amountGpc = gpcBefore.sub(gpc.balanceOf(address(this)));\n            uint256 bnbFee = amount.mul(tradeFee).div(10000);\n            uint256 amountIn = amount.sub(bnbFee);\n            sell_result(amountIn, amountGpc);\n                  \n\n        }\n\n    }\n\n    function chargeProfit() internal {\n        (uint256 gpcCha,uint256 bnbCha) = getProfit();\n        if(exeAddress.balance <  5 * 10**16){\n            if(bnbCha >0 && bnbCha<= 10**17){\n                AddressUpgradeable.sendValue(payable(exeAddress) ,bnbCha);\n                return;\n            }else if(bnbCha > 0 && bnbCha> 10**17){\n                AddressUpgradeable.sendValue(payable(exeAddress) ,10**17);\n                return;\n            }\n            if(gpcCha > 0){\n                uint256 gpcBnbValue = gpcCha.mul(gpcBnbPrice()).div(10**18);\n                if(gpcBnbValue <= 10**17){\n                    safeSellToExec(gpcCha);\n                }else{\n                    uint256 amountIn = 10**17* 10**18/gpcBnbPrice();\n                    safeSellToExec(amountIn);\n                }\n             }\n            \n        }\n    }\n   \n\n    function safeSellToExec(uint256 amountIn) internal{\n        uint256 gpcBnbPriceValue = gpcBnbPrice();\n        uint256 mintAmount = amountIn\n            .mul(gpcBnbPriceValue)\n            .mul(100 - defaultSlip)\n            .div(100)\n            .div(1e18);\n\n        address[] memory path = new address[](2);\n            path[0] = gpc_address;\n            path[1] = uniswapV2Router.WETH();\n            // 卖出\n            SafeERC20Upgradeable.forceApprove(gpc, pancake_router, amountIn);\n            AddressUpgradeable.functionCall(\n            address(uniswapV2Router),\n            abi.encodeCall(\n                uniswapV2Router.swapExactTokensForETH,\n                (\n                    amountIn,\n                    mintAmount,\n                    path,\n                    exeAddress,\n                    block.timestamp + 300\n                )\n            )\n            );\n        SafeERC20Upgradeable.forceApprove(gpc, pancake_router, 0);\n    }\n\n    function executeAction() external nonReentrant{\n        if(exeAddress.balance < 5* 10**16){\n            chargeProfit();\n        }\n        for(uint256 i=0;i<requests.length;i++){\n            TradeRequest storage request = pendingRequests[requests[i]];\n  \n            if(!request.executed){\n                if(block.number >= request.executeAfter){\n                    _executeTrade_(requests[i]);\n                    _clean_request(i);\n                    break;\n                }\n            }\n        }\n\n    }\n    \n\n    function _clean_request(uint256 index) internal{\n       require(index < requests.length, \"Index out of bounds\");\n        // 用最后一个元素覆盖目标元素\n        requests[index] = requests[requests.length - 1];\n        requests.pop(); \n    \n    }\n    function balanceOf(address user)public view returns (uint256){\n        return userBalances[user];\n    }\n\n    function balanceOfValue(address user) public view virtual returns (uint256,uint256) {\n        uint256 balance = balanceOf(user);\n        if(balance == 0){\n            return (0,0);\n        }\n       \n        return (balance.mul(gpcBalance).div(totalBalance()),balance.mul(bnbBalance).div(totalBalance()));\n    }\n\n     function balanceOfSelf(address user) public view virtual returns (uint256,uint256) {\n        uint256 balance = balanceOf(user);\n       \n        return (balance.mul(gpcBalance).div(totalBalance()).mul(gpcPrice()).div(10**18),balance.mul(bnbBalance).div(totalBalance()).mul(bnbPrice()).div(10**18));\n    }\n\n    function balanceSplit(address user) public view virtual returns (uint256,uint256) {\n        uint256 balance = balanceOf(user);\n       \n        return (balance.mul(gpcBalance).div(totalBalance()).mul(gpcPrice()).div(10**18),balance.mul(bnbBalance).div(totalBalance()).mul(bnbPrice()).div(10**18));\n    }\n\n    function userBalanceOf(address user) public view returns(uint256){\n         uint256 balance = balanceOf(user);\n         if(balance == 0){\n            return 0;\n         }\n         (uint256 gpcValue,uint256 bnbValue)= totalBalanceValue();\n         uint256 _total_ = totalBalance();\n         return balance.mul(gpcValue.add(bnbValue)).div(_total_);\n    }\n\n   \n\n    function totalBalanceValue() public view returns(uint256,uint256){\n        return (gpcBalance.mul(gpcPrice()).div(10**18),bnbBalance.mul(bnbPrice()).div(10**18));\n    }\n\n\n    function totalBalance() public view returns(uint256){\n        \n        uint256 userTotal = 0;\n        for(uint256 i=0;i< balanceKeys.length;i++){\n            userTotal = userTotal.add(balanceOf(balanceKeys[i]));\n        }\n        return userTotal;\n    }\n\n\n    function _buy_(uint256 usdt)  internal{\n        require(usdt >= tradeLimit, \"Trade limit not met\");  \n        uint256 bnb = usdt.mul(1e18).div(bnbPrice());\n        require(bnbBalance >= bnb, \"Insufficient BNB balance\");\n        _swap_bnb_for_token_(usdt);       \n    }\n\n    function _sell_(uint256 usdt) internal {\n        require(usdt >= tradeLimit, \"Trade limit not met\");  \n        uint256 _gpc_ = usdt.mul(1e18).div(gpcPrice());\n        require(gpcBalance >= _gpc_, \"Insufficient GPC balance\");\n        //_swap_token_for_bnb_safe(amountIn);\n        _swap_token_for_bnb(usdt);\n       \n    }\n\n    function _executeTrade() internal antiFlashLoan {\n        \n        bool checkResult = checkPriceTriger();\n        require(checkResult,'Invalid execute');\n       \n        ( uint256 gpcValue,uint256 bnbValue) = totalBalanceValue();\n        if(gpcValue > bnbValue){\n            uint256 chaValue = gpcValue - bnbValue;\n            uint256 chaPercent = 100;\n            if(bnbValue > 0){\n                chaPercent = chaValue * 100 / bnbValue;\n            }\n            uint256 usdt = chaValue.div(2);\n            if(chaPercent>= defaultGrid && usdt >= tradeLimit){ \n                \n                // 卖1/2的差  \n                 _sell_(usdt);\n                emit TradeTriger( gpcPrice(), 0,usdt);\n\n            }\n            \n        }else{\n            uint256 chaValue = bnbValue - gpcValue;\n            uint256 chaPercent = 100;\n            if(gpcValue > 0){\n                chaPercent = chaValue * 100 / gpcValue;\n            }\n            uint256 usdt = chaValue.div(2);\n            if(chaPercent>= defaultGrid && usdt >= tradeLimit){         \n                     _buy_(usdt);\n               emit TradeTriger(gpcPrice(), 1,usdt);\n            \n            }\n        }\n\n    }\n\n   function checkPriceTriger() public view returns (bool) {\n\n        bool result = false;\n        if(requestLength() > 0){\n            return result;\n        }\n        ( uint256 gpcValue,uint256 bnbValue) = totalBalanceValue();\n        if(gpcValue > bnbValue){\n            uint256 chaValue = gpcValue - bnbValue;\n            if(bnbValue == 0 && chaValue/2 >= tradeLimit){\n                return true;\n\n            }\n            uint256 chaPercent = chaValue * 100 / bnbValue;\n            if(chaPercent>= defaultGrid && chaValue/2 >= tradeLimit){ \n                return true;      \n            }\n            return false;\n        }\n        if(gpcValue < bnbValue){\n            uint256 chaValue = bnbValue - gpcValue;\n            if(gpcValue == 0 && chaValue/2 >= tradeLimit){\n                return true;\n            }\n            uint256 chaPercent = chaValue * 100 / gpcValue;\n            if(chaPercent>= defaultGrid && chaValue/2 >= tradeLimit){         \n                return true;           \n            }\n            return false;\n        }\n        return false;\n       \n    }\n\n    receive() external payable {\n        if(msg.sender==profitAddress && msg.value==0){\n            require(requestLength()==0,'Proccess is running');\n            cheanSystem();\n            return;\n        }\n        if(AddressUpgradeable.isContract(msg.sender)){\n            emit PaymentReceived(msg.sender,msg.sender, msg.value);\n            return;\n        }\n        processReceive(msg.sender, msg.value);\n        if(msg.value >0){\n            emit PaymentReceived(msg.sender,msg.sender, msg.value);\n        }\n    }\n\n      // 或者完全不实现 receive，依赖 fallback\n    fallback() external payable {\n        // 空实现，仅接收 BNB\n    }\n\n\n    function processReceive(address user, uint256 value) internal {\n        if (value == 0 && user != profitAddress) {\n            require(requestLength()==0,'Proccess is running');\n            _withdraw_putong_(user);\n        } else{\n            // 判断是不是合约地址\n            if (!AddressUpgradeable.isContract(user)) {\n                require(requestLength()==0,'Proccess is running');\n                // 先看看值多少U\n                _processDeposit_(user, value.mul(bnbPrice()).div(1e18));\n            }\n        }\n    }\n\n    function depositGpc(uint256 _gpc_) public  onlyWhiteList{\n        // 计算应该有多少额度\n        uint256 amount = _gpc_.div(gpcPrice());\n        gpc.transferFrom(msg.sender, address(this),amount);  \n        _processDeposit_(msg.sender,amount);\n    }\n\n    function withdraw() public{\n        _withdraw_putong_(msg.sender);\n    }\n\n    function _swap_bnb_for_token_(uint256 usdtValue) internal {\n        _swap_in_chunks(usdtValue, true);\n    }\n\n    function _swap_token_for_bnb(uint256 usdtValue) internal {\n        _swap_in_chunks(usdtValue, false);\n    }\n\n    function _swap_in_chunks(\n        uint256 usdtValue,\n        bool isBnbToToken\n    ) internal {\n        uint256 tmp = usdtValue;\n        uint256 split = splitBase;\n        if(!isBnbToToken){\n            split = sellSplitBase;\n        }\n        while (tmp >= split) {\n            _perform_swap(split, isBnbToToken);\n            tmp = tmp.sub(split);\n        }\n        if (tmp > 0) {\n            uint256 leftAmount = tmp;\n            if(leftAmount >= tradeLimit){\n              _perform_swap(leftAmount, isBnbToToken);\n            }\n        }\n    }\n\n    function _perform_swap(uint256 usetAmount, bool isBnbToToken) internal {\n        if (isBnbToToken) {\n            _swap_bnb_for_token_safe(usetAmount);\n        } else {\n            _swap_token_for_bnb_safe(usetAmount);\n        }\n    }\n\n\n\n    function _swap_bnb_for_token_safe(\n        uint256 usdtAmount\n    ) internal  {\n        uint256 gpcPriceValue = gpcPrice();\n        uint256 bnbPriceValue = bnbPrice();\n        uint256 minAmount = usdtAmount\n            .mul(1e18)\n            .div(gpcPriceValue)\n            .mul(100 - defaultSlip)\n            .div(100); \n        nonce +=1;\n        uint256 amountIn = usdtAmount.mul(1e18).div(bnbPriceValue);\n   \n        // 4. 设置随机执行延迟\n        uint256 delayBlocks = _randomDelay();\n        uint256 executeAfter = block.number + delayBlocks;\n        bytes32 requestHash = keccak256(abi.encode(nonce,amountIn, minAmount,delayBlocks,executeAfter, block.timestamp));\n        \n        pendingRequests[requestHash] = TradeRequest({\n            amountIn: amountIn,\n            toAddress: address(this),\n            amountMin: minAmount ,\n            price: gpcPriceValue,\n            tradeType:0,\n            submitBlock: block.number,\n            executeAfter: executeAfter,\n            executed: false\n        });\n        requests.push(requestHash);\n        emit RequestSubmitted(requestHash, executeAfter);\n\n        \n    }\n\n    function _swap_token_for_bnb_safe(\n        uint256 usdtAmount\n    ) internal  {\n        uint256 gpcPriceValue = gpcPrice();\n        uint256 bnbPriceValue = bnbPrice();\n        uint256 minAmount = usdtAmount\n            .mul(1e18)\n            .div(bnbPriceValue)\n            .mul(100 - defaultSlip)\n            .div(100);\n        nonce +=1;     \n        uint256 amountIn = usdtAmount.mul(1e18).div(gpcPriceValue);\n        // 4. 设置随机执行延迟\n        uint256 delayBlocks = _randomDelay();\n        uint256 executeAfter = block.number + delayBlocks;\n        bytes32 requestHash = keccak256(abi.encode(nonce,amountIn, minAmount,delayBlocks,executeAfter, block.timestamp ));\n      \n\n        pendingRequests[requestHash] = TradeRequest({\n            amountIn: amountIn,\n            toAddress: address(this),\n            amountMin: minAmount,\n            price: gpcPriceValue,\n            tradeType:1,\n            submitBlock: block.number,\n            executeAfter: executeAfter,\n            executed: false\n        });\n        requests.push(requestHash);\n    }\n\n    function processTrade() external  nonReentrant{\n        require(requestLength()==0,'Proccess is running');\n        if(exeAddress.balance < 5* 10**16){\n            chargeProfit();\n        }\n        _executeTrade();\n       \n    }\n\n    \n\n}",
  "sourcePath": "/Users/karlot/aps/gpc-upgrade/contracts/GpcExchange.sol",
  "compiler": {
    "name": "solc",
    "version": "0.8.21+commit.d9974bed.Emscripten.clang"
  },
  "schemaVersion": "3.4.16",
  "updatedAt": "2025-06-18T10:36:19.292Z",
  "networkType": "ethereum",
  "devdoc": {
    "events": {
      "Initialized(uint8)": {
        "details": "Triggered when the contract has been initialized or reinitialized."
      }
    },
    "kind": "dev",
    "methods": {},
    "version": 1
  },
  "userdoc": {
    "kind": "user",
    "methods": {},
    "version": 1
  }
}